{
  "_format": "hh-sol-artifact-1",
  "contractName": "Zapper",
  "sourceName": "contracts/Zapper.sol",
  "abi": [
    {
      "inputs": [
        {
          "internalType": "address",
          "name": "_SGX",
          "type": "address"
        },
        {
          "internalType": "address",
          "name": "_vaultFactory",
          "type": "address"
        }
      ],
      "stateMutability": "nonpayable",
      "type": "constructor"
    },
    {
      "anonymous": false,
      "inputs": [
        {
          "indexed": true,
          "internalType": "address",
          "name": "previousOwner",
          "type": "address"
        },
        {
          "indexed": true,
          "internalType": "address",
          "name": "newOwner",
          "type": "address"
        }
      ],
      "name": "OwnershipTransferred",
      "type": "event"
    },
    {
      "inputs": [],
      "name": "SGX",
      "outputs": [
        {
          "internalType": "address",
          "name": "",
          "type": "address"
        }
      ],
      "stateMutability": "view",
      "type": "function"
    },
    {
      "inputs": [],
      "name": "WAVAX",
      "outputs": [
        {
          "internalType": "address",
          "name": "",
          "type": "address"
        }
      ],
      "stateMutability": "view",
      "type": "function"
    },
    {
      "inputs": [
        {
          "internalType": "address",
          "name": "",
          "type": "address"
        }
      ],
      "name": "allowedReserves",
      "outputs": [
        {
          "internalType": "bool",
          "name": "",
          "type": "bool"
        }
      ],
      "stateMutability": "view",
      "type": "function"
    },
    {
      "inputs": [],
      "name": "owner",
      "outputs": [
        {
          "internalType": "address",
          "name": "",
          "type": "address"
        }
      ],
      "stateMutability": "view",
      "type": "function"
    },
    {
      "inputs": [],
      "name": "renounceOwnership",
      "outputs": [],
      "stateMutability": "nonpayable",
      "type": "function"
    },
    {
      "inputs": [
        {
          "internalType": "address",
          "name": "_token",
          "type": "address"
        },
        {
          "internalType": "bool",
          "name": "value",
          "type": "bool"
        }
      ],
      "name": "setReserve",
      "outputs": [],
      "stateMutability": "nonpayable",
      "type": "function"
    },
    {
      "inputs": [
        {
          "internalType": "address",
          "name": "_to",
          "type": "address"
        },
        {
          "internalType": "uint256",
          "name": "_amount",
          "type": "uint256"
        }
      ],
      "name": "swapAVAXforSGX",
      "outputs": [],
      "stateMutability": "nonpayable",
      "type": "function"
    },
    {
      "inputs": [
        {
          "internalType": "address",
          "name": "_token",
          "type": "address"
        },
        {
          "internalType": "address",
          "name": "_to",
          "type": "address"
        },
        {
          "internalType": "uint256",
          "name": "_amount",
          "type": "uint256"
        }
      ],
      "name": "swapTokenforSGX",
      "outputs": [],
      "stateMutability": "nonpayable",
      "type": "function"
    },
    {
      "inputs": [
        {
          "internalType": "address",
          "name": "newOwner",
          "type": "address"
        }
      ],
      "name": "transferOwnership",
      "outputs": [],
      "stateMutability": "nonpayable",
      "type": "function"
    },
    {
      "inputs": [],
      "name": "vaultFactory",
      "outputs": [
        {
          "internalType": "contract IVaultFactory",
          "name": "",
          "type": "address"
        }
      ],
      "stateMutability": "view",
      "type": "function"
    },
    {
      "stateMutability": "payable",
      "type": "receive"
    }
  ],
  "bytecode": "0x6080604052600380546001600160a01b0319167360ae616a2155ee3d9a68541ba4544862310933d41790553480156200003757600080fd5b506040516200151f3803806200151f8339810160408190526200005a916200018a565b6200006e6200006862000119565b6200011d565b600180546001600160a01b039384166001600160a01b0319918216178255600480549390941692169190911790915560026020527f6c05bcd04bee20d497aa9663ddd2eab426dac7b6ff7b0aa0a69c9806bbcffe7c805460ff19908116831790915573130966628846bfd36ff31a822705796e8cb8c18d6000527f92a8e8cb4a39f22c00fb2592309c3e78df1c647c457c8c3cde1df7cceb22856580549091169091179055620001c1565b3390565b600080546001600160a01b038381166001600160a01b0319831681178455604051919092169283917f8be0079c531659141344cd1fd0a4f28419497f9722a3daafe3b4186f6b6457e09190a35050565b80516001600160a01b03811681146200018557600080fd5b919050565b600080604083850312156200019d578182fd5b620001a8836200016d565b9150620001b8602084016200016d565b90509250929050565b61134e80620001d16000396000f3fe6080604052600436106100955760003560e01c8063ba3c763611610059578063ba3c76361461012d578063c06ebe9a1461015a578063d8a06f731461017a578063f2fde38b1461018f578063ff676c71146101af5761009c565b8063715018a6146100a157806373b295c2146100b85780638da5cb5b146100e35780639885a256146100f857806399dac893146101185761009c565b3661009c57005b600080fd5b3480156100ad57600080fd5b506100b66101cf565b005b3480156100c457600080fd5b506100cd610223565b6040516100da91906110cc565b60405180910390f35b3480156100ef57600080fd5b506100cd61023b565b34801561010457600080fd5b506100b6610113366004610fb5565b61024a565b34801561012457600080fd5b506100cd61081a565b34801561013957600080fd5b5061014d610148366004610f23565b610829565b6040516100da919061111d565b34801561016657600080fd5b506100b6610175366004610f7f565b61083e565b34801561018657600080fd5b506100cd6108a8565b34801561019b57600080fd5b506100b66101aa366004610f23565b6108b7565b3480156101bb57600080fd5b506100b66101ca366004610f44565b610928565b6101d7610eb3565b6001600160a01b03166101e861023b565b6001600160a01b0316146102175760405162461bcd60e51b815260040161020e90611226565b60405180910390fd5b6102216000610eb7565b565b73b31f66aa3c1e785363f0875a1b74e27b85fd66c781565b6000546001600160a01b031690565b336001600160a01b038316146102725760405162461bcd60e51b815260040161020e906111d7565b6004805460408051636e1d52cf60e01b815290516001600160a01b0390921692636e1d52cf928282019260209290829003018186803b1580156102b457600080fd5b505afa1580156102c8573d6000803e3d6000fd5b505050506040513d601f19601f820116820180604052508101906102ec91906110b4565b81101561030b5760405162461bcd60e51b815260040161020e906112bd565b6040516370a0823160e01b8152819073b31f66aa3c1e785363f0875a1b74e27b85fd66c7906370a08231906103449086906004016110cc565b60206040518083038186803b15801561035c57600080fd5b505afa158015610370573d6000803e3d6000fd5b505050506040513d601f19601f8201168201806040525081019061039491906110b4565b10156103b25760405162461bcd60e51b815260040161020e906111fa565b6040516323b872dd60e01b815273b31f66aa3c1e785363f0875a1b74e27b85fd66c7906323b872dd906103ed908590309086906004016110e0565b602060405180830381600087803b15801561040757600080fd5b505af115801561041b573d6000803e3d6000fd5b505050506040513d601f19601f8201168201806040525081019061043f9190611098565b5060035460405163095ea7b360e01b815273b31f66aa3c1e785363f0875a1b74e27b85fd66c79163095ea7b391610484916001600160a01b0316908590600401611104565b602060405180830381600087803b15801561049e57600080fd5b505af11580156104b2573d6000803e3d6000fd5b505050506040513d601f19601f820116820180604052508101906104d69190611098565b50604080516002808252606080830184529260208301908036833701905050905073b31f66aa3c1e785363f0875a1b74e27b85fd66c78160008151811061052d57634e487b7160e01b600052603260045260246000fd5b6001600160a01b039283166020918202929092010152600180548351921691839190811061056b57634e487b7160e01b600052603260045260246000fd5b6001600160a01b03928316602091820292909201015260035460405163a2a1623d60e01b815291169063a2a1623d9084906105b190600090869089904290600401611128565b6000604051808303818588803b1580156105ca57600080fd5b505af11580156105de573d6000803e3d6000fd5b50505050506040513d6000823e601f3d908101601f191682016040526106079190810190610fde565b506001546040516370a0823160e01b815283916001600160a01b0316906370a08231906106389087906004016110cc565b60206040518083038186803b15801561065057600080fd5b505afa158015610664573d6000803e3d6000fd5b505050506040513d601f19601f8201168201806040525081019061068891906110b4565b10156106a65760405162461bcd60e51b815260040161020e90611286565b600480546040516316d3759560e01b81526001600160a01b03909116916316d37595916106d5918791016110cc565b60206040518083038186803b1580156106ed57600080fd5b505afa158015610701573d6000803e3d6000fd5b505050506040513d601f19601f820116820180604052508101906107259190611098565b15610792576004805460405163945fb81d60e01b81526001600160a01b039091169163945fb81d9161075b918791879101611104565b600060405180830381600087803b15801561077557600080fd5b505af1158015610789573d6000803e3d6000fd5b50505050610815565b60048054604051639abbdf4b60e01b81526001600160a01b0390911691639abbdf4b916107c1918691016112eb565b602060405180830381600087803b1580156107db57600080fd5b505af11580156107ef573d6000803e3d6000fd5b505050506040513d601f19601f820116820180604052508101906108139190611098565b505b505050565b6001546001600160a01b031681565b60026020526000908152604090205460ff1681565b610846610eb3565b6001600160a01b031661085761023b565b6001600160a01b03161461087d5760405162461bcd60e51b815260040161020e90611226565b6001600160a01b03919091166000908152600260205260409020805460ff1916911515919091179055565b6004546001600160a01b031681565b6108bf610eb3565b6001600160a01b03166108d061023b565b6001600160a01b0316146108f65760405162461bcd60e51b815260040161020e90611226565b6001600160a01b03811661091c5760405162461bcd60e51b815260040161020e90611191565b61092581610eb7565b50565b336001600160a01b038316146109505760405162461bcd60e51b815260040161020e906111d7565b6004805460408051636e1d52cf60e01b815290516001600160a01b0390921692636e1d52cf928282019260209290829003018186803b15801561099257600080fd5b505afa1580156109a6573d6000803e3d6000fd5b505050506040513d601f19601f820116820180604052508101906109ca91906110b4565b8110156109e95760405162461bcd60e51b815260040161020e906112bd565b6001600160a01b03831660009081526002602052604090205460ff16610a215760405162461bcd60e51b815260040161020e9061125b565b6040516323b872dd60e01b81526001600160a01b038416906323b872dd90610a51903390309086906004016110e0565b602060405180830381600087803b158015610a6b57600080fd5b505af1158015610a7f573d6000803e3d6000fd5b505050506040513d601f19601f82011682018060405250810190610aa39190611098565b5060035460405163095ea7b360e01b81526001600160a01b038581169263095ea7b392610ad892909116908590600401611104565b602060405180830381600087803b158015610af257600080fd5b505af1158015610b06573d6000803e3d6000fd5b505050506040513d601f19601f82011682018060405250810190610b2a9190611098565b50604080516003808252608082019092526060916020820183803683370190505090508381600081518110610b6f57634e487b7160e01b600052603260045260246000fd5b60200260200101906001600160a01b031690816001600160a01b03168152505073b31f66aa3c1e785363f0875a1b74e27b85fd66c781600181518110610bc557634e487b7160e01b600052603260045260246000fd5b6001600160a01b039283166020918202929092010152600154825191169082906002908110610c0457634e487b7160e01b600052603260045260246000fd5b6001600160a01b03928316602091820292909201015260035460405163a2a1623d60e01b815291169063a2a1623d908490610c4a90600090869089904290600401611128565b6000604051808303818588803b158015610c6357600080fd5b505af1158015610c77573d6000803e3d6000fd5b50505050506040513d6000823e601f3d908101601f19168201604052610ca09190810190610fde565b506001546040516370a0823160e01b815283916001600160a01b0316906370a0823190610cd19087906004016110cc565b60206040518083038186803b158015610ce957600080fd5b505afa158015610cfd573d6000803e3d6000fd5b505050506040513d601f19601f82011682018060405250810190610d2191906110b4565b1015610d3f5760405162461bcd60e51b815260040161020e90611286565b600480546040516316d3759560e01b81526001600160a01b03909116916316d3759591610d6e918791016110cc565b60206040518083038186803b158015610d8657600080fd5b505afa158015610d9a573d6000803e3d6000fd5b505050506040513d601f19601f82011682018060405250810190610dbe9190611098565b15610e2b576004805460405163945fb81d60e01b81526001600160a01b039091169163945fb81d91610df4918791879101611104565b600060405180830381600087803b158015610e0e57600080fd5b505af1158015610e22573d6000803e3d6000fd5b50505050610813565b60048054604051639abbdf4b60e01b81526001600160a01b0390911691639abbdf4b91610e5a918691016112eb565b602060405180830381600087803b158015610e7457600080fd5b505af1158015610e88573d6000803e3d6000fd5b505050506040513d601f19601f82011682018060405250810190610eac9190611098565b5050505050565b3390565b600080546001600160a01b038381166001600160a01b0319831681178455604051919092169283917f8be0079c531659141344cd1fd0a4f28419497f9722a3daafe3b4186f6b6457e09190a35050565b80356001600160a01b0381168114610f1e57600080fd5b919050565b600060208284031215610f34578081fd5b610f3d82610f07565b9392505050565b600080600060608486031215610f58578182fd5b610f6184610f07565b9250610f6f60208501610f07565b9150604084013590509250925092565b60008060408385031215610f91578182fd5b610f9a83610f07565b91506020830135610faa8161130a565b809150509250929050565b60008060408385031215610fc7578182fd5b610fd083610f07565b946020939093013593505050565b60006020808385031215610ff0578182fd5b825167ffffffffffffffff80821115611007578384fd5b818501915085601f83011261101a578384fd5b81518181111561102c5761102c6112f4565b8381026040518582820101818110858211171561104b5761104b6112f4565b604052828152858101935084860182860187018a1015611069578788fd5b8795505b8386101561108b57805185526001959095019493860193860161106d565b5098975050505050505050565b6000602082840312156110a9578081fd5b8151610f3d8161130a565b6000602082840312156110c5578081fd5b5051919050565b6001600160a01b0391909116815260200190565b6001600160a01b039384168152919092166020820152604081019190915260600190565b6001600160a01b03929092168252602082015260400190565b901515815260200190565b600060808201868352602060808185015281875180845260a0860191508289019350845b818110156111715784516001600160a01b03168352938301939183019160010161114c565b50506001600160a01b039690961660408501525050506060015292915050565b60208082526026908201527f4f776e61626c653a206e6577206f776e657220697320746865207a65726f206160408201526564647265737360d01b606082015260800190565b6020808252600990820152682737ba103ab9b2b91760b91b604082015260600190565b6020808252601290820152712737ba1032b737bab3b4103337bab732399760711b604082015260600190565b6020808252818101527f4f776e61626c653a2063616c6c6572206973206e6f7420746865206f776e6572604082015260600190565b602080825260119082015270151bdad95b881b9bdd08185b1b1bddd959607a1b604082015260600190565b6020808252601f908201527f4572726f7220636f6d756e69636174696e67207769746820726f757465722e00604082015260600190565b60208082526014908201527320b6b7bab73a1034b9903a37b79039b6b0b6361760611b604082015260600190565b90815260200190565b634e487b7160e01b600052604160045260246000fd5b801515811461092557600080fdfea2646970667358221220b2c8526a3eee2d6221bafe1a6d82bb687a436fa24cdc5d88f4c447d7f6cb5fa064736f6c63430008000033",
  "linkReferences": {},
  "deployedLinkReferences": {}
}