{
  "_format": "hh-sol-artifact-1",
  "contractName": "LockUpHell",
  "sourceName": "contracts/lockupHell.sol",
  "abi": [
    {
      "inputs": [
        {
          "internalType": "address",
          "name": "_SGX",
          "type": "address"
        }
      ],
      "stateMutability": "nonpayable",
      "type": "constructor"
    },
    {
      "anonymous": false,
      "inputs": [
        {
          "indexed": true,
          "internalType": "address",
          "name": "previousOwner",
          "type": "address"
        },
        {
          "indexed": true,
          "internalType": "address",
          "name": "newOwner",
          "type": "address"
        }
      ],
      "name": "OwnershipTransferred",
      "type": "event"
    },
    {
      "anonymous": false,
      "inputs": [
        {
          "indexed": false,
          "internalType": "uint32",
          "name": "value",
          "type": "uint32"
        }
      ],
      "name": "longLockupTimeChanged",
      "type": "event"
    },
    {
      "anonymous": false,
      "inputs": [
        {
          "indexed": false,
          "internalType": "uint32",
          "name": "percentage",
          "type": "uint32"
        }
      ],
      "name": "longPercentageChanged",
      "type": "event"
    },
    {
      "anonymous": false,
      "inputs": [
        {
          "indexed": true,
          "internalType": "address",
          "name": "user",
          "type": "address"
        },
        {
          "indexed": false,
          "internalType": "uint256",
          "name": "shortLockupRewards",
          "type": "uint256"
        },
        {
          "indexed": false,
          "internalType": "uint256",
          "name": "longLockupRewards",
          "type": "uint256"
        }
      ],
      "name": "rewardsLocked",
      "type": "event"
    },
    {
      "anonymous": false,
      "inputs": [
        {
          "indexed": false,
          "internalType": "uint32",
          "name": "value",
          "type": "uint32"
        }
      ],
      "name": "shortLockupTimeChanged",
      "type": "event"
    },
    {
      "anonymous": false,
      "inputs": [
        {
          "indexed": false,
          "internalType": "uint32",
          "name": "percentage",
          "type": "uint32"
        }
      ],
      "name": "shortPercentageChanged",
      "type": "event"
    },
    {
      "anonymous": false,
      "inputs": [
        {
          "indexed": true,
          "internalType": "address",
          "name": "user",
          "type": "address"
        },
        {
          "indexed": false,
          "internalType": "uint256",
          "name": "longRewards",
          "type": "uint256"
        }
      ],
      "name": "unlockLongLockupPeriod",
      "type": "event"
    },
    {
      "anonymous": false,
      "inputs": [
        {
          "indexed": true,
          "internalType": "address",
          "name": "user",
          "type": "address"
        },
        {
          "indexed": false,
          "internalType": "uint256",
          "name": "shortRewards",
          "type": "uint256"
        }
      ],
      "name": "unlockShortLockupPeriod",
      "type": "event"
    },
    {
      "inputs": [],
      "name": "SGX",
      "outputs": [
        {
          "internalType": "address",
          "name": "",
          "type": "address"
        }
      ],
      "stateMutability": "view",
      "type": "function"
    },
    {
      "inputs": [
        {
          "internalType": "address",
          "name": "",
          "type": "address"
        },
        {
          "internalType": "uint32",
          "name": "",
          "type": "uint32"
        }
      ],
      "name": "UsersLockup",
      "outputs": [
        {
          "internalType": "bool",
          "name": "longRewardsColected",
          "type": "bool"
        },
        {
          "internalType": "bool",
          "name": "shortRewardsColected",
          "type": "bool"
        },
        {
          "internalType": "uint32",
          "name": "longLockupPeriod",
          "type": "uint32"
        },
        {
          "internalType": "uint32",
          "name": "shortLockupPeriod",
          "type": "uint32"
        },
        {
          "internalType": "uint256",
          "name": "longRewards",
          "type": "uint256"
        },
        {
          "internalType": "uint256",
          "name": "shortRewards",
          "type": "uint256"
        }
      ],
      "stateMutability": "view",
      "type": "function"
    },
    {
      "inputs": [
        {
          "internalType": "address",
          "name": "",
          "type": "address"
        }
      ],
      "name": "UsersLockupLength",
      "outputs": [
        {
          "internalType": "uint32",
          "name": "",
          "type": "uint32"
        }
      ],
      "stateMutability": "view",
      "type": "function"
    },
    {
      "inputs": [
        {
          "internalType": "uint32",
          "name": "index",
          "type": "uint32"
        }
      ],
      "name": "claimLongLockup",
      "outputs": [],
      "stateMutability": "nonpayable",
      "type": "function"
    },
    {
      "inputs": [
        {
          "internalType": "uint32",
          "name": "index",
          "type": "uint32"
        }
      ],
      "name": "claimShortLockup",
      "outputs": [],
      "stateMutability": "nonpayable",
      "type": "function"
    },
    {
      "inputs": [],
      "name": "getLongLockupTime",
      "outputs": [
        {
          "internalType": "uint32",
          "name": "",
          "type": "uint32"
        }
      ],
      "stateMutability": "view",
      "type": "function"
    },
    {
      "inputs": [],
      "name": "getLongPercentage",
      "outputs": [
        {
          "internalType": "uint32",
          "name": "",
          "type": "uint32"
        }
      ],
      "stateMutability": "view",
      "type": "function"
    },
    {
      "inputs": [],
      "name": "getShortLockupTime",
      "outputs": [
        {
          "internalType": "uint32",
          "name": "",
          "type": "uint32"
        }
      ],
      "stateMutability": "view",
      "type": "function"
    },
    {
      "inputs": [],
      "name": "getShortPercentage",
      "outputs": [
        {
          "internalType": "uint32",
          "name": "",
          "type": "uint32"
        }
      ],
      "stateMutability": "view",
      "type": "function"
    },
    {
      "inputs": [
        {
          "internalType": "address",
          "name": "user",
          "type": "address"
        },
        {
          "internalType": "uint256",
          "name": "shortLockupRewards",
          "type": "uint256"
        },
        {
          "internalType": "uint256",
          "name": "longLockupRewards",
          "type": "uint256"
        }
      ],
      "name": "lockupRewards",
      "outputs": [],
      "stateMutability": "nonpayable",
      "type": "function"
    },
    {
      "inputs": [],
      "name": "owner",
      "outputs": [
        {
          "internalType": "address",
          "name": "",
          "type": "address"
        }
      ],
      "stateMutability": "view",
      "type": "function"
    },
    {
      "inputs": [],
      "name": "rates",
      "outputs": [
        {
          "internalType": "uint32",
          "name": "shortLockupTime",
          "type": "uint32"
        },
        {
          "internalType": "uint32",
          "name": "longLockupTime",
          "type": "uint32"
        },
        {
          "internalType": "uint32",
          "name": "shortPercentage",
          "type": "uint32"
        },
        {
          "internalType": "uint32",
          "name": "longPercentage",
          "type": "uint32"
        }
      ],
      "stateMutability": "view",
      "type": "function"
    },
    {
      "inputs": [],
      "name": "renounceOwnership",
      "outputs": [],
      "stateMutability": "nonpayable",
      "type": "function"
    },
    {
      "inputs": [
        {
          "internalType": "uint32",
          "name": "value",
          "type": "uint32"
        }
      ],
      "name": "setLongLockupTime",
      "outputs": [],
      "stateMutability": "nonpayable",
      "type": "function"
    },
    {
      "inputs": [
        {
          "internalType": "uint32",
          "name": "value",
          "type": "uint32"
        }
      ],
      "name": "setLongPercentage",
      "outputs": [],
      "stateMutability": "nonpayable",
      "type": "function"
    },
    {
      "inputs": [
        {
          "internalType": "uint32",
          "name": "value",
          "type": "uint32"
        }
      ],
      "name": "setShortLockupTime",
      "outputs": [],
      "stateMutability": "nonpayable",
      "type": "function"
    },
    {
      "inputs": [
        {
          "internalType": "uint32",
          "name": "value",
          "type": "uint32"
        }
      ],
      "name": "setShortPercentage",
      "outputs": [],
      "stateMutability": "nonpayable",
      "type": "function"
    },
    {
      "inputs": [
        {
          "internalType": "address",
          "name": "newOwner",
          "type": "address"
        }
      ],
      "name": "transferOwnership",
      "outputs": [],
      "stateMutability": "nonpayable",
      "type": "function"
    }
  ],
  "bytecode": "0x60a060405234801561001057600080fd5b5060405161157538038061157583398101604081905261002f916100ac565b61003f61003a610058565b61005c565b6001805560601b6001600160601b0319166080526100da565b3390565b600080546001600160a01b038381166001600160a01b0319831681178455604051919092169283917f8be0079c531659141344cd1fd0a4f28419497f9722a3daafe3b4186f6b6457e09190a35050565b6000602082840312156100bd578081fd5b81516001600160a01b03811681146100d3578182fd5b9392505050565b60805160601c6114616101146000396000818161054701528181610902015281816109a701528181610b420152610e5c01526114616000f3fe608060405234801561001057600080fd5b50600436106101165760003560e01c806399dac893116100a2578063b6e94cbe11610071578063b6e94cbe14610217578063df108d371461022a578063e463d4ae14610232578063f072d13b1461023a578063f2fde38b1461024d57610116565b806399dac893146101cf5780639e514073146101d7578063a6562938146101df578063aefbf157146101f257610116565b806358fb1d86116100e957806358fb1d861461017957806369d10ee71461018c578063715018a61461019f57806387f89876146101a75780638da5cb5b146101ba57610116565b80630dbe17ff1461011b57806316d6b4b61461013057806340b3841c1461014e57806343f48fbd14610161575b600080fd5b61012e6101293660046111af565b610260565b005b610138610630565b60405161014591906113be565b60405180910390f35b61012e61015c3660046111af565b610643565b6101696106aa565b60405161014594939291906113cf565b61012e6101873660046111af565b6106d6565b61012e61019a36600461112b565b610740565b61012e610a81565b61012e6101b53660046111af565b610acc565b6101c2610b31565b60405161014591906111c9565b6101c2610b40565b610138610b64565b61012e6101ed3660046111af565b610b78565b61020561020036600461115d565b610f34565b6040516101459695949392919061121a565b61012e6102253660046111af565b610f83565b610138610fde565b610138610ff1565b61013861024836600461110a565b610ffd565b61012e61025b36600461110a565b611015565b6002600154141561028c5760405162461bcd60e51b815260040161028390611370565b60405180910390fd5b60026001553360009081526003602052604090205463ffffffff808316911610156102c95760405162461bcd60e51b815260040161028390611349565b33600090815260026020908152604080832063ffffffff8516845290915290205460ff161561030a5760405162461bcd60e51b8152600401610283906112c8565b33600090815260026020908152604080832063ffffffff80861685529252909120546201000090041642116103515760405162461bcd60e51b815260040161028390611291565b600060026000336001600160a01b03166001600160a01b0316815260200190815260200160002060008363ffffffff1663ffffffff1681526020019081526020016000206040518060c00160405290816000820160009054906101000a900460ff161515151581526020016000820160019054906101000a900460ff161515151581526020016000820160029054906101000a900463ffffffff1663ffffffff1663ffffffff1681526020016000820160069054906101000a900463ffffffff1663ffffffff1663ffffffff168152602001600182015481526020016002820154815250509050600081608001519050600182600001901515908115158152505060008260800181815250508160026000336001600160a01b03166001600160a01b0316815260200190815260200160002060008563ffffffff1663ffffffff16815260200190815260200160002060008201518160000160006101000a81548160ff02191690831515021790555060208201518160000160016101000a81548160ff02191690831515021790555060408201518160000160026101000a81548163ffffffff021916908363ffffffff16021790555060608201518160000160066101000a81548163ffffffff021916908363ffffffff1602179055506080820151816001015560a082015181600201559050507f00000000000000000000000000000000000000000000000000000000000000006001600160a01b031663a9059cbb33836040518363ffffffff1660e01b8152600401610593929190611201565b602060405180830381600087803b1580156105ad57600080fd5b505af11580156105c1573d6000803e3d6000fd5b505050506040513d601f19601f820116820180604052508101906105e5919061118f565b50336001600160a01b03167fe661ea25cf069e380c94e6dd765cedb9a64f49a3516857f125283234427f57388260405161061f91906113a7565b60405180910390a250506001805550565b600454600160601b900463ffffffff1690565b61064b611086565b6001600160a01b031661065c610b31565b6001600160a01b0316146106825760405162461bcd60e51b815260040161028390611314565b6004805463ffffffff9092166401000000000267ffffffff0000000019909216919091179055565b60045463ffffffff808216916401000000008104821691600160401b8204811691600160601b90041684565b6106de611086565b6001600160a01b03166106ef610b31565b6001600160a01b0316146107155760405162461bcd60e51b815260040161028390611314565b6004805463ffffffff909216600160401b026bffffffff000000000000000019909216919091179055565b600260015414156107635760405162461bcd60e51b815260040161028390611370565b6002600155326001600160a01b038416146107905760405162461bcd60e51b8152600401610283906112f2565b6001600160a01b03831660009081526003602052604081205463ffffffff16906107bb8260016113f7565b90506107c88260016113f7565b6001600160a01b0386166000908152600360209081526040808320805463ffffffff191663ffffffff958616179055805160c0810182528381529182019290925260045490929183019161082591640100000000900416426113f7565b63ffffffff90811682526004546020909201916108439116426113f7565b63ffffffff9081168252602080830187905260409283018890526001600160a01b03808a1660009081526002808452858220888616835284529085902086518154948801518888015160608a01518816600160301b0269ffffffff0000000000001991909816620100000265ffffffff0000199215156101000261ff001994151560ff199099169890981793909316969096171617939093169390931782556080850151600183015560a090940151910155516323b872dd60e01b81527f0000000000000000000000000000000000000000000000000000000000000000909116906323b872dd9061093d908890309089906004016111dd565b602060405180830381600087803b15801561095757600080fd5b505af115801561096b573d6000803e3d6000fd5b505050506040513d601f19601f8201168201806040525081019061098f919061118f565b506040516323b872dd60e01b81526001600160a01b037f000000000000000000000000000000000000000000000000000000000000000016906323b872dd906109e0908890309088906004016111dd565b602060405180830381600087803b1580156109fa57600080fd5b505af1158015610a0e573d6000803e3d6000fd5b505050506040513d601f19601f82011682018060405250810190610a32919061118f565b50846001600160a01b03167f5f3477ff1eeb1381437f35e06b4ab0526577be89c678e576e04057daec26d94e8585604051610a6e9291906113b0565b60405180910390a2505060018055505050565b610a89611086565b6001600160a01b0316610a9a610b31565b6001600160a01b031614610ac05760405162461bcd60e51b815260040161028390611314565b610aca600061108a565b565b610ad4611086565b6001600160a01b0316610ae5610b31565b6001600160a01b031614610b0b5760405162461bcd60e51b815260040161028390611314565b6004805463ffffffff909216600160601b0263ffffffff60601b19909216919091179055565b6000546001600160a01b031690565b7f000000000000000000000000000000000000000000000000000000000000000081565b600454640100000000900463ffffffff1690565b60026001541415610b9b5760405162461bcd60e51b815260040161028390611370565b60026001553360009081526003602052604090205463ffffffff80831691161015610bd85760405162461bcd60e51b815260040161028390611349565b33600090815260026020908152604080832063ffffffff85168452909152902054610100900460ff1615610c1e5760405162461bcd60e51b8152600401610283906112c8565b33600090815260026020908152604080832063ffffffff8086168552925290912054600160301b9004164211610c665760405162461bcd60e51b815260040161028390611291565b600060026000336001600160a01b03166001600160a01b0316815260200190815260200160002060008363ffffffff1663ffffffff1681526020019081526020016000206040518060c00160405290816000820160009054906101000a900460ff161515151581526020016000820160019054906101000a900460ff161515151581526020016000820160029054906101000a900463ffffffff1663ffffffff1663ffffffff1681526020016000820160069054906101000a900463ffffffff1663ffffffff1663ffffffff16815260200160018201548152602001600282015481525050905060008160a001519050600182602001901515908115158152505060008260a00181815250508160026000336001600160a01b03166001600160a01b0316815260200190815260200160002060008563ffffffff1663ffffffff16815260200190815260200160002060008201518160000160006101000a81548160ff02191690831515021790555060208201518160000160016101000a81548160ff02191690831515021790555060408201518160000160026101000a81548163ffffffff021916908363ffffffff16021790555060608201518160000160066101000a81548163ffffffff021916908363ffffffff1602179055506080820151816001015560a082015181600201559050507f00000000000000000000000000000000000000000000000000000000000000006001600160a01b031663a9059cbb33836040518363ffffffff1660e01b8152600401610ea8929190611201565b602060405180830381600087803b158015610ec257600080fd5b505af1158015610ed6573d6000803e3d6000fd5b505050506040513d601f19601f82011682018060405250810190610efa919061118f565b50336001600160a01b03167fa69684a20b71c39c81918405db5a0042726ce8f1b1bc4df454fb6b0374b416798260405161061f91906113a7565b6002602081815260009384526040808520909152918352912080546001820154919092015460ff8084169361010081049091169263ffffffff620100008304811693600160301b909304169186565b610f8b611086565b6001600160a01b0316610f9c610b31565b6001600160a01b031614610fc25760405162461bcd60e51b815260040161028390611314565b6004805463ffffffff191663ffffffff92909216919091179055565b600454600160401b900463ffffffff1690565b60045463ffffffff1690565b60036020526000908152604090205463ffffffff1681565b61101d611086565b6001600160a01b031661102e610b31565b6001600160a01b0316146110545760405162461bcd60e51b815260040161028390611314565b6001600160a01b03811661107a5760405162461bcd60e51b81526004016102839061124b565b6110838161108a565b50565b3390565b600080546001600160a01b038381166001600160a01b0319831681178455604051919092169283917f8be0079c531659141344cd1fd0a4f28419497f9722a3daafe3b4186f6b6457e09190a35050565b80356001600160a01b03811681146110f157600080fd5b919050565b803563ffffffff811681146110f157600080fd5b60006020828403121561111b578081fd5b611124826110da565b9392505050565b60008060006060848603121561113f578182fd5b611148846110da565b95602085013595506040909401359392505050565b6000806040838503121561116f578182fd5b611178836110da565b9150611186602084016110f6565b90509250929050565b6000602082840312156111a0578081fd5b81518015158114611124578182fd5b6000602082840312156111c0578081fd5b611124826110f6565b6001600160a01b0391909116815260200190565b6001600160a01b039384168152919092166020820152604081019190915260600190565b6001600160a01b03929092168252602082015260400190565b9515158652931515602086015263ffffffff928316604086015291166060840152608083015260a082015260c00190565b60208082526026908201527f4f776e61626c653a206e6577206f776e657220697320746865207a65726f206160408201526564647265737360d01b606082015260800190565b60208082526017908201527f5374696c6c20696e206c6f636b757020706572696f642e000000000000000000604082015260600190565b60208082526010908201526f20b63932b0b23c9031b630b4b6b2b21760811b604082015260600190565b6020808252600890820152672737ba103ab9b2b960c11b604082015260600190565b6020808252818101527f4f776e61626c653a2063616c6c6572206973206e6f7420746865206f776e6572604082015260600190565b6020808252600d908201526c125b99195e081a5b9d985b1a59609a1b604082015260600190565b6020808252601f908201527f5265656e7472616e637947756172643a207265656e7472616e742063616c6c00604082015260600190565b90815260200190565b918252602082015260400190565b63ffffffff91909116815260200190565b63ffffffff948516815292841660208401529083166040830152909116606082015260800190565b600063ffffffff80831681851680830382111561142257634e487b7160e01b84526011600452602484fd5b0194935050505056fea2646970667358221220507fa93aad34369f1448a607089ac23bef8fabebd3ba18606c1b6613df2d808764736f6c63430008000033",
  "linkReferences": {},
  "deployedLinkReferences": {}
}