{
  "abi": [
    {
      "inputs": [
        {
          "internalType": "address",
          "name": "_SGX",
          "type": "address"
        }
      ],
      "stateMutability": "nonpayable",
      "type": "constructor"
    },
    {
      "anonymous": false,
      "inputs": [
        {
          "indexed": true,
          "internalType": "address",
          "name": "previousOwner",
          "type": "address"
        },
        {
          "indexed": true,
          "internalType": "address",
          "name": "newOwner",
          "type": "address"
        }
      ],
      "name": "OwnershipTransferred",
      "type": "event"
    },
    {
      "anonymous": false,
      "inputs": [
        {
          "indexed": false,
          "internalType": "uint32",
          "name": "value",
          "type": "uint32"
        }
      ],
      "name": "longLockupTimeChanged",
      "type": "event"
    },
    {
      "anonymous": false,
      "inputs": [
        {
          "indexed": false,
          "internalType": "uint32",
          "name": "percentage",
          "type": "uint32"
        }
      ],
      "name": "longPercentageChanged",
      "type": "event"
    },
    {
      "anonymous": false,
      "inputs": [
        {
          "indexed": true,
          "internalType": "address",
          "name": "user",
          "type": "address"
        },
        {
          "indexed": false,
          "internalType": "uint256",
          "name": "shortLockupRewards",
          "type": "uint256"
        },
        {
          "indexed": false,
          "internalType": "uint256",
          "name": "longLockupRewards",
          "type": "uint256"
        }
      ],
      "name": "rewardsLocked",
      "type": "event"
    },
    {
      "anonymous": false,
      "inputs": [
        {
          "indexed": false,
          "internalType": "uint32",
          "name": "value",
          "type": "uint32"
        }
      ],
      "name": "shortLockupTimeChanged",
      "type": "event"
    },
    {
      "anonymous": false,
      "inputs": [
        {
          "indexed": false,
          "internalType": "uint32",
          "name": "percentage",
          "type": "uint32"
        }
      ],
      "name": "shortPercentageChanged",
      "type": "event"
    },
    {
      "anonymous": false,
      "inputs": [
        {
          "indexed": true,
          "internalType": "address",
          "name": "user",
          "type": "address"
        },
        {
          "indexed": false,
          "internalType": "uint256",
          "name": "longRewards",
          "type": "uint256"
        }
      ],
      "name": "unlockLongLockupPeriod",
      "type": "event"
    },
    {
      "anonymous": false,
      "inputs": [
        {
          "indexed": true,
          "internalType": "address",
          "name": "user",
          "type": "address"
        },
        {
          "indexed": false,
          "internalType": "uint256",
          "name": "shortRewards",
          "type": "uint256"
        }
      ],
      "name": "unlockShortLockupPeriod",
      "type": "event"
    },
    {
      "inputs": [],
      "name": "SGX",
      "outputs": [
        {
          "internalType": "address",
          "name": "",
          "type": "address"
        }
      ],
      "stateMutability": "view",
      "type": "function"
    },
    {
      "inputs": [
        {
          "internalType": "address",
          "name": "",
          "type": "address"
        },
        {
          "internalType": "uint32",
          "name": "",
          "type": "uint32"
        }
      ],
      "name": "UsersLockup",
      "outputs": [
        {
          "internalType": "bool",
          "name": "longRewardsColected",
          "type": "bool"
        },
        {
          "internalType": "bool",
          "name": "shortRewardsColected",
          "type": "bool"
        },
        {
          "internalType": "uint32",
          "name": "longLockupPeriod",
          "type": "uint32"
        },
        {
          "internalType": "uint32",
          "name": "shortLockupPeriod",
          "type": "uint32"
        },
        {
          "internalType": "uint256",
          "name": "longRewards",
          "type": "uint256"
        },
        {
          "internalType": "uint256",
          "name": "shortRewards",
          "type": "uint256"
        }
      ],
      "stateMutability": "view",
      "type": "function"
    },
    {
      "inputs": [
        {
          "internalType": "address",
          "name": "",
          "type": "address"
        }
      ],
      "name": "UsersLockupLength",
      "outputs": [
        {
          "internalType": "uint32",
          "name": "",
          "type": "uint32"
        }
      ],
      "stateMutability": "view",
      "type": "function"
    },
    {
      "inputs": [
        {
          "internalType": "uint32",
          "name": "index",
          "type": "uint32"
        }
      ],
      "name": "claimLongLockup",
      "outputs": [],
      "stateMutability": "nonpayable",
      "type": "function"
    },
    {
      "inputs": [
        {
          "internalType": "uint32",
          "name": "index",
          "type": "uint32"
        }
      ],
      "name": "claimShortLockup",
      "outputs": [],
      "stateMutability": "nonpayable",
      "type": "function"
    },
    {
      "inputs": [],
      "name": "getLongLockupTime",
      "outputs": [
        {
          "internalType": "uint32",
          "name": "",
          "type": "uint32"
        }
      ],
      "stateMutability": "view",
      "type": "function"
    },
    {
      "inputs": [],
      "name": "getLongPercentage",
      "outputs": [
        {
          "internalType": "uint32",
          "name": "",
          "type": "uint32"
        }
      ],
      "stateMutability": "view",
      "type": "function"
    },
    {
      "inputs": [],
      "name": "getShortLockupTime",
      "outputs": [
        {
          "internalType": "uint32",
          "name": "",
          "type": "uint32"
        }
      ],
      "stateMutability": "view",
      "type": "function"
    },
    {
      "inputs": [],
      "name": "getShortPercentage",
      "outputs": [
        {
          "internalType": "uint32",
          "name": "",
          "type": "uint32"
        }
      ],
      "stateMutability": "view",
      "type": "function"
    },
    {
      "inputs": [
        {
          "internalType": "address",
          "name": "user",
          "type": "address"
        },
        {
          "internalType": "uint256",
          "name": "shortLockupRewards",
          "type": "uint256"
        },
        {
          "internalType": "uint256",
          "name": "longLockupRewards",
          "type": "uint256"
        }
      ],
      "name": "lockupRewards",
      "outputs": [],
      "stateMutability": "nonpayable",
      "type": "function"
    },
    {
      "inputs": [],
      "name": "owner",
      "outputs": [
        {
          "internalType": "address",
          "name": "",
          "type": "address"
        }
      ],
      "stateMutability": "view",
      "type": "function"
    },
    {
      "inputs": [],
      "name": "rates",
      "outputs": [
        {
          "internalType": "uint32",
          "name": "shortLockupTime",
          "type": "uint32"
        },
        {
          "internalType": "uint32",
          "name": "longLockupTime",
          "type": "uint32"
        },
        {
          "internalType": "uint32",
          "name": "shortPercentage",
          "type": "uint32"
        },
        {
          "internalType": "uint32",
          "name": "longPercentage",
          "type": "uint32"
        }
      ],
      "stateMutability": "view",
      "type": "function"
    },
    {
      "inputs": [],
      "name": "renounceOwnership",
      "outputs": [],
      "stateMutability": "nonpayable",
      "type": "function"
    },
    {
      "inputs": [
        {
          "internalType": "uint32",
          "name": "value",
          "type": "uint32"
        }
      ],
      "name": "setLongLockupTime",
      "outputs": [],
      "stateMutability": "nonpayable",
      "type": "function"
    },
    {
      "inputs": [
        {
          "internalType": "uint32",
          "name": "value",
          "type": "uint32"
        }
      ],
      "name": "setLongPercentage",
      "outputs": [],
      "stateMutability": "nonpayable",
      "type": "function"
    },
    {
      "inputs": [
        {
          "internalType": "uint32",
          "name": "value",
          "type": "uint32"
        }
      ],
      "name": "setShortLockupTime",
      "outputs": [],
      "stateMutability": "nonpayable",
      "type": "function"
    },
    {
      "inputs": [
        {
          "internalType": "uint32",
          "name": "value",
          "type": "uint32"
        }
      ],
      "name": "setShortPercentage",
      "outputs": [],
      "stateMutability": "nonpayable",
      "type": "function"
    },
    {
      "inputs": [
        {
          "internalType": "address",
          "name": "newOwner",
          "type": "address"
        }
      ],
      "name": "transferOwnership",
      "outputs": [],
      "stateMutability": "nonpayable",
      "type": "function"
    }
  ],
  "bytecode": {
    "object": "0x60a060405234801561001057600080fd5b5060405161146738038061146783398101604081905261002f9161009d565b6100383361004d565b600180556001600160a01b03166080526100cd565b600080546001600160a01b038381166001600160a01b0319831681178455604051919092169283917f8be0079c531659141344cd1fd0a4f28419497f9722a3daafe3b4186f6b6457e09190a35050565b6000602082840312156100af57600080fd5b81516001600160a01b03811681146100c657600080fd5b9392505050565b60805161136361010460003960008181610239015281816106dd01528181610a6101528181610afb0152610f8f01526113636000f3fe608060405234801561001057600080fd5b50600436106101165760003560e01c806399dac893116100a2578063b6e94cbe11610071578063b6e94cbe1461031a578063df108d371461032d578063e463d4ae14610342578063f072d13b14610350578063f2fde38b1461037657600080fd5b806399dac893146102345780639e5140731461025b578063a656293814610271578063aefbf1571461028457600080fd5b806358fb1d86116100e957806358fb1d86146101ce57806369d10ee7146101e1578063715018a6146101f457806387f89876146101fc5780638da5cb5b1461020f57600080fd5b80630dbe17ff1461011b57806316d6b4b61461013057806340b3841c1461015b57806343f48fbd1461016e575b600080fd5b61012e6101293660046111af565b610389565b005b600454600160601b900463ffffffff165b60405163ffffffff90911681526020015b60405180910390f35b61012e6101693660046111af565b6107c0565b60045461019e9063ffffffff808216916401000000008104821691600160401b8204811691600160601b90041684565b6040805163ffffffff95861681529385166020850152918416918301919091529091166060820152608001610152565b61012e6101dc3660046111af565b610812565b61012e6101ef3660046111e8565b610867565b61012e610bb8565b61012e61020a3660046111af565b610bee565b6000546001600160a01b03165b6040516001600160a01b039091168152602001610152565b61021c7f000000000000000000000000000000000000000000000000000000000000000081565b600454640100000000900463ffffffff16610141565b61012e61027f3660046111af565b610c3e565b6102e161029236600461121b565b6002602081815260009384526040808520909152918352912080546001820154919092015460ff8084169361010081049091169263ffffffff620100008304811693600160301b909304169186565b604080519615158752941515602087015263ffffffff9384169486019490945291166060840152608083015260a082015260c001610152565b61012e6103283660046111af565b611065565b600454600160401b900463ffffffff16610141565b60045463ffffffff16610141565b61014161035e36600461124e565b60036020526000908152604090205463ffffffff1681565b61012e61038436600461124e565b6110ab565b600260015414156103b55760405162461bcd60e51b81526004016103ac90611269565b60405180910390fd5b60026001553360009081526003602052604090205463ffffffff808316911610156104125760405162461bcd60e51b815260206004820152600d60248201526c125b99195e081a5b9d985b1a59609a1b60448201526064016103ac565b33600090815260026020908152604080832063ffffffff8516845290915290205460ff16156104765760405162461bcd60e51b815260206004820152601060248201526f20b63932b0b23c9031b630b4b6b2b21760811b60448201526064016103ac565b33600090815260026020908152604080832063ffffffff80861685529252909120546201000090041642116104e75760405162461bcd60e51b815260206004820152601760248201527629ba34b6361034b7103637b1b5bab8103832b934b7b21760491b60448201526064016103ac565b600060026000336001600160a01b03166001600160a01b0316815260200190815260200160002060008363ffffffff1663ffffffff1681526020019081526020016000206040518060c00160405290816000820160009054906101000a900460ff161515151581526020016000820160019054906101000a900460ff161515151581526020016000820160029054906101000a900463ffffffff1663ffffffff1663ffffffff1681526020016000820160069054906101000a900463ffffffff1663ffffffff1663ffffffff168152602001600182015481526020016002820154815250509050600081608001519050600182600001901515908115158152505060008260800181815250508160026000336001600160a01b03166001600160a01b0316815260200190815260200160002060008563ffffffff1663ffffffff16815260200190815260200160002060008201518160000160006101000a81548160ff02191690831515021790555060208201518160000160016101000a81548160ff02191690831515021790555060408201518160000160026101000a81548163ffffffff021916908363ffffffff16021790555060608201518160000160066101000a81548163ffffffff021916908363ffffffff1602179055506080820151816001015560a082015181600201559050507f00000000000000000000000000000000000000000000000000000000000000006001600160a01b031663a9059cbb33836040518363ffffffff1660e01b815260040161073d9291906001600160a01b03929092168252602082015260400190565b6020604051808303816000875af115801561075c573d6000803e3d6000fd5b505050506040513d601f19601f8201168201806040525081019061078091906112a0565b5060405181815233907fe661ea25cf069e380c94e6dd765cedb9a64f49a3516857f125283234427f5738906020015b60405180910390a250506001805550565b6000546001600160a01b031633146107ea5760405162461bcd60e51b81526004016103ac906112c2565b6004805463ffffffff9092166401000000000267ffffffff0000000019909216919091179055565b6000546001600160a01b0316331461083c5760405162461bcd60e51b81526004016103ac906112c2565b6004805463ffffffff909216600160401b026bffffffff000000000000000019909216919091179055565b6002600154141561088a5760405162461bcd60e51b81526004016103ac90611269565b6002600155326001600160a01b038416146108d25760405162461bcd60e51b81526020600482015260086024820152672737ba103ab9b2b960c11b60448201526064016103ac565b6001600160a01b03831660009081526003602052604081205463ffffffff16906108fd8260016112f7565b905061090a8260016112f7565b6001600160a01b0386166000908152600360209081526040808320805463ffffffff191663ffffffff958616179055805160c0810182528381529182019290925260045490929183019161096791640100000000900416426112f7565b63ffffffff90811682526004546020909201916109859116426112f7565b63ffffffff9081168252602080830187905260409283018890526001600160a01b0389811660008181526002808552868220898716835285529086902087518154958901518989015160608b01518916600160301b0269ffffffff000000000000199190991662010000021669ffffffffffffffff0000199115156101000261ff00199315159390931661ffff19909816979097179190911716949094179490941783556080860151600184015560a090950151919092015590516323b872dd60e01b81526004810192909252306024830152604482018690527f000000000000000000000000000000000000000000000000000000000000000016906323b872dd906064016020604051808303816000875af1158015610aaa573d6000803e3d6000fd5b505050506040513d601f19601f82011682018060405250810190610ace91906112a0565b506040516323b872dd60e01b81526001600160a01b038681166004830152306024830152604482018590527f000000000000000000000000000000000000000000000000000000000000000016906323b872dd906064016020604051808303816000875af1158015610b44573d6000803e3d6000fd5b505050506040513d601f19601f82011682018060405250810190610b6891906112a0565b5060408051858152602081018590526001600160a01b038716917f5f3477ff1eeb1381437f35e06b4ab0526577be89c678e576e04057daec26d94e910160405180910390a2505060018055505050565b6000546001600160a01b03163314610be25760405162461bcd60e51b81526004016103ac906112c2565b610bec6000611146565b565b6000546001600160a01b03163314610c185760405162461bcd60e51b81526004016103ac906112c2565b6004805463ffffffff909216600160601b0263ffffffff60601b19909216919091179055565b60026001541415610c615760405162461bcd60e51b81526004016103ac90611269565b60026001553360009081526003602052604090205463ffffffff80831691161015610cbe5760405162461bcd60e51b815260206004820152600d60248201526c125b99195e081a5b9d985b1a59609a1b60448201526064016103ac565b33600090815260026020908152604080832063ffffffff85168452909152902054610100900460ff1615610d275760405162461bcd60e51b815260206004820152601060248201526f20b63932b0b23c9031b630b4b6b2b21760811b60448201526064016103ac565b33600090815260026020908152604080832063ffffffff8086168552925290912054600160301b9004164211610d995760405162461bcd60e51b815260206004820152601760248201527629ba34b6361034b7103637b1b5bab8103832b934b7b21760491b60448201526064016103ac565b600060026000336001600160a01b03166001600160a01b0316815260200190815260200160002060008363ffffffff1663ffffffff1681526020019081526020016000206040518060c00160405290816000820160009054906101000a900460ff161515151581526020016000820160019054906101000a900460ff161515151581526020016000820160029054906101000a900463ffffffff1663ffffffff1663ffffffff1681526020016000820160069054906101000a900463ffffffff1663ffffffff1663ffffffff16815260200160018201548152602001600282015481525050905060008160a001519050600182602001901515908115158152505060008260a00181815250508160026000336001600160a01b03166001600160a01b0316815260200190815260200160002060008563ffffffff1663ffffffff16815260200190815260200160002060008201518160000160006101000a81548160ff02191690831515021790555060208201518160000160016101000a81548160ff02191690831515021790555060408201518160000160026101000a81548163ffffffff021916908363ffffffff16021790555060608201518160000160066101000a81548163ffffffff021916908363ffffffff1602179055506080820151816001015560a082015181600201559050507f00000000000000000000000000000000000000000000000000000000000000006001600160a01b031663a9059cbb33836040518363ffffffff1660e01b8152600401610fef9291906001600160a01b03929092168252602082015260400190565b6020604051808303816000875af115801561100e573d6000803e3d6000fd5b505050506040513d601f19601f8201168201806040525081019061103291906112a0565b5060405181815233907fa69684a20b71c39c81918405db5a0042726ce8f1b1bc4df454fb6b0374b41679906020016107af565b6000546001600160a01b0316331461108f5760405162461bcd60e51b81526004016103ac906112c2565b6004805463ffffffff191663ffffffff92909216919091179055565b6000546001600160a01b031633146110d55760405162461bcd60e51b81526004016103ac906112c2565b6001600160a01b03811661113a5760405162461bcd60e51b815260206004820152602660248201527f4f776e61626c653a206e6577206f776e657220697320746865207a65726f206160448201526564647265737360d01b60648201526084016103ac565b61114381611146565b50565b600080546001600160a01b038381166001600160a01b0319831681178455604051919092169283917f8be0079c531659141344cd1fd0a4f28419497f9722a3daafe3b4186f6b6457e09190a35050565b803563ffffffff811681146111aa57600080fd5b919050565b6000602082840312156111c157600080fd5b6111ca82611196565b9392505050565b80356001600160a01b03811681146111aa57600080fd5b6000806000606084860312156111fd57600080fd5b611206846111d1565b95602085013595506040909401359392505050565b6000806040838503121561122e57600080fd5b611237836111d1565b915061124560208401611196565b90509250929050565b60006020828403121561126057600080fd5b6111ca826111d1565b6020808252601f908201527f5265656e7472616e637947756172643a207265656e7472616e742063616c6c00604082015260600190565b6000602082840312156112b257600080fd5b815180151581146111ca57600080fd5b6020808252818101527f4f776e61626c653a2063616c6c6572206973206e6f7420746865206f776e6572604082015260600190565b600063ffffffff80831681851680830382111561132457634e487b7160e01b600052601160045260246000fd5b0194935050505056fea2646970667358221220f3038ec8ad0a9c4f13117a8616ac8afbc9a352ac03afaacb70a4f51728032bc664736f6c634300080b0033",
    "linkReferences": {}
  }
}