{
  "abi": [
    {
      "inputs": [
        {
          "internalType": "address",
          "name": "_sgx",
          "type": "address"
        }
      ],
      "stateMutability": "nonpayable",
      "type": "constructor"
    },
    {
      "anonymous": false,
      "inputs": [
        {
          "indexed": true,
          "internalType": "address",
          "name": "owner",
          "type": "address"
        },
        {
          "indexed": true,
          "internalType": "address",
          "name": "spender",
          "type": "address"
        },
        {
          "indexed": false,
          "internalType": "uint256",
          "name": "amount",
          "type": "uint256"
        }
      ],
      "name": "Approval",
      "type": "event"
    },
    {
      "anonymous": false,
      "inputs": [
        {
          "indexed": true,
          "internalType": "address",
          "name": "user",
          "type": "address"
        },
        {
          "indexed": false,
          "internalType": "uint256",
          "name": "amount",
          "type": "uint256"
        }
      ],
      "name": "Deposit",
      "type": "event"
    },
    {
      "anonymous": false,
      "inputs": [
        {
          "indexed": true,
          "internalType": "address",
          "name": "previousOwner",
          "type": "address"
        },
        {
          "indexed": true,
          "internalType": "address",
          "name": "newOwner",
          "type": "address"
        }
      ],
      "name": "OwnershipTransferred",
      "type": "event"
    },
    {
      "anonymous": false,
      "inputs": [
        {
          "indexed": true,
          "internalType": "address",
          "name": "from",
          "type": "address"
        },
        {
          "indexed": true,
          "internalType": "address",
          "name": "to",
          "type": "address"
        },
        {
          "indexed": false,
          "internalType": "uint256",
          "name": "amount",
          "type": "uint256"
        }
      ],
      "name": "Transfer",
      "type": "event"
    },
    {
      "anonymous": false,
      "inputs": [
        {
          "indexed": true,
          "internalType": "address",
          "name": "user",
          "type": "address"
        },
        {
          "indexed": false,
          "internalType": "uint256",
          "name": "amount",
          "type": "uint256"
        },
        {
          "indexed": false,
          "internalType": "uint256",
          "name": "share",
          "type": "uint256"
        }
      ],
      "name": "Withdraw",
      "type": "event"
    },
    {
      "anonymous": false,
      "inputs": [
        {
          "indexed": false,
          "internalType": "uint256",
          "name": "newPenalty",
          "type": "uint256"
        }
      ],
      "name": "penaltySet",
      "type": "event"
    },
    {
      "anonymous": false,
      "inputs": [
        {
          "indexed": false,
          "internalType": "uint256",
          "name": "_ceil",
          "type": "uint256"
        }
      ],
      "name": "withdrawCeilSet",
      "type": "event"
    },
    {
      "inputs": [],
      "name": "BASE_VALUE",
      "outputs": [
        {
          "internalType": "uint256",
          "name": "",
          "type": "uint256"
        }
      ],
      "stateMutability": "view",
      "type": "function"
    },
    {
      "inputs": [],
      "name": "DOMAIN_SEPARATOR",
      "outputs": [
        {
          "internalType": "bytes32",
          "name": "",
          "type": "bytes32"
        }
      ],
      "stateMutability": "view",
      "type": "function"
    },
    {
      "inputs": [],
      "name": "MAX_PENALTY",
      "outputs": [
        {
          "internalType": "uint256",
          "name": "",
          "type": "uint256"
        }
      ],
      "stateMutability": "view",
      "type": "function"
    },
    {
      "inputs": [],
      "name": "PERMIT_TYPEHASH",
      "outputs": [
        {
          "internalType": "bytes32",
          "name": "",
          "type": "bytes32"
        }
      ],
      "stateMutability": "view",
      "type": "function"
    },
    {
      "inputs": [],
      "name": "SGX",
      "outputs": [
        {
          "internalType": "contract IERC20",
          "name": "",
          "type": "address"
        }
      ],
      "stateMutability": "view",
      "type": "function"
    },
    {
      "inputs": [
        {
          "internalType": "address",
          "name": "",
          "type": "address"
        },
        {
          "internalType": "address",
          "name": "",
          "type": "address"
        }
      ],
      "name": "allowance",
      "outputs": [
        {
          "internalType": "uint256",
          "name": "",
          "type": "uint256"
        }
      ],
      "stateMutability": "view",
      "type": "function"
    },
    {
      "inputs": [
        {
          "internalType": "address",
          "name": "spender",
          "type": "address"
        },
        {
          "internalType": "uint256",
          "name": "amount",
          "type": "uint256"
        }
      ],
      "name": "approve",
      "outputs": [
        {
          "internalType": "bool",
          "name": "",
          "type": "bool"
        }
      ],
      "stateMutability": "nonpayable",
      "type": "function"
    },
    {
      "inputs": [
        {
          "internalType": "address",
          "name": "",
          "type": "address"
        }
      ],
      "name": "balanceOf",
      "outputs": [
        {
          "internalType": "uint256",
          "name": "",
          "type": "uint256"
        }
      ],
      "stateMutability": "view",
      "type": "function"
    },
    {
      "inputs": [],
      "name": "decimals",
      "outputs": [
        {
          "internalType": "uint8",
          "name": "",
          "type": "uint8"
        }
      ],
      "stateMutability": "view",
      "type": "function"
    },
    {
      "inputs": [
        {
          "internalType": "uint256",
          "name": "_amount",
          "type": "uint256"
        }
      ],
      "name": "deposit",
      "outputs": [],
      "stateMutability": "nonpayable",
      "type": "function"
    },
    {
      "inputs": [],
      "name": "name",
      "outputs": [
        {
          "internalType": "string",
          "name": "",
          "type": "string"
        }
      ],
      "stateMutability": "view",
      "type": "function"
    },
    {
      "inputs": [
        {
          "internalType": "address",
          "name": "",
          "type": "address"
        }
      ],
      "name": "nonces",
      "outputs": [
        {
          "internalType": "uint256",
          "name": "",
          "type": "uint256"
        }
      ],
      "stateMutability": "view",
      "type": "function"
    },
    {
      "inputs": [],
      "name": "owner",
      "outputs": [
        {
          "internalType": "address",
          "name": "",
          "type": "address"
        }
      ],
      "stateMutability": "view",
      "type": "function"
    },
    {
      "inputs": [],
      "name": "penalty",
      "outputs": [
        {
          "internalType": "uint256",
          "name": "",
          "type": "uint256"
        }
      ],
      "stateMutability": "view",
      "type": "function"
    },
    {
      "inputs": [
        {
          "internalType": "address",
          "name": "owner",
          "type": "address"
        },
        {
          "internalType": "address",
          "name": "spender",
          "type": "address"
        },
        {
          "internalType": "uint256",
          "name": "value",
          "type": "uint256"
        },
        {
          "internalType": "uint256",
          "name": "deadline",
          "type": "uint256"
        },
        {
          "internalType": "uint8",
          "name": "v",
          "type": "uint8"
        },
        {
          "internalType": "bytes32",
          "name": "r",
          "type": "bytes32"
        },
        {
          "internalType": "bytes32",
          "name": "s",
          "type": "bytes32"
        }
      ],
      "name": "permit",
      "outputs": [],
      "stateMutability": "nonpayable",
      "type": "function"
    },
    {
      "inputs": [],
      "name": "renounceOwnership",
      "outputs": [],
      "stateMutability": "nonpayable",
      "type": "function"
    },
    {
      "inputs": [
        {
          "internalType": "uint256",
          "name": "_penalty",
          "type": "uint256"
        }
      ],
      "name": "setPenalty",
      "outputs": [],
      "stateMutability": "nonpayable",
      "type": "function"
    },
    {
      "inputs": [
        {
          "internalType": "uint256",
          "name": "_ceil",
          "type": "uint256"
        }
      ],
      "name": "setWithdrawCeil",
      "outputs": [],
      "stateMutability": "nonpayable",
      "type": "function"
    },
    {
      "inputs": [],
      "name": "sgxBalance",
      "outputs": [
        {
          "internalType": "uint256",
          "name": "",
          "type": "uint256"
        }
      ],
      "stateMutability": "view",
      "type": "function"
    },
    {
      "inputs": [],
      "name": "symbol",
      "outputs": [
        {
          "internalType": "string",
          "name": "",
          "type": "string"
        }
      ],
      "stateMutability": "view",
      "type": "function"
    },
    {
      "inputs": [],
      "name": "totalSupply",
      "outputs": [
        {
          "internalType": "uint256",
          "name": "",
          "type": "uint256"
        }
      ],
      "stateMutability": "view",
      "type": "function"
    },
    {
      "inputs": [
        {
          "internalType": "address",
          "name": "to",
          "type": "address"
        },
        {
          "internalType": "uint256",
          "name": "amount",
          "type": "uint256"
        }
      ],
      "name": "transfer",
      "outputs": [
        {
          "internalType": "bool",
          "name": "",
          "type": "bool"
        }
      ],
      "stateMutability": "nonpayable",
      "type": "function"
    },
    {
      "inputs": [
        {
          "internalType": "address",
          "name": "from",
          "type": "address"
        },
        {
          "internalType": "address",
          "name": "to",
          "type": "address"
        },
        {
          "internalType": "uint256",
          "name": "amount",
          "type": "uint256"
        }
      ],
      "name": "transferFrom",
      "outputs": [
        {
          "internalType": "bool",
          "name": "",
          "type": "bool"
        }
      ],
      "stateMutability": "nonpayable",
      "type": "function"
    },
    {
      "inputs": [
        {
          "internalType": "address",
          "name": "newOwner",
          "type": "address"
        }
      ],
      "name": "transferOwnership",
      "outputs": [],
      "stateMutability": "nonpayable",
      "type": "function"
    },
    {
      "inputs": [
        {
          "internalType": "uint256",
          "name": "_share",
          "type": "uint256"
        }
      ],
      "name": "withdraw",
      "outputs": [],
      "stateMutability": "nonpayable",
      "type": "function"
    },
    {
      "inputs": [],
      "name": "withdrawCeil",
      "outputs": [
        {
          "internalType": "uint256",
          "name": "",
          "type": "uint256"
        }
      ],
      "stateMutability": "view",
      "type": "function"
    }
  ],
  "bytecode": {
    "object": "0x6101006040523480156200001257600080fd5b506040516200176338038062001763833981016040819052620000359162000270565b604080518082018252600e81526d08edeeccae4dcc2dcc6ca40a68eb60931b6020808301918252835180850190945260048452630cea68eb60e31b9084015281519192916012916200008b9160009190620001ca565b508151620000a1906001906020850190620001ca565b5060ff81166080524660a052620000b7620000dc565b60c05250620000ca915033905062000178565b6001600160a01b031660e05262000383565b60007f8b73c3c69bb8fe3d512ecc4cf759cc79239f7b179b0ffacaa9a75d522b39400f6000604051620001109190620002df565b6040805191829003822060208301939093528101919091527fc89efdaa54c0f20c7adf612882df0950f5a951637e0307cdcb4c672f298b8bc660608201524660808201523060a082015260c00160405160208183030381529060405280519060200120905090565b600680546001600160a01b038381166001600160a01b0319831681179093556040519116919082907f8be0079c531659141344cd1fd0a4f28419497f9722a3daafe3b4186f6b6457e090600090a35050565b828054620001d890620002a2565b90600052602060002090601f016020900481019282620001fc576000855562000247565b82601f106200021757805160ff191683800117855562000247565b8280016001018555821562000247579182015b82811115620002475782518255916020019190600101906200022a565b506200025592915062000259565b5090565b5b808211156200025557600081556001016200025a565b6000602082840312156200028357600080fd5b81516001600160a01b03811681146200029b57600080fd5b9392505050565b600181811c90821680620002b757607f821691505b60208210811415620002d957634e487b7160e01b600052602260045260246000fd5b50919050565b600080835481600182811c915080831680620002fc57607f831692505b60208084108214156200031d57634e487b7160e01b86526022600452602486fd5b818015620003345760018114620003465762000375565b60ff1986168952848901965062000375565b60008a81526020902060005b868110156200036d5781548b82015290850190830162000352565b505084890196505b509498975050505050505050565b60805160a05160c05160e051611391620003d26000396000818161033e015281816106a6015281816109160152610a7201526000610798015260006107630152600061025101526113916000f3fe608060405234801561001057600080fd5b506004361061018e5760003560e01c806370a08231116100de57806399dac89311610097578063c304d10911610071578063c304d10914610386578063d505accf1461038f578063dd62ed3e146103a2578063f2fde38b146103cd57600080fd5b806399dac89314610339578063a9059cbb14610360578063b6b55f251461037357600080fd5b806370a08231146102bc578063715018a6146102dc5780637ecebe00146102e45780638226182d146103045780638da5cb5b1461030c57806395d89b411461033157600080fd5b80632e1a7d4d1161014b5780633644e515116101255780633644e515146102855780634a4b674a1461028d5780635dbfc5eb146102a057806369c33e58146102a957600080fd5b80632e1a7d4d1461021057806330adf81f14610225578063313ce5671461024c57600080fd5b806306fdde0314610193578063095ea7b3146101b15780630edd2ffc146101d457806318160ddd146101eb57806323b872dd146101f457806327249f6d14610207575b600080fd5b61019b6103e0565b6040516101a89190610fb6565b60405180910390f35b6101c46101bf366004611027565b61046e565b60405190151581526020016101a8565b6101dd60075481565b6040519081526020016101a8565b6101dd60025481565b6101c4610202366004611051565b6104da565b6101dd6109c481565b61022361021e36600461108d565b6105ba565b005b6101dd7f6e71edae12b1b97f4d1f60370fef10105fa2faae0126114a169c64845d6126c981565b6102737f000000000000000000000000000000000000000000000000000000000000000081565b60405160ff90911681526020016101a8565b6101dd61075f565b61022361029b36600461108d565b6107ba565b6101dd61271081565b6102236102b736600461108d565b610869565b6101dd6102ca3660046110a6565b60036020526000908152604090205481565b6102236108c8565b6101dd6102f23660046110a6565b60056020526000908152604090205481565b6101dd6108fe565b6006546001600160a01b03165b6040516001600160a01b0390911681526020016101a8565b61019b610989565b6103197f000000000000000000000000000000000000000000000000000000000000000081565b6101c461036e366004611027565b610996565b61022361038136600461108d565b6109fc565b6101dd60085481565b61022361039d3660046110c8565b610b22565b6101dd6103b036600461113b565b600460209081526000928352604080842090915290825290205481565b6102236103db3660046110a6565b610d73565b600080546103ed9061116e565b80601f01602080910402602001604051908101604052809291908181526020018280546104199061116e565b80156104665780601f1061043b57610100808354040283529160200191610466565b820191906000526020600020905b81548152906001019060200180831161044957829003601f168201915b505050505081565b3360008181526004602090815260408083206001600160a01b038716808552925280832085905551919290917f8c5be1e5ebec7d5bd14f71427d1e84f3dd0314c0f7b2291e5b200ac8c7c3b925906104c99086815260200190565b60405180910390a350600192915050565b6001600160a01b038316600090815260046020908152604080832033845290915281205460001981146105365761051183826111bf565b6001600160a01b03861660009081526004602090815260408083203384529091529020555b6001600160a01b0385166000908152600360205260408120805485929061055e9084906111bf565b90915550506001600160a01b038085166000818152600360205260409081902080548701905551909187169060008051602061133c833981519152906105a79087815260200190565b60405180910390a3506001949350505050565b60006105c46108fe565b6002549091506000816105d784866111d6565b6105e191906111f5565b905080600854101561063a5760405162461bcd60e51b815260206004820152601d60248201527f416d6f756e742068697474696e67207769746864726177206365696c2e00000060448201526064015b60405180910390fd5b806008600082825461064c91906111bf565b9091555061065c90503385610e0e565b60006127106007548361066f91906111d6565b61067991906111f5565b9050600061068782846111bf565b60405163a9059cbb60e01b8152336004820152602481018290529091507f00000000000000000000000000000000000000000000000000000000000000006001600160a01b03169063a9059cbb906044016020604051808303816000875af11580156106f7573d6000803e3d6000fd5b505050506040513d601f19601f8201168201806040525081019061071b9190611217565b50604080518281526020810188905233917ff279e6a1f5e320cca91135676d9cb6e44ca8a08c0b88342bcdb1144f6511b568910160405180910390a2505050505050565b60007f0000000000000000000000000000000000000000000000000000000000000000461461079557610790610e78565b905090565b507f000000000000000000000000000000000000000000000000000000000000000090565b6006546001600160a01b031633146107e45760405162461bcd60e51b815260040161063190611239565b6109c481111561082d5760405162461bcd60e51b81526020600482015260146024820152733832b730b63a3c9034b9903a37b7903434b3b41760611b6044820152606401610631565b60078190556040518181527fd8b866ee70a7f5dc8fd8b54e991f376c84802d5ad7907eecd23a61c56b3f35be906020015b60405180910390a150565b6006546001600160a01b031633146108935760405162461bcd60e51b815260040161063190611239565b60088190556040518181527fb713dc49f2b5852fa955fc3c6c80aee1babab153e951bf487012bc8b8f9eb02b9060200161085e565b6006546001600160a01b031633146108f25760405162461bcd60e51b815260040161063190611239565b6108fc6000610f12565b565b6040516370a0823160e01b81523060048201526000907f00000000000000000000000000000000000000000000000000000000000000006001600160a01b0316906370a0823190602401602060405180830381865afa158015610965573d6000803e3d6000fd5b505050506040513d601f19601f82011682018060405250810190610790919061126e565b600180546103ed9061116e565b336000908152600360205260408120805483919083906109b79084906111bf565b90915550506001600160a01b0383166000818152600360205260409081902080548501905551339060008051602061133c833981519152906104c99086815260200190565b6000610a066108fe565b600254909150801580610a17575081155b15610a2b57610a263384610f64565b610a50565b600082610a3883866111d6565b610a4291906111f5565b9050610a4e3382610f64565b505b6040516323b872dd60e01b8152336004820152306024820152604481018490527f00000000000000000000000000000000000000000000000000000000000000006001600160a01b0316906323b872dd906064016020604051808303816000875af1158015610ac3573d6000803e3d6000fd5b505050506040513d601f19601f82011682018060405250810190610ae79190611217565b5060405183815233907fe1fffcc4923d04b559f4d29a8bfc6cda04eb5b0d3c460751c2402c5c5cc9109c9060200160405180910390a2505050565b42841015610b725760405162461bcd60e51b815260206004820152601760248201527f5045524d49545f444541444c494e455f455850495245440000000000000000006044820152606401610631565b6000610b7c61075f565b6001600160a01b0389811660008181526005602090815260409182902080546001810190915582517f6e71edae12b1b97f4d1f60370fef10105fa2faae0126114a169c64845d6126c98184015280840194909452938c166060840152608083018b905260a083019390935260c08083018a90528151808403909101815260e08301909152805192019190912061190160f01b6101008301526101028201929092526101228101919091526101420160408051601f198184030181528282528051602091820120600080855291840180845281905260ff88169284019290925260608301869052608083018590529092509060019060a0016020604051602081039080840390855afa158015610c95573d6000803e3d6000fd5b5050604051601f1901519150506001600160a01b03811615801590610ccb5750886001600160a01b0316816001600160a01b0316145b610d085760405162461bcd60e51b815260206004820152600e60248201526d24a72b20a624a22fa9a4a3a722a960911b6044820152606401610631565b6001600160a01b0390811660009081526004602090815260408083208b8516808552908352928190208a905551898152919350918a16917f8c5be1e5ebec7d5bd14f71427d1e84f3dd0314c0f7b2291e5b200ac8c7c3b925910160405180910390a350505050505050565b6006546001600160a01b03163314610d9d5760405162461bcd60e51b815260040161063190611239565b6001600160a01b038116610e025760405162461bcd60e51b815260206004820152602660248201527f4f776e61626c653a206e6577206f776e657220697320746865207a65726f206160448201526564647265737360d01b6064820152608401610631565b610e0b81610f12565b50565b6001600160a01b03821660009081526003602052604081208054839290610e369084906111bf565b90915550506002805482900390556040518181526000906001600160a01b0384169060008051602061133c833981519152906020015b60405180910390a35050565b60007f8b73c3c69bb8fe3d512ecc4cf759cc79239f7b179b0ffacaa9a75d522b39400f6000604051610eaa9190611287565b6040805191829003822060208301939093528101919091527fc89efdaa54c0f20c7adf612882df0950f5a951637e0307cdcb4c672f298b8bc660608201524660808201523060a082015260c00160405160208183030381529060405280519060200120905090565b600680546001600160a01b038381166001600160a01b0319831681179093556040519116919082907f8be0079c531659141344cd1fd0a4f28419497f9722a3daafe3b4186f6b6457e090600090a35050565b8060026000828254610f769190611323565b90915550506001600160a01b03821660008181526003602090815260408083208054860190555184815260008051602061133c8339815191529101610e6c565b600060208083528351808285015260005b81811015610fe357858101830151858201604001528201610fc7565b81811115610ff5576000604083870101525b50601f01601f1916929092016040019392505050565b80356001600160a01b038116811461102257600080fd5b919050565b6000806040838503121561103a57600080fd5b6110438361100b565b946020939093013593505050565b60008060006060848603121561106657600080fd5b61106f8461100b565b925061107d6020850161100b565b9150604084013590509250925092565b60006020828403121561109f57600080fd5b5035919050565b6000602082840312156110b857600080fd5b6110c18261100b565b9392505050565b600080600080600080600060e0888a0312156110e357600080fd5b6110ec8861100b565b96506110fa6020890161100b565b95506040880135945060608801359350608088013560ff8116811461111e57600080fd5b9699959850939692959460a0840135945060c09093013592915050565b6000806040838503121561114e57600080fd5b6111578361100b565b91506111656020840161100b565b90509250929050565b600181811c9082168061118257607f821691505b602082108114156111a357634e487b7160e01b600052602260045260246000fd5b50919050565b634e487b7160e01b600052601160045260246000fd5b6000828210156111d1576111d16111a9565b500390565b60008160001904831182151516156111f0576111f06111a9565b500290565b60008261121257634e487b7160e01b600052601260045260246000fd5b500490565b60006020828403121561122957600080fd5b815180151581146110c157600080fd5b6020808252818101527f4f776e61626c653a2063616c6c6572206973206e6f7420746865206f776e6572604082015260600190565b60006020828403121561128057600080fd5b5051919050565b600080835481600182811c9150808316806112a357607f831692505b60208084108214156112c357634e487b7160e01b86526022600452602486fd5b8180156112d757600181146112e857611315565b60ff19861689528489019650611315565b60008a81526020902060005b8681101561130d5781548b8201529085019083016112f4565b505084890196505b509498975050505050505050565b60008219821115611336576113366111a9565b50019056feddf252ad1be2c89b69c2b068fc378daa952ba7f163c4a11628f55a4df523b3efa264697066735822122090f6defe978023d0abf995c27a43cf121d654d4d00342a8dd0638dd5ca7403ec64736f6c634300080b0033",
    "linkReferences": {}
  }
}