{
  "abi": [
    {
      "inputs": [
        {
          "internalType": "address",
          "name": "_SGX",
          "type": "address"
        },
        {
          "internalType": "address",
          "name": "_gSGX",
          "type": "address"
        },
        {
          "internalType": "address",
          "name": "_treasury",
          "type": "address"
        },
        {
          "internalType": "address",
          "name": "_lockup",
          "type": "address"
        }
      ],
      "stateMutability": "nonpayable",
      "type": "constructor"
    },
    {
      "anonymous": false,
      "inputs": [
        {
          "indexed": true,
          "internalType": "address",
          "name": "previousOwner",
          "type": "address"
        },
        {
          "indexed": true,
          "internalType": "address",
          "name": "newOwner",
          "type": "address"
        }
      ],
      "name": "OwnershipTransferred",
      "type": "event"
    },
    {
      "anonymous": false,
      "inputs": [
        {
          "indexed": true,
          "internalType": "address",
          "name": "user",
          "type": "address"
        },
        {
          "indexed": false,
          "internalType": "uint256",
          "name": "amount",
          "type": "uint256"
        }
      ],
      "name": "SuccessfullyDeposited",
      "type": "event"
    },
    {
      "anonymous": false,
      "inputs": [
        {
          "indexed": true,
          "internalType": "address",
          "name": "user",
          "type": "address"
        }
      ],
      "name": "VaultCreated",
      "type": "event"
    },
    {
      "anonymous": false,
      "inputs": [
        {
          "indexed": false,
          "internalType": "uint256",
          "name": "percentage",
          "type": "uint256"
        }
      ],
      "name": "burnPercentUpdated",
      "type": "event"
    },
    {
      "anonymous": false,
      "inputs": [
        {
          "indexed": false,
          "internalType": "uint256",
          "name": "minDeposit",
          "type": "uint256"
        }
      ],
      "name": "minVaultDepositUpdated",
      "type": "event"
    },
    {
      "anonymous": false,
      "inputs": [
        {
          "indexed": false,
          "internalType": "uint8",
          "name": "newBoost",
          "type": "uint8"
        }
      ],
      "name": "networkBoostUpdated",
      "type": "event"
    },
    {
      "anonymous": false,
      "inputs": [
        {
          "indexed": false,
          "internalType": "uint256",
          "name": "reward",
          "type": "uint256"
        }
      ],
      "name": "rewardPercentUpdated",
      "type": "event"
    },
    {
      "inputs": [],
      "name": "Lockup",
      "outputs": [
        {
          "internalType": "address",
          "name": "",
          "type": "address"
        }
      ],
      "stateMutability": "view",
      "type": "function"
    },
    {
      "inputs": [],
      "name": "SGX",
      "outputs": [
        {
          "internalType": "contract IERC20",
          "name": "",
          "type": "address"
        }
      ],
      "stateMutability": "view",
      "type": "function"
    },
    {
      "inputs": [],
      "name": "Treasury",
      "outputs": [
        {
          "internalType": "address",
          "name": "",
          "type": "address"
        }
      ],
      "stateMutability": "view",
      "type": "function"
    },
    {
      "inputs": [
        {
          "internalType": "address",
          "name": "",
          "type": "address"
        }
      ],
      "name": "UsersVault",
      "outputs": [
        {
          "internalType": "bool",
          "name": "exists",
          "type": "bool"
        },
        {
          "internalType": "uint32",
          "name": "lastClaimTime",
          "type": "uint32"
        },
        {
          "internalType": "uint32",
          "name": "vesting",
          "type": "uint32"
        },
        {
          "internalType": "uint256",
          "name": "claimableRewards",
          "type": "uint256"
        },
        {
          "internalType": "uint256",
          "name": "balance",
          "type": "uint256"
        }
      ],
      "stateMutability": "view",
      "type": "function"
    },
    {
      "inputs": [],
      "name": "baseTime",
      "outputs": [
        {
          "internalType": "uint32",
          "name": "",
          "type": "uint32"
        }
      ],
      "stateMutability": "view",
      "type": "function"
    },
    {
      "inputs": [],
      "name": "burnPercent",
      "outputs": [
        {
          "internalType": "uint256",
          "name": "",
          "type": "uint256"
        }
      ],
      "stateMutability": "view",
      "type": "function"
    },
    {
      "inputs": [
        {
          "internalType": "uint256",
          "name": "rewards",
          "type": "uint256"
        },
        {
          "internalType": "uint256",
          "name": "variable",
          "type": "uint256"
        }
      ],
      "name": "calculatePercentage",
      "outputs": [
        {
          "internalType": "uint256",
          "name": "percentage",
          "type": "uint256"
        }
      ],
      "stateMutability": "pure",
      "type": "function"
    },
    {
      "inputs": [
        {
          "internalType": "address",
          "name": "user",
          "type": "address"
        }
      ],
      "name": "claimRewards",
      "outputs": [],
      "stateMutability": "nonpayable",
      "type": "function"
    },
    {
      "inputs": [
        {
          "internalType": "uint256",
          "name": "amount",
          "type": "uint256"
        }
      ],
      "name": "createVault",
      "outputs": [
        {
          "internalType": "bool",
          "name": "",
          "type": "bool"
        }
      ],
      "stateMutability": "nonpayable",
      "type": "function"
    },
    {
      "inputs": [
        {
          "internalType": "address",
          "name": "user",
          "type": "address"
        },
        {
          "internalType": "uint256",
          "name": "amount",
          "type": "uint256"
        }
      ],
      "name": "depositInVault",
      "outputs": [],
      "stateMutability": "nonpayable",
      "type": "function"
    },
    {
      "inputs": [],
      "name": "gSGX",
      "outputs": [
        {
          "internalType": "contract IgSGX",
          "name": "",
          "type": "address"
        }
      ],
      "stateMutability": "view",
      "type": "function"
    },
    {
      "inputs": [],
      "name": "gSGXDistributed",
      "outputs": [
        {
          "internalType": "uint256",
          "name": "",
          "type": "uint256"
        }
      ],
      "stateMutability": "view",
      "type": "function"
    },
    {
      "inputs": [],
      "name": "gSGXPercent",
      "outputs": [
        {
          "internalType": "uint256",
          "name": "",
          "type": "uint256"
        }
      ],
      "stateMutability": "view",
      "type": "function"
    },
    {
      "inputs": [],
      "name": "getBurnPercentage",
      "outputs": [
        {
          "internalType": "uint256",
          "name": "",
          "type": "uint256"
        }
      ],
      "stateMutability": "view",
      "type": "function"
    },
    {
      "inputs": [],
      "name": "getGSGXDistributed",
      "outputs": [
        {
          "internalType": "uint256",
          "name": "",
          "type": "uint256"
        }
      ],
      "stateMutability": "view",
      "type": "function"
    },
    {
      "inputs": [],
      "name": "getGSGXPercent",
      "outputs": [
        {
          "internalType": "uint256",
          "name": "",
          "type": "uint256"
        }
      ],
      "stateMutability": "view",
      "type": "function"
    },
    {
      "inputs": [],
      "name": "getMinVaultDeposit",
      "outputs": [
        {
          "internalType": "uint256",
          "name": "",
          "type": "uint256"
        }
      ],
      "stateMutability": "view",
      "type": "function"
    },
    {
      "inputs": [],
      "name": "getSGXAddress",
      "outputs": [
        {
          "internalType": "address",
          "name": "",
          "type": "address"
        }
      ],
      "stateMutability": "view",
      "type": "function"
    },
    {
      "inputs": [],
      "name": "getTreasuryAddress",
      "outputs": [
        {
          "internalType": "address",
          "name": "",
          "type": "address"
        }
      ],
      "stateMutability": "view",
      "type": "function"
    },
    {
      "inputs": [],
      "name": "getVaultInfo",
      "outputs": [
        {
          "internalType": "bool",
          "name": "exists",
          "type": "bool"
        },
        {
          "internalType": "uint32",
          "name": "lastClaimTime",
          "type": "uint32"
        },
        {
          "internalType": "uint32",
          "name": "vesting",
          "type": "uint32"
        },
        {
          "internalType": "uint256",
          "name": "claimableRewards",
          "type": "uint256"
        },
        {
          "internalType": "uint256",
          "name": "balance",
          "type": "uint256"
        }
      ],
      "stateMutability": "view",
      "type": "function"
    },
    {
      "inputs": [],
      "name": "getVaultReward",
      "outputs": [
        {
          "internalType": "uint256",
          "name": "",
          "type": "uint256"
        }
      ],
      "stateMutability": "view",
      "type": "function"
    },
    {
      "inputs": [],
      "name": "minVaultDeposit",
      "outputs": [
        {
          "internalType": "uint256",
          "name": "",
          "type": "uint256"
        }
      ],
      "stateMutability": "view",
      "type": "function"
    },
    {
      "inputs": [],
      "name": "networkBoost",
      "outputs": [
        {
          "internalType": "uint8",
          "name": "",
          "type": "uint8"
        }
      ],
      "stateMutability": "view",
      "type": "function"
    },
    {
      "inputs": [],
      "name": "owner",
      "outputs": [
        {
          "internalType": "address",
          "name": "",
          "type": "address"
        }
      ],
      "stateMutability": "view",
      "type": "function"
    },
    {
      "inputs": [
        {
          "internalType": "uint256",
          "name": "value_",
          "type": "uint256"
        }
      ],
      "name": "payoutFor",
      "outputs": [
        {
          "internalType": "uint256",
          "name": "value",
          "type": "uint256"
        }
      ],
      "stateMutability": "view",
      "type": "function"
    },
    {
      "inputs": [
        {
          "internalType": "address",
          "name": "user",
          "type": "address"
        }
      ],
      "name": "pendingRewardsFor",
      "outputs": [
        {
          "internalType": "uint256",
          "name": "pendingRewards_",
          "type": "uint256"
        }
      ],
      "stateMutability": "view",
      "type": "function"
    },
    {
      "inputs": [
        {
          "internalType": "address",
          "name": "user",
          "type": "address"
        }
      ],
      "name": "percentVestedFor",
      "outputs": [
        {
          "internalType": "uint256",
          "name": "percentVested_",
          "type": "uint256"
        }
      ],
      "stateMutability": "view",
      "type": "function"
    },
    {
      "inputs": [],
      "name": "renounceOwnership",
      "outputs": [],
      "stateMutability": "nonpayable",
      "type": "function"
    },
    {
      "inputs": [],
      "name": "rewardPercent",
      "outputs": [
        {
          "internalType": "uint256",
          "name": "",
          "type": "uint256"
        }
      ],
      "stateMutability": "view",
      "type": "function"
    },
    {
      "inputs": [],
      "name": "reward_granularity",
      "outputs": [
        {
          "internalType": "uint256",
          "name": "",
          "type": "uint256"
        }
      ],
      "stateMutability": "view",
      "type": "function"
    },
    {
      "inputs": [
        {
          "internalType": "uint256",
          "name": "percentage",
          "type": "uint256"
        }
      ],
      "name": "setBurnPercent",
      "outputs": [],
      "stateMutability": "nonpayable",
      "type": "function"
    },
    {
      "inputs": [
        {
          "internalType": "uint256",
          "name": "minDeposit",
          "type": "uint256"
        }
      ],
      "name": "setMinVaultDeposit",
      "outputs": [],
      "stateMutability": "nonpayable",
      "type": "function"
    },
    {
      "inputs": [
        {
          "internalType": "uint8",
          "name": "boost",
          "type": "uint8"
        }
      ],
      "name": "setNetworkBoost",
      "outputs": [],
      "stateMutability": "nonpayable",
      "type": "function"
    },
    {
      "inputs": [
        {
          "internalType": "uint256",
          "name": "_reward",
          "type": "uint256"
        }
      ],
      "name": "setRewardPercent",
      "outputs": [],
      "stateMutability": "nonpayable",
      "type": "function"
    },
    {
      "inputs": [
        {
          "internalType": "uint256",
          "name": "percentage",
          "type": "uint256"
        }
      ],
      "name": "setgSGXDistributed",
      "outputs": [],
      "stateMutability": "nonpayable",
      "type": "function"
    },
    {
      "inputs": [
        {
          "internalType": "uint256",
          "name": "percentage",
          "type": "uint256"
        }
      ],
      "name": "setgSGXPercent",
      "outputs": [],
      "stateMutability": "nonpayable",
      "type": "function"
    },
    {
      "inputs": [],
      "name": "totalVaultsCreated",
      "outputs": [
        {
          "internalType": "uint256",
          "name": "",
          "type": "uint256"
        }
      ],
      "stateMutability": "view",
      "type": "function"
    },
    {
      "inputs": [
        {
          "internalType": "address",
          "name": "newOwner",
          "type": "address"
        }
      ],
      "name": "transferOwnership",
      "outputs": [],
      "stateMutability": "nonpayable",
      "type": "function"
    },
    {
      "inputs": [
        {
          "internalType": "address",
          "name": "user",
          "type": "address"
        }
      ],
      "name": "vaultExists",
      "outputs": [
        {
          "internalType": "bool",
          "name": "",
          "type": "bool"
        }
      ],
      "stateMutability": "view",
      "type": "function"
    }
  ],
  "bytecode": {
    "object": "0x61010060405260006002553480156200001757600080fd5b5060405162002145380380620021458339810160408190526200003a91620000d5565b620000453362000068565b6001600160a01b0393841660805291831660a052821660c0521660e05262000132565b600080546001600160a01b038381166001600160a01b0319831681178455604051919092169283917f8be0079c531659141344cd1fd0a4f28419497f9722a3daafe3b4186f6b6457e09190a35050565b80516001600160a01b0381168114620000d057600080fd5b919050565b60008060008060808587031215620000ec57600080fd5b620000f785620000b8565b93506200010760208601620000b8565b92506200011760408601620000b8565b91506200012760608601620000b8565b905092959194509250565b60805160a05160c05160e051611f2a6200021b6000396000818161053201528181611b5501528181611bde0152611c7101526000818161034f015281816105b901528181610adb01528181610b8f0152818161108501526111390152600081816103e0015281816118d3015281816119880152611a0101526000818161038b015281816104d20152818161096f01528181610a5601528181610b0a01528181610bbe01528181610f1501528181610ff8015281816110b401528181611168015281816117980152818161185a0152818161190201528181611a300152611abc0152611f2a6000f3fe608060405234801561001057600080fd5b506004361061023d5760003560e01c80637f98aa711161013b578063cbdf8692116100b8578063e00246041161007c578063e0024604146105b7578063e2e91bb2146105dd578063ef5cfb8c146105f0578063f2fde38b14610603578063f39739211461061657600080fd5b8063cbdf86921461052d578063d02781bf14610554578063d03020511461059e578063d4ebb663146105a7578063d9ded2cc146105af57600080fd5b806396686adb116100ff57806396686adb146104c457806399dac893146104cd5780639abbdf4b146104f4578063bb1570da14610507578063c1c5dd271461051a57600080fd5b80637f98aa71146104155780638918b62f146104885780638da5cb5b146104975780638e3875eb146104a8578063945fb81d146104b157600080fd5b8063507930ec116101c95780636b112afa1161018d5780636b112afa146103c25780636e1d52cf146103cb578063715018a6146103d357806375ac76da146103db5780637927ebf81461040257600080fd5b8063507930ec1461032f57806350ea6dcc14610342578063563df32f1461034a57806361959ab11461038957806367e18918146103af57600080fd5b80632133e3b9116102105780632133e3b9146102c25780633e5029eb146102d557806343084a57146102e857806347eaa9e7146103075780634a0f858d1461031c57600080fd5b806303807ee51461024257806308b096a01461025e5780630f2aaec51461027e57806316d3759514610286575b600080fd5b61024b60055481565b6040519081526020015b60405180910390f35b6102696301e1338081565b60405163ffffffff9091168152602001610255565b60055461024b565b6102b2610294366004611d10565b6001600160a01b031660009081526001602052604090205460ff1690565b6040519015158152602001610255565b61024b6102d0366004611d2b565b61061f565b61024b6102e3366004611d10565b610645565b6008546102f59060ff1681565b60405160ff9091168152602001610255565b61031a610315366004611d4d565b6106af565b005b61031a61032a366004611d4d565b61071e565b61024b61033d366004611d10565b61074d565b60075461024b565b6103717f000000000000000000000000000000000000000000000000000000000000000081565b6040516001600160a01b039091168152602001610255565b7f0000000000000000000000000000000000000000000000000000000000000000610371565b61031a6103bd366004611d4d565b61080f565b61024b60025481565b60045461024b565b61031a61083e565b6103717f000000000000000000000000000000000000000000000000000000000000000081565b61024b610410366004611d4d565b610874565b61045533600090815260016020819052604090912080549181015460029091015460ff83169363ffffffff6101008504811694600160281b900416929190565b60408051951515865263ffffffff948516602087015292909316918401919091526060830152608082015260a001610255565b61024b670de0b6b3a764000081565b6000546001600160a01b0316610371565b61024b60045481565b61031a6104bf366004611d66565b61089d565b61024b60075481565b6103717f000000000000000000000000000000000000000000000000000000000000000081565b6102b2610502366004611d4d565b610e55565b61031a610515366004611d4d565b6112e7565b61031a610528366004611d4d565b611346565b6103717f000000000000000000000000000000000000000000000000000000000000000081565b610455610562366004611d10565b600160208190526000918252604090912080549181015460029091015460ff83169263ffffffff6101008204811693600160281b909204169185565b61024b60035481565b60065461024b565b60035461024b565b7f0000000000000000000000000000000000000000000000000000000000000000610371565b61031a6105eb366004611d90565b6113a5565b61031a6105fe366004611d10565b611465565b61031a610611366004611d10565b611627565b61024b60065481565b6000670de0b6b3a76400006106348385611dc9565b61063e9190611de8565b9392505050565b6000806106518361074d565b6001600160a01b03841660009081526001602081905260409091200154909150670de0b6b3a76400008210610688578092506106a8565b670de0b6b3a764000061069b8383611dc9565b6106a59190611de8565b92505b5050919050565b6000546001600160a01b031633146106e25760405162461bcd60e51b81526004016106d990611e0a565b60405180910390fd5b60048190556040518181527f1ea059cb9980eddd3da8e857aabaebed6d32de3b5974da6591e7ccf469c771b8906020015b60405180910390a150565b6000546001600160a01b031633146107485760405162461bcd60e51b81526004016106d990611e0a565b600655565b6001600160a01b0381166000908152600160208181526040808420815160a081018352815460ff81161515825263ffffffff61010082048116958301869052600160281b9091041692810192909252928301546060820152600290920154608083015282906107bc9042611e3f565b604083015190915063ffffffff811615610802578063ffffffff16670de0b6b3a76400008363ffffffff166107f19190611dc9565b6107fb9190611de8565b9350610807565b600093505b505050919050565b6000546001600160a01b031633146108395760405162461bcd60e51b81526004016106d990611e0a565b600755565b6000546001600160a01b031633146108685760405162461bcd60e51b81526004016106d990611e0a565b61087260006116c2565b565b6000670de0b6b3a76400006003548361088d9190611dc9565b6108979190611de8565b92915050565b336001600160a01b038316146109055760405162461bcd60e51b815260206004820152602760248201527f596f752063616e206f6e6c79206465706f73697420696e20796f7572206f776e604482015266103b30bab63a1760c91b60648201526084016106d9565b60045481101561094e5760405162461bcd60e51b815260206004820152601460248201527320b6b7bab73a1034b9903a37b79039b6b0b6361760611b60448201526064016106d9565b6040516370a0823160e01b81526001600160a01b03838116600483015282917f0000000000000000000000000000000000000000000000000000000000000000909116906370a0823190602401602060405180830381865afa1580156109b8573d6000803e3d6000fd5b505050506040513d601f19601f820116820180604052508101906109dc9190611e64565b1015610a2a5760405162461bcd60e51b815260206004820152601b60248201527f4e6f7420656e6f75676820746f6b656e20696e2077616c6c65742e000000000060448201526064016106d9565b6040516323b872dd60e01b81526001600160a01b038381166004830152306024830152604482018390527f000000000000000000000000000000000000000000000000000000000000000016906323b872dd906064016020604051808303816000875af1158015610a9f573d6000803e3d6000fd5b505050506040513d601f19601f82011682018060405250810190610ac39190611e7d565b5060405163095ea7b360e01b81526001600160a01b037f000000000000000000000000000000000000000000000000000000000000000081166004830152602482018390527f0000000000000000000000000000000000000000000000000000000000000000169063095ea7b3906044016020604051808303816000875af1158015610b53573d6000803e3d6000fd5b505050506040513d601f19601f82011682018060405250810190610b779190611e7d565b5060405163a9059cbb60e01b81526001600160a01b037f000000000000000000000000000000000000000000000000000000000000000081166004830152602482018390527f0000000000000000000000000000000000000000000000000000000000000000169063a9059cbb906044016020604051808303816000875af1158015610c07573d6000803e3d6000fd5b505050506040513d601f19601f82011682018060405250810190610c2b9190611e7d565b50600854600090610c3f9060ff1683611dc9565b9050670de0b6b3a7640000610c538461074d565b10610c6657610c6183611465565b610db1565b6000610c7184610645565b90508015610daf576001600160a01b038416600090815260016020818152604092839020835160a081018552815460ff81161515825263ffffffff6101008204811694830194909452600160281b9004909216938201939093529082015460608201526002909101546080820152610ce98286611712565b4263ffffffff811660208301819052610d0191611e3f565b81604001818151610d129190611e3f565b63ffffffff16905250606081018051839190610d2f908390611e9f565b9052506001600160a01b03851660009081526001602081815260409283902084518154928601519486015164ffffffffff1990931690151564ffffffff0019161761010063ffffffff958616021768ffffffff00000000001916600160281b94909216939093021782556060830151908201556080909101516002909101555b505b6001600160a01b03831660009081526001602052604081206002018054839290610ddc908490611eb6565b90915550610deb905081610874565b6001600160a01b03841660009081526001602081905260408220018054909190610e16908490611eb6565b909155505060405181815233907fa155d4cdc6e4c7c708da428e6dba018e815bce0e0e83e85449df7e3624878b2e9060200160405180910390a2505050565b3360009081526001602052604081205460ff1615610eb55760405162461bcd60e51b815260206004820152601960248201527f5573657220616c7265616479206861732061205661756c742e0000000000000060448201526064016106d9565b600454821015610efe5760405162461bcd60e51b815260206004820152601460248201527320b6b7bab73a1034b9903a37b79039b6b0b6361760611b60448201526064016106d9565b6040516370a0823160e01b815233600482015282907f00000000000000000000000000000000000000000000000000000000000000006001600160a01b0316906370a0823190602401602060405180830381865afa158015610f64573d6000803e3d6000fd5b505050506040513d601f19601f82011682018060405250810190610f889190611e64565b1015610fd65760405162461bcd60e51b815260206004820152601b60248201527f4e6f7420656e6f75676820746f6b656e20696e2077616c6c65742e000000000060448201526064016106d9565b6040516323b872dd60e01b8152336004820152306024820152604481018390527f00000000000000000000000000000000000000000000000000000000000000006001600160a01b0316906323b872dd906064016020604051808303816000875af1158015611049573d6000803e3d6000fd5b505050506040513d601f19601f8201168201806040525081019061106d9190611e7d565b5060405163095ea7b360e01b81526001600160a01b037f000000000000000000000000000000000000000000000000000000000000000081166004830152602482018490527f0000000000000000000000000000000000000000000000000000000000000000169063095ea7b3906044016020604051808303816000875af11580156110fd573d6000803e3d6000fd5b505050506040513d601f19601f820116820180604052508101906111219190611e7d565b5060405163a9059cbb60e01b81526001600160a01b037f000000000000000000000000000000000000000000000000000000000000000081166004830152602482018490527f0000000000000000000000000000000000000000000000000000000000000000169063a9059cbb906044016020604051808303816000875af11580156111b1573d6000803e3d6000fd5b505050506040513d601f19601f820116820180604052508101906111d59190611e7d565b506008546000906111e99060ff1684611dc9565b90506040518060a001604052806001151581526020014263ffffffff1681526020016301e1338063ffffffff16815260200161122483610874565b815260209081018390523360009081526001808352604080832085518154958701519287015164ffffffffff1990961690151564ffffffff0019161761010063ffffffff938416021768ffffffff00000000001916600160281b929095169190910293909317835560608401518382015560809093015160029283015581546112ae908490611eb6565b909155505060405133907f2e49a5810fda2439a23771848b4acec786b0a64d4de3d124ac57fc8739c3887590600090a250600192915050565b6000546001600160a01b031633146113115760405162461bcd60e51b81526004016106d990611e0a565b60058190556040518181527f7dbdbcc7c98741830150a332948181ff0cf7908ca02b83f66252717d7454731090602001610713565b6000546001600160a01b031633146113705760405162461bcd60e51b81526004016106d990611e0a565b60038190556040518181527f9cad78d619e3ec77a922ec9bf3cb9772fdb2d115cf4038d953ad3d8c263399ee90602001610713565b6000546001600160a01b031633146113cf5760405162461bcd60e51b81526004016106d990611e0a565b60018160ff1610156114235760405162461bcd60e51b815260206004820152601b60248201527f4e6574776f726b20426f6f73742063616e2774206265203c20312e000000000060448201526064016106d9565b6008805460ff191660ff83169081179091556040519081527f908f1f6b6e87000288304d38e9e1c35d19de25df1bc6e0f1466a2b321459318890602001610713565b336001600160a01b038216146114c95760405162461bcd60e51b8152602060048201526024808201527f596f752063616e206f6e6c7920636c61696d20796f7572206f776e20726577616044820152633932399760e11b60648201526084016106d9565b670de0b6b3a76400006114db3361074d565b10156115295760405162461bcd60e51b815260206004820152601b60248201527f546f6f206561726c7920746f20636c61696d20726577617264732e000000000060448201526064016106d9565b33600090815260016020818152604092839020835160a081018552815460ff81161515825263ffffffff6101008204811694830194909452600160281b90049092169382019390935290820154606082018190526002909201546080820152906115938184611712565b504263ffffffff90811660208381019182526301e133806040808601918252600060608701818152338252600194859052919020865181549551935164ffffffffff1990961690151564ffffffff00191617610100938716939093029290921768ffffffff00000000001916600160281b949095169390930293909317835590519082015560809091015160029091015550565b6000546001600160a01b031633146116515760405162461bcd60e51b81526004016106d990611e0a565b6001600160a01b0381166116b65760405162461bcd60e51b815260206004820152602660248201527f4f776e61626c653a206e6577206f776e657220697320746865207a65726f206160448201526564647265737360d01b60648201526084016106d9565b6116bf816116c2565b50565b600080546001600160a01b038381166001600160a01b0319831681178455604051919092169283917f8be0079c531659141344cd1fd0a4f28419497f9722a3daafe3b4186f6b6457e09190a35050565b336001600160a01b0382161461177c5760405162461bcd60e51b815260206004820152602960248201527f596f752063616e206f6e6c79206469737472696275746520796f7572206f776e604482015268103932bbb0b932399760b91b60648201526084016106d9565b6040516340c10f1960e01b8152306004820152602481018390527f00000000000000000000000000000000000000000000000000000000000000006001600160a01b0316906340c10f1990604401600060405180830381600087803b1580156117e457600080fd5b505af11580156117f8573d6000803e3d6000fd5b50505050600080600080600061180d87611bc2565b9450945094509450945084876118239190611e9f565b965061182f8288611e9f565b965061183b8188611e9f565b604051632770a7eb60e21b8152306004820152602481018790529097507f00000000000000000000000000000000000000000000000000000000000000006001600160a01b031690639dc29fac90604401600060405180830381600087803b1580156118a657600080fd5b505af11580156118ba573d6000803e3d6000fd5b505060405163095ea7b360e01b81526001600160a01b037f000000000000000000000000000000000000000000000000000000000000000081166004830152602482018690527f000000000000000000000000000000000000000000000000000000000000000016925063095ea7b391506044016020604051808303816000875af115801561194d573d6000803e3d6000fd5b505050506040513d601f19601f820116820180604052508101906119719190611e7d565b5060405163b6b55f2560e01b8152600481018390527f00000000000000000000000000000000000000000000000000000000000000006001600160a01b03169063b6b55f2590602401600060405180830381600087803b1580156119d457600080fd5b505af11580156119e8573d6000803e3d6000fd5b505060405163a9059cbb60e01b81526001600160a01b037f000000000000000000000000000000000000000000000000000000000000000081166004830152602482018590527f000000000000000000000000000000000000000000000000000000000000000016925063a9059cbb91506044016020604051808303816000875af1158015611a7b573d6000803e3d6000fd5b505050506040513d601f19601f82011682018060405250810190611a9f9190611e7d565b5060405163a9059cbb60e01b8152336004820152602481018890527f00000000000000000000000000000000000000000000000000000000000000006001600160a01b03169063a9059cbb906044016020604051808303816000875af1158015611b0d573d6000803e3d6000fd5b505050506040513d601f19601f82011682018060405250810190611b319190611e7d565b506040516369d10ee760e01b815233600482015260248101859052604481018490527f00000000000000000000000000000000000000000000000000000000000000006001600160a01b0316906369d10ee790606401600060405180830381600087803b158015611ba157600080fd5b505af1158015611bb5573d6000803e3d6000fd5b5050505050505050505050565b6000806000806000611bd68660055461061f565b9450611c69867f00000000000000000000000000000000000000000000000000000000000000006001600160a01b031663df108d376040518163ffffffff1660e01b8152600401602060405180830381865afa158015611c3a573d6000803e3d6000fd5b505050506040513d601f19601f82011682018060405250810190611c5e9190611ece565b63ffffffff1661061f565b9350611ccd867f00000000000000000000000000000000000000000000000000000000000000006001600160a01b03166316d6b4b66040518163ffffffff1660e01b8152600401602060405180830381865afa158015611c3a573d6000803e3d6000fd5b9250611cdb8660065461061f565b9150611ce98660075461061f565b905091939590929450565b80356001600160a01b0381168114611d0b57600080fd5b919050565b600060208284031215611d2257600080fd5b61063e82611cf4565b60008060408385031215611d3e57600080fd5b50508035926020909101359150565b600060208284031215611d5f57600080fd5b5035919050565b60008060408385031215611d7957600080fd5b611d8283611cf4565b946020939093013593505050565b600060208284031215611da257600080fd5b813560ff8116811461063e57600080fd5b634e487b7160e01b600052601160045260246000fd5b6000816000190483118215151615611de357611de3611db3565b500290565b600082611e0557634e487b7160e01b600052601260045260246000fd5b500490565b6020808252818101527f4f776e61626c653a2063616c6c6572206973206e6f7420746865206f776e6572604082015260600190565b600063ffffffff83811690831681811015611e5c57611e5c611db3565b039392505050565b600060208284031215611e7657600080fd5b5051919050565b600060208284031215611e8f57600080fd5b8151801515811461063e57600080fd5b600082821015611eb157611eb1611db3565b500390565b60008219821115611ec957611ec9611db3565b500190565b600060208284031215611ee057600080fd5b815163ffffffff8116811461063e57600080fdfea2646970667358221220eb7797fc65116b024b28cf1e292b0d505712deaf83f82debf5d33ed3d2795ea164736f6c634300080b0033",
    "linkReferences": {}
  }
}