{
  "abi": [
    {
      "inputs": [
        {
          "internalType": "address",
          "name": "_SGX",
          "type": "address"
        },
        {
          "internalType": "address",
          "name": "_vaultFactory",
          "type": "address"
        }
      ],
      "stateMutability": "nonpayable",
      "type": "constructor"
    },
    {
      "anonymous": false,
      "inputs": [
        {
          "indexed": true,
          "internalType": "address",
          "name": "previousOwner",
          "type": "address"
        },
        {
          "indexed": true,
          "internalType": "address",
          "name": "newOwner",
          "type": "address"
        }
      ],
      "name": "OwnershipTransferred",
      "type": "event"
    },
    {
      "inputs": [],
      "name": "SGX",
      "outputs": [
        {
          "internalType": "address",
          "name": "",
          "type": "address"
        }
      ],
      "stateMutability": "view",
      "type": "function"
    },
    {
      "inputs": [],
      "name": "WAVAX",
      "outputs": [
        {
          "internalType": "address",
          "name": "",
          "type": "address"
        }
      ],
      "stateMutability": "view",
      "type": "function"
    },
    {
      "inputs": [
        {
          "internalType": "address",
          "name": "",
          "type": "address"
        }
      ],
      "name": "allowedReserves",
      "outputs": [
        {
          "internalType": "bool",
          "name": "",
          "type": "bool"
        }
      ],
      "stateMutability": "view",
      "type": "function"
    },
    {
      "inputs": [],
      "name": "owner",
      "outputs": [
        {
          "internalType": "address",
          "name": "",
          "type": "address"
        }
      ],
      "stateMutability": "view",
      "type": "function"
    },
    {
      "inputs": [],
      "name": "renounceOwnership",
      "outputs": [],
      "stateMutability": "nonpayable",
      "type": "function"
    },
    {
      "inputs": [
        {
          "internalType": "address",
          "name": "_token",
          "type": "address"
        },
        {
          "internalType": "bool",
          "name": "value",
          "type": "bool"
        }
      ],
      "name": "setReserve",
      "outputs": [],
      "stateMutability": "nonpayable",
      "type": "function"
    },
    {
      "inputs": [
        {
          "internalType": "address",
          "name": "_to",
          "type": "address"
        },
        {
          "internalType": "uint256",
          "name": "_amount",
          "type": "uint256"
        }
      ],
      "name": "swapAVAXforSGX",
      "outputs": [],
      "stateMutability": "nonpayable",
      "type": "function"
    },
    {
      "inputs": [
        {
          "internalType": "address",
          "name": "_token",
          "type": "address"
        },
        {
          "internalType": "address",
          "name": "_to",
          "type": "address"
        },
        {
          "internalType": "uint256",
          "name": "_amount",
          "type": "uint256"
        }
      ],
      "name": "swapTokenforSGX",
      "outputs": [],
      "stateMutability": "nonpayable",
      "type": "function"
    },
    {
      "inputs": [
        {
          "internalType": "address",
          "name": "newOwner",
          "type": "address"
        }
      ],
      "name": "transferOwnership",
      "outputs": [],
      "stateMutability": "nonpayable",
      "type": "function"
    },
    {
      "inputs": [],
      "name": "vaultFactory",
      "outputs": [
        {
          "internalType": "contract IVaultFactory",
          "name": "",
          "type": "address"
        }
      ],
      "stateMutability": "view",
      "type": "function"
    },
    {
      "stateMutability": "payable",
      "type": "receive"
    }
  ],
  "bytecode": {
    "object": "0x6080604052600380546001600160a01b0319167360ae616a2155ee3d9a68541ba4544862310933d417905534801561003657600080fd5b506040516113a13803806113a183398101604081905261005591610174565b61005e33610108565b600180546001600160a01b039384166001600160a01b0319918216178255600480549390941692169190911790915560026020527f6c05bcd04bee20d497aa9663ddd2eab426dac7b6ff7b0aa0a69c9806bbcffe7c805460ff19908116831790915573130966628846bfd36ff31a822705796e8cb8c18d6000527f92a8e8cb4a39f22c00fb2592309c3e78df1c647c457c8c3cde1df7cceb228565805490911690911790556101a7565b600080546001600160a01b038381166001600160a01b0319831681178455604051919092169283917f8be0079c531659141344cd1fd0a4f28419497f9722a3daafe3b4186f6b6457e09190a35050565b80516001600160a01b038116811461016f57600080fd5b919050565b6000806040838503121561018757600080fd5b61019083610158565b915061019e60208401610158565b90509250929050565b6111eb806101b66000396000f3fe6080604052600436106100955760003560e01c8063ba3c763611610059578063ba3c76361461015b578063c06ebe9a1461019b578063d8a06f73146101bb578063f2fde38b146101db578063ff676c71146101fb57600080fd5b8063715018a6146100a157806373b295c2146100b85780638da5cb5b146100fd5780639885a2561461011b57806399dac8931461013b57600080fd5b3661009c57005b600080fd5b3480156100ad57600080fd5b506100b661021b565b005b3480156100c457600080fd5b506100e073b31f66aa3c1e785363f0875a1b74e27b85fd66c781565b6040516001600160a01b0390911681526020015b60405180910390f35b34801561010957600080fd5b506000546001600160a01b03166100e0565b34801561012757600080fd5b506100b6610136366004610f29565b61025a565b34801561014757600080fd5b506001546100e0906001600160a01b031681565b34801561016757600080fd5b5061018b610176366004610f53565b60026020526000908152604090205460ff1681565b60405190151581526020016100f4565b3480156101a757600080fd5b506100b66101b6366004610f83565b61083d565b3480156101c757600080fd5b506004546100e0906001600160a01b031681565b3480156101e757600080fd5b506100b66101f6366004610f53565b610892565b34801561020757600080fd5b506100b6610216366004610fba565b61092d565b6000546001600160a01b0316331461024e5760405162461bcd60e51b815260040161024590610ff6565b60405180910390fd5b6102586000610ebd565b565b336001600160a01b0383161461029e5760405162461bcd60e51b81526020600482015260096024820152682737ba103ab9b2b91760b91b6044820152606401610245565b6004805460408051636e1d52cf60e01b815290516001600160a01b0390921692636e1d52cf9282820192602092908290030181865afa1580156102e5573d6000803e3d6000fd5b505050506040513d601f19601f82011682018060405250810190610309919061102b565b81101561034f5760405162461bcd60e51b815260206004820152601460248201527320b6b7bab73a1034b9903a37b79039b6b0b6361760611b6044820152606401610245565b6040516370a0823160e01b81526001600160a01b0383166004820152819073b31f66aa3c1e785363f0875a1b74e27b85fd66c7906370a0823190602401602060405180830381865afa1580156103a9573d6000803e3d6000fd5b505050506040513d601f19601f820116820180604052508101906103cd919061102b565b10156104105760405162461bcd60e51b81526020600482015260126024820152712737ba1032b737bab3b4103337bab732399760711b6044820152606401610245565b6040516323b872dd60e01b81526001600160a01b03831660048201523060248201526044810182905273b31f66aa3c1e785363f0875a1b74e27b85fd66c7906323b872dd906064016020604051808303816000875af1158015610477573d6000803e3d6000fd5b505050506040513d601f19601f8201168201806040525081019061049b9190611044565b5060035460405163095ea7b360e01b81526001600160a01b0390911660048201526024810182905273b31f66aa3c1e785363f0875a1b74e27b85fd66c79063095ea7b3906044016020604051808303816000875af1158015610501573d6000803e3d6000fd5b505050506040513d601f19601f820116820180604052508101906105259190611044565b50604080516002808252606080830184529260208301908036833701905050905073b31f66aa3c1e785363f0875a1b74e27b85fd66c78160008151811061056e5761056e611077565b6001600160a01b039283166020918202929092010152600180548351921691839190811061059e5761059e611077565b6001600160a01b03928316602091820292909201015260035460405163a2a1623d60e01b815291169063a2a1623d9084906105e49060009086908990429060040161108d565b60006040518083038185885af1158015610602573d6000803e3d6000fd5b50505050506040513d6000823e601f3d908101601f1916820160405261062b91908101906110f7565b506001546040516370a0823160e01b81526001600160a01b038581166004830152849216906370a0823190602401602060405180830381865afa158015610676573d6000803e3d6000fd5b505050506040513d601f19601f8201168201806040525081019061069a919061102b565b10156106e85760405162461bcd60e51b815260206004820152601f60248201527f4572726f7220636f6d756e69636174696e67207769746820726f757465722e006044820152606401610245565b600480546040516316d3759560e01b81526001600160a01b03868116938201939093529116906316d3759590602401602060405180830381865afa158015610734573d6000803e3d6000fd5b505050506040513d601f19601f820116820180604052508101906107589190611044565b156107ca576004805460405163945fb81d60e01b81526001600160a01b03868116938201939093526024810185905291169063945fb81d90604401600060405180830381600087803b1580156107ad57600080fd5b505af11580156107c1573d6000803e3d6000fd5b50505050505050565b60048054604051639abbdf4b60e01b81529182018490526001600160a01b031690639abbdf4b906024016020604051808303816000875af1158015610813573d6000803e3d6000fd5b505050506040513d601f19601f820116820180604052508101906108379190611044565b50505050565b6000546001600160a01b031633146108675760405162461bcd60e51b815260040161024590610ff6565b6001600160a01b03919091166000908152600260205260409020805460ff1916911515919091179055565b6000546001600160a01b031633146108bc5760405162461bcd60e51b815260040161024590610ff6565b6001600160a01b0381166109215760405162461bcd60e51b815260206004820152602660248201527f4f776e61626c653a206e6577206f776e657220697320746865207a65726f206160448201526564647265737360d01b6064820152608401610245565b61092a81610ebd565b50565b336001600160a01b038316146109715760405162461bcd60e51b81526020600482015260096024820152682737ba103ab9b2b91760b91b6044820152606401610245565b6004805460408051636e1d52cf60e01b815290516001600160a01b0390921692636e1d52cf9282820192602092908290030181865afa1580156109b8573d6000803e3d6000fd5b505050506040513d601f19601f820116820180604052508101906109dc919061102b565b811015610a225760405162461bcd60e51b815260206004820152601460248201527320b6b7bab73a1034b9903a37b79039b6b0b6361760611b6044820152606401610245565b6001600160a01b03831660009081526002602052604090205460ff16610a7e5760405162461bcd60e51b8152602060048201526011602482015270151bdad95b881b9bdd08185b1b1bddd959607a1b6044820152606401610245565b6040516323b872dd60e01b8152336004820152306024820152604481018290526001600160a01b038416906323b872dd906064016020604051808303816000875af1158015610ad1573d6000803e3d6000fd5b505050506040513d601f19601f82011682018060405250810190610af59190611044565b5060035460405163095ea7b360e01b81526001600160a01b039182166004820152602481018390529084169063095ea7b3906044016020604051808303816000875af1158015610b49573d6000803e3d6000fd5b505050506040513d601f19601f82011682018060405250810190610b6d9190611044565b50604080516003808252608082019092526060916020820183803683370190505090508381600081518110610ba457610ba4611077565b60200260200101906001600160a01b031690816001600160a01b03168152505073b31f66aa3c1e785363f0875a1b74e27b85fd66c781600181518110610bec57610bec611077565b6001600160a01b039283166020918202929092010152600154825191169082906002908110610c1d57610c1d611077565b6001600160a01b03928316602091820292909201015260035460405163a2a1623d60e01b815291169063a2a1623d908490610c639060009086908990429060040161108d565b60006040518083038185885af1158015610c81573d6000803e3d6000fd5b50505050506040513d6000823e601f3d908101601f19168201604052610caa91908101906110f7565b506001546040516370a0823160e01b81526001600160a01b038581166004830152849216906370a0823190602401602060405180830381865afa158015610cf5573d6000803e3d6000fd5b505050506040513d601f19601f82011682018060405250810190610d19919061102b565b1015610d675760405162461bcd60e51b815260206004820152601f60248201527f4572726f7220636f6d756e69636174696e67207769746820726f757465722e006044820152606401610245565b600480546040516316d3759560e01b81526001600160a01b03868116938201939093529116906316d3759590602401602060405180830381865afa158015610db3573d6000803e3d6000fd5b505050506040513d601f19601f82011682018060405250810190610dd79190611044565b15610e49576004805460405163945fb81d60e01b81526001600160a01b03868116938201939093526024810185905291169063945fb81d90604401600060405180830381600087803b158015610e2c57600080fd5b505af1158015610e40573d6000803e3d6000fd5b50505050610837565b60048054604051639abbdf4b60e01b81529182018490526001600160a01b031690639abbdf4b906024016020604051808303816000875af1158015610e92573d6000803e3d6000fd5b505050506040513d601f19601f82011682018060405250810190610eb69190611044565b5050505050565b600080546001600160a01b038381166001600160a01b0319831681178455604051919092169283917f8be0079c531659141344cd1fd0a4f28419497f9722a3daafe3b4186f6b6457e09190a35050565b80356001600160a01b0381168114610f2457600080fd5b919050565b60008060408385031215610f3c57600080fd5b610f4583610f0d565b946020939093013593505050565b600060208284031215610f6557600080fd5b610f6e82610f0d565b9392505050565b801515811461092a57600080fd5b60008060408385031215610f9657600080fd5b610f9f83610f0d565b91506020830135610faf81610f75565b809150509250929050565b600080600060608486031215610fcf57600080fd5b610fd884610f0d565b9250610fe660208501610f0d565b9150604084013590509250925092565b6020808252818101527f4f776e61626c653a2063616c6c6572206973206e6f7420746865206f776e6572604082015260600190565b60006020828403121561103d57600080fd5b5051919050565b60006020828403121561105657600080fd5b8151610f6e81610f75565b634e487b7160e01b600052604160045260246000fd5b634e487b7160e01b600052603260045260246000fd5b600060808201868352602060808185015281875180845260a086019150828901935060005b818110156110d75784516001600160a01b0316835293830193918301916001016110b2565b50506001600160a01b039690961660408501525050506060015292915050565b6000602080838503121561110a57600080fd5b825167ffffffffffffffff8082111561112257600080fd5b818501915085601f83011261113657600080fd5b81518181111561114857611148611061565b8060051b604051601f19603f8301168101818110858211171561116d5761116d611061565b60405291825284820192508381018501918883111561118b57600080fd5b938501935b828510156111a957845184529385019392850192611190565b9897505050505050505056fea2646970667358221220f86d63accf8fc3bfd7181bd4c246f98d50a30e39713e04d4c423e4240966117664736f6c634300080b0033",
    "linkReferences": {}
  }
}