{
  "_format": "hh-sol-artifact-1",
  "contractName": "VaultFactory",
  "sourceName": "contracts/VaultFactory.sol",
  "abi": [
    {
      "inputs": [
        {
          "internalType": "address",
          "name": "_SGX",
          "type": "address"
        },
        {
          "internalType": "address",
          "name": "_gSGX",
          "type": "address"
        },
        {
          "internalType": "address",
          "name": "_treasury",
          "type": "address"
        },
        {
          "internalType": "address",
          "name": "_lockup",
          "type": "address"
        }
      ],
      "stateMutability": "nonpayable",
      "type": "constructor"
    },
    {
      "anonymous": false,
      "inputs": [
        {
          "indexed": true,
          "internalType": "address",
          "name": "previousOwner",
          "type": "address"
        },
        {
          "indexed": true,
          "internalType": "address",
          "name": "newOwner",
          "type": "address"
        }
      ],
      "name": "OwnershipTransferred",
      "type": "event"
    },
    {
      "anonymous": false,
      "inputs": [
        {
          "indexed": true,
          "internalType": "address",
          "name": "user",
          "type": "address"
        },
        {
          "indexed": false,
          "internalType": "uint256",
          "name": "amount",
          "type": "uint256"
        }
      ],
      "name": "SuccessfullyDeposited",
      "type": "event"
    },
    {
      "anonymous": false,
      "inputs": [
        {
          "indexed": true,
          "internalType": "address",
          "name": "user",
          "type": "address"
        }
      ],
      "name": "VaultCreated",
      "type": "event"
    },
    {
      "anonymous": false,
      "inputs": [
        {
          "indexed": false,
          "internalType": "uint256",
          "name": "percentage",
          "type": "uint256"
        }
      ],
      "name": "burnPercentUpdated",
      "type": "event"
    },
    {
      "anonymous": false,
      "inputs": [
        {
          "indexed": false,
          "internalType": "uint256",
          "name": "reward",
          "type": "uint256"
        }
      ],
      "name": "interestRateUpdated",
      "type": "event"
    },
    {
      "anonymous": false,
      "inputs": [
        {
          "indexed": false,
          "internalType": "uint256",
          "name": "minDeposit",
          "type": "uint256"
        }
      ],
      "name": "minVaultDepositUpdated",
      "type": "event"
    },
    {
      "anonymous": false,
      "inputs": [
        {
          "indexed": false,
          "internalType": "uint8",
          "name": "newBoost",
          "type": "uint8"
        }
      ],
      "name": "networkBoostUpdated",
      "type": "event"
    },
    {
      "inputs": [],
      "name": "Lockup",
      "outputs": [
        {
          "internalType": "address",
          "name": "",
          "type": "address"
        }
      ],
      "stateMutability": "view",
      "type": "function"
    },
    {
      "inputs": [],
      "name": "SGX",
      "outputs": [
        {
          "internalType": "contract IERC20",
          "name": "",
          "type": "address"
        }
      ],
      "stateMutability": "view",
      "type": "function"
    },
    {
      "inputs": [],
      "name": "Treasury",
      "outputs": [
        {
          "internalType": "address",
          "name": "",
          "type": "address"
        }
      ],
      "stateMutability": "view",
      "type": "function"
    },
    {
      "inputs": [
        {
          "internalType": "address",
          "name": "",
          "type": "address"
        }
      ],
      "name": "UsersVault",
      "outputs": [
        {
          "internalType": "bool",
          "name": "exists",
          "type": "bool"
        },
        {
          "internalType": "uint256",
          "name": "lastClaimTime",
          "type": "uint256"
        },
        {
          "internalType": "uint256",
          "name": "balance",
          "type": "uint256"
        }
      ],
      "stateMutability": "view",
      "type": "function"
    },
    {
      "inputs": [],
      "name": "baseTime",
      "outputs": [
        {
          "internalType": "uint32",
          "name": "",
          "type": "uint32"
        }
      ],
      "stateMutability": "view",
      "type": "function"
    },
    {
      "inputs": [],
      "name": "burnPercent",
      "outputs": [
        {
          "internalType": "uint256",
          "name": "",
          "type": "uint256"
        }
      ],
      "stateMutability": "view",
      "type": "function"
    },
    {
      "inputs": [
        {
          "internalType": "uint256",
          "name": "rewards",
          "type": "uint256"
        },
        {
          "internalType": "uint256",
          "name": "variable",
          "type": "uint256"
        }
      ],
      "name": "calculatePercentage",
      "outputs": [
        {
          "internalType": "uint256",
          "name": "percentage",
          "type": "uint256"
        }
      ],
      "stateMutability": "pure",
      "type": "function"
    },
    {
      "inputs": [],
      "name": "claimRewards",
      "outputs": [],
      "stateMutability": "nonpayable",
      "type": "function"
    },
    {
      "inputs": [
        {
          "internalType": "uint256",
          "name": "amount",
          "type": "uint256"
        }
      ],
      "name": "createVault",
      "outputs": [
        {
          "internalType": "bool",
          "name": "",
          "type": "bool"
        }
      ],
      "stateMutability": "nonpayable",
      "type": "function"
    },
    {
      "inputs": [
        {
          "internalType": "uint256",
          "name": "amount",
          "type": "uint256"
        }
      ],
      "name": "depositInVault",
      "outputs": [],
      "stateMutability": "nonpayable",
      "type": "function"
    },
    {
      "inputs": [],
      "name": "gSGX",
      "outputs": [
        {
          "internalType": "contract IgSGX",
          "name": "",
          "type": "address"
        }
      ],
      "stateMutability": "view",
      "type": "function"
    },
    {
      "inputs": [],
      "name": "gSGXDistributed",
      "outputs": [
        {
          "internalType": "uint256",
          "name": "",
          "type": "uint256"
        }
      ],
      "stateMutability": "view",
      "type": "function"
    },
    {
      "inputs": [],
      "name": "gSGXPercent",
      "outputs": [
        {
          "internalType": "uint256",
          "name": "",
          "type": "uint256"
        }
      ],
      "stateMutability": "view",
      "type": "function"
    },
    {
      "inputs": [],
      "name": "getBurnPercentage",
      "outputs": [
        {
          "internalType": "uint256",
          "name": "",
          "type": "uint256"
        }
      ],
      "stateMutability": "view",
      "type": "function"
    },
    {
      "inputs": [],
      "name": "getGSGXDistributed",
      "outputs": [
        {
          "internalType": "uint256",
          "name": "",
          "type": "uint256"
        }
      ],
      "stateMutability": "view",
      "type": "function"
    },
    {
      "inputs": [],
      "name": "getGSGXPercent",
      "outputs": [
        {
          "internalType": "uint256",
          "name": "",
          "type": "uint256"
        }
      ],
      "stateMutability": "view",
      "type": "function"
    },
    {
      "inputs": [],
      "name": "getInterestRate",
      "outputs": [
        {
          "internalType": "uint256",
          "name": "",
          "type": "uint256"
        }
      ],
      "stateMutability": "view",
      "type": "function"
    },
    {
      "inputs": [],
      "name": "getMinVaultDeposit",
      "outputs": [
        {
          "internalType": "uint256",
          "name": "",
          "type": "uint256"
        }
      ],
      "stateMutability": "view",
      "type": "function"
    },
    {
      "inputs": [],
      "name": "getSGXAddress",
      "outputs": [
        {
          "internalType": "address",
          "name": "",
          "type": "address"
        }
      ],
      "stateMutability": "view",
      "type": "function"
    },
    {
      "inputs": [],
      "name": "getTotalNetworkVaults",
      "outputs": [
        {
          "internalType": "uint256",
          "name": "",
          "type": "uint256"
        }
      ],
      "stateMutability": "view",
      "type": "function"
    },
    {
      "inputs": [],
      "name": "getTreasuryAddress",
      "outputs": [
        {
          "internalType": "address",
          "name": "",
          "type": "address"
        }
      ],
      "stateMutability": "view",
      "type": "function"
    },
    {
      "inputs": [],
      "name": "getVaultInfo",
      "outputs": [
        {
          "internalType": "bool",
          "name": "exists",
          "type": "bool"
        },
        {
          "internalType": "uint256",
          "name": "lastClaimTime",
          "type": "uint256"
        },
        {
          "internalType": "uint256",
          "name": "balance",
          "type": "uint256"
        }
      ],
      "stateMutability": "view",
      "type": "function"
    },
    {
      "inputs": [],
      "name": "interestRate",
      "outputs": [
        {
          "internalType": "uint256",
          "name": "",
          "type": "uint256"
        }
      ],
      "stateMutability": "view",
      "type": "function"
    },
    {
      "inputs": [],
      "name": "minVaultDeposit",
      "outputs": [
        {
          "internalType": "uint256",
          "name": "",
          "type": "uint256"
        }
      ],
      "stateMutability": "view",
      "type": "function"
    },
    {
      "inputs": [],
      "name": "networkBoost",
      "outputs": [
        {
          "internalType": "uint8",
          "name": "",
          "type": "uint8"
        }
      ],
      "stateMutability": "view",
      "type": "function"
    },
    {
      "inputs": [],
      "name": "owner",
      "outputs": [
        {
          "internalType": "address",
          "name": "",
          "type": "address"
        }
      ],
      "stateMutability": "view",
      "type": "function"
    },
    {
      "inputs": [],
      "name": "renounceOwnership",
      "outputs": [],
      "stateMutability": "nonpayable",
      "type": "function"
    },
    {
      "inputs": [],
      "name": "reward_granularity",
      "outputs": [
        {
          "internalType": "uint256",
          "name": "",
          "type": "uint256"
        }
      ],
      "stateMutability": "view",
      "type": "function"
    },
    {
      "inputs": [
        {
          "internalType": "uint256",
          "name": "percentage",
          "type": "uint256"
        }
      ],
      "name": "setBurnPercent",
      "outputs": [],
      "stateMutability": "nonpayable",
      "type": "function"
    },
    {
      "inputs": [
        {
          "internalType": "uint256",
          "name": "_reward",
          "type": "uint256"
        }
      ],
      "name": "setInterestRate",
      "outputs": [],
      "stateMutability": "nonpayable",
      "type": "function"
    },
    {
      "inputs": [
        {
          "internalType": "uint256",
          "name": "minDeposit",
          "type": "uint256"
        }
      ],
      "name": "setMinVaultDeposit",
      "outputs": [],
      "stateMutability": "nonpayable",
      "type": "function"
    },
    {
      "inputs": [
        {
          "internalType": "uint8",
          "name": "boost",
          "type": "uint8"
        }
      ],
      "name": "setNetworkBoost",
      "outputs": [],
      "stateMutability": "nonpayable",
      "type": "function"
    },
    {
      "inputs": [
        {
          "internalType": "uint256",
          "name": "percentage",
          "type": "uint256"
        }
      ],
      "name": "setgSGXDistributed",
      "outputs": [],
      "stateMutability": "nonpayable",
      "type": "function"
    },
    {
      "inputs": [
        {
          "internalType": "uint256",
          "name": "percentage",
          "type": "uint256"
        }
      ],
      "name": "setgSGXPercent",
      "outputs": [],
      "stateMutability": "nonpayable",
      "type": "function"
    },
    {
      "inputs": [],
      "name": "totalNetworkVaults",
      "outputs": [
        {
          "internalType": "uint256",
          "name": "",
          "type": "uint256"
        }
      ],
      "stateMutability": "view",
      "type": "function"
    },
    {
      "inputs": [
        {
          "internalType": "address",
          "name": "newOwner",
          "type": "address"
        }
      ],
      "name": "transferOwnership",
      "outputs": [],
      "stateMutability": "nonpayable",
      "type": "function"
    },
    {
      "inputs": [
        {
          "internalType": "address",
          "name": "user",
          "type": "address"
        }
      ],
      "name": "vaultExists",
      "outputs": [
        {
          "internalType": "bool",
          "name": "",
          "type": "bool"
        }
      ],
      "stateMutability": "view",
      "type": "function"
    }
  ],
  "bytecode": "0x61010060405260006002553480156200001757600080fd5b5060405162001c2a38038062001c2a8339810160408190526200003a91620000ef565b6200004e620000486200007e565b62000082565b6001600160601b0319606094851b811660805292841b831660a05290831b821660c05290911b1660e0526200014b565b3390565b600080546001600160a01b038381166001600160a01b0319831681178455604051919092169283917f8be0079c531659141344cd1fd0a4f28419497f9722a3daafe3b4186f6b6457e09190a35050565b80516001600160a01b0381168114620000ea57600080fd5b919050565b6000806000806080858703121562000105578384fd5b6200011085620000d2565b93506200012060208601620000d2565b92506200013060408601620000d2565b91506200014060608601620000d2565b905092959194509250565b60805160601c60a05160601c60c05160601c60e05160601c6119f86200023260003960008181610eab015281816114580152818161153c01526115de0152600081816106540152818161085b0152818161091c01528181610cc301528181610d840152610efb015260008181610a75015281816111e40152818161127801526113230152600081816106ec0152818161078b0152818161082e015281816108ef01528181610af501528181610bf301528181610c9601528181610d570152818161107501528181611137015281816111b5015281816112f401526113b701526119f86000f3fe608060405234801561001057600080fd5b50600436106102275760003560e01c8063715018a61161013057806399dac893116100b8578063d4ebb6631161007c578063d4ebb663146103f5578063e0024604146103fd578063e2e91bb214610405578063f2fde38b14610418578063f39739211461042b57610227565b806399dac893146103ac5780639abbdf4b146103b4578063bb1570da146103c7578063cbdf8692146103da578063d02781bf146103e257610227565b8063866aba25116100ff578063866aba25146103845780638918b62f1461038c5780638da5cb5b146103945780638e3875eb1461039c57806396686adb146103a457610227565b8063715018a61461035557806375ac76da1461035d5780637c3a00fd146103655780637f98aa711461036d57610227565b80634a0f858d116101b35780635f84f302116101825780635f84f3021461030c57806361959ab11461031f57806362a998271461032757806367e189181461033a5780636e1d52cf1461034d57610227565b80634a0f858d146102d457806350ea6dcc146102e75780635257b566146102ef578063563df32f146102f757610227565b80631fe7ef76116101fa5780631fe7ef76146102875780632133e3b91461028f578063372500ab146102a257806343084a57146102ac57806347eaa9e7146102c157610227565b806303807ee51461022c57806308b096a01461024a5780630f2aaec51461025f57806316d3759514610267575b600080fd5b610234610433565b6040516102419190611916565b60405180910390f35b610252610439565b604051610241919061191f565b610234610441565b61027a61027536600461165c565b610447565b6040516102419190611793565b610234610465565b61023461029d3660046116bb565b61046b565b6102aa610491565b005b6102b4610571565b6040516102419190611930565b6102aa6102cf3660046116a3565b61057a565b6102aa6102e23660046116a3565b610602565b610234610646565b61023461064c565b6102ff610652565b6040516102419190611721565b6102aa61031a3660046116a3565b610676565b6102ff6106ea565b6102aa6103353660046116a3565b61070e565b6102aa6103483660046116a3565b6109de565b610234610a22565b6102aa610a28565b6102ff610a73565b610234610a97565b610375610a9d565b6040516102419392919061179e565b610234610ac6565b610234610acc565b6102ff610ad8565b610234610ae7565b610234610aed565b6102ff610af3565b61027a6103c23660046116a3565b610b17565b6102aa6103d53660046116a3565b610e35565b6102ff610ea9565b6103756103f036600461165c565b610ecd565b610234610ef3565b6102ff610ef9565b6102aa610413366004611700565b610f1d565b6102aa61042636600461165c565b610fbf565b610234611030565b60055481565b6301e1338081565b60055490565b6001600160a01b031660009081526001602052604090205460ff1690565b60025490565b6000670de0b6b3a76400006104808385611976565b61048a9190611956565b9392505050565b3360009081526001602081815260408084208151606081018352815460ff16151581529381015492840183905260020154908301529091906104d39042611995565b905060006301e1338063ffffffff16600354836104f09190611976565b6104fa9190611956565b90506000670de0b6b3a76400008285604001516105179190611976565b6105219190611956565b905061052d8133611036565b50504260208381019182523360009081526001918290526040908190208551815460ff19169015151781559251918301919091559092015160029092019190915550565b60085460ff1681565b6105826114cc565b6001600160a01b0316610593610ad8565b6001600160a01b0316146105c25760405162461bcd60e51b81526004016105b990611833565b60405180910390fd5b60048190556040517f1ea059cb9980eddd3da8e857aabaebed6d32de3b5974da6591e7ccf469c771b8906105f7908390611916565b60405180910390a150565b61060a6114cc565b6001600160a01b031661061b610ad8565b6001600160a01b0316146106415760405162461bcd60e51b81526004016105b990611833565b600655565b60075490565b60035490565b7f000000000000000000000000000000000000000000000000000000000000000081565b61067e6114cc565b6001600160a01b031661068f610ad8565b6001600160a01b0316146106b55760405162461bcd60e51b81526004016105b990611833565b60038190556040517f53b4f66861c0d3aeeec9a05672894e655344e1eba448ff47520d3b64a44bea3b906105f7908390611916565b7f000000000000000000000000000000000000000000000000000000000000000090565b6004548110156107305760405162461bcd60e51b81526004016105b9906118e8565b6008546000906107439060ff1683611976565b905061074d610491565b336000908152600160205260408120600201805483929061076f90849061193e565b90915550506040516323b872dd60e01b81526001600160a01b037f000000000000000000000000000000000000000000000000000000000000000016906323b872dd906107c490339030908790600401611735565b602060405180830381600087803b1580156107de57600080fd5b505af11580156107f2573d6000803e3d6000fd5b505050506040513d601f19601f820116820180604052508101906108169190611683565b5060405163095ea7b360e01b81526001600160a01b037f0000000000000000000000000000000000000000000000000000000000000000169063095ea7b390610885907f0000000000000000000000000000000000000000000000000000000000000000908690600401611759565b602060405180830381600087803b15801561089f57600080fd5b505af11580156108b3573d6000803e3d6000fd5b505050506040513d601f19601f820116820180604052508101906108d79190611683565b5060405163a9059cbb60e01b81526001600160a01b037f0000000000000000000000000000000000000000000000000000000000000000169063a9059cbb90610946907f0000000000000000000000000000000000000000000000000000000000000000908690600401611759565b602060405180830381600087803b15801561096057600080fd5b505af1158015610974573d6000803e3d6000fd5b505050506040513d601f19601f820116820180604052508101906109989190611683565b50336001600160a01b03167fa155d4cdc6e4c7c708da428e6dba018e815bce0e0e83e85449df7e3624878b2e826040516109d29190611916565b60405180910390a25050565b6109e66114cc565b6001600160a01b03166109f7610ad8565b6001600160a01b031614610a1d5760405162461bcd60e51b81526004016105b990611833565b600755565b60045490565b610a306114cc565b6001600160a01b0316610a41610ad8565b6001600160a01b031614610a675760405162461bcd60e51b81526004016105b990611833565b610a7160006114d0565b565b7f000000000000000000000000000000000000000000000000000000000000000081565b60035481565b33600090815260016020819052604090912080549181015460029091015460ff90921692909190565b60025481565b670de0b6b3a764000081565b6000546001600160a01b031690565b60045481565b60075481565b7f000000000000000000000000000000000000000000000000000000000000000081565b3360009081526001602052604081205460ff1615610b475760405162461bcd60e51b81526004016105b9906117b6565b600454821015610b695760405162461bcd60e51b81526004016105b9906118e8565b600854600090610b7c9060ff1684611976565b604080516060810182526001808252426020808401918252838501868152336000908152918490529481209351845460ff19169015151784559051838301559251600292830155815493945092909190610bd790849061193e565b90915550506040516323b872dd60e01b81526001600160a01b037f000000000000000000000000000000000000000000000000000000000000000016906323b872dd90610c2c90339030908890600401611735565b602060405180830381600087803b158015610c4657600080fd5b505af1158015610c5a573d6000803e3d6000fd5b505050506040513d601f19601f82011682018060405250810190610c7e9190611683565b5060405163095ea7b360e01b81526001600160a01b037f0000000000000000000000000000000000000000000000000000000000000000169063095ea7b390610ced907f0000000000000000000000000000000000000000000000000000000000000000908790600401611759565b602060405180830381600087803b158015610d0757600080fd5b505af1158015610d1b573d6000803e3d6000fd5b505050506040513d601f19601f82011682018060405250810190610d3f9190611683565b5060405163a9059cbb60e01b81526001600160a01b037f0000000000000000000000000000000000000000000000000000000000000000169063a9059cbb90610dae907f0000000000000000000000000000000000000000000000000000000000000000908790600401611759565b602060405180830381600087803b158015610dc857600080fd5b505af1158015610ddc573d6000803e3d6000fd5b505050506040513d601f19601f82011682018060405250810190610e009190611683565b5060405133907f2e49a5810fda2439a23771848b4acec786b0a64d4de3d124ac57fc8739c3887590600090a250600192915050565b610e3d6114cc565b6001600160a01b0316610e4e610ad8565b6001600160a01b031614610e745760405162461bcd60e51b81526004016105b990611833565b60058190556040517f7dbdbcc7c98741830150a332948181ff0cf7908ca02b83f66252717d74547310906105f7908390611916565b7f000000000000000000000000000000000000000000000000000000000000000081565b600160208190526000918252604090912080549181015460029091015460ff9092169183565b60065490565b7f000000000000000000000000000000000000000000000000000000000000000090565b610f256114cc565b6001600160a01b0316610f36610ad8565b6001600160a01b031614610f5c5760405162461bcd60e51b81526004016105b990611833565b60018160ff161015610f805760405162461bcd60e51b81526004016105b990611868565b6008805460ff191660ff83161790556040517f908f1f6b6e87000288304d38e9e1c35d19de25df1bc6e0f1466a2b3214593188906105f7908390611930565b610fc76114cc565b6001600160a01b0316610fd8610ad8565b6001600160a01b031614610ffe5760405162461bcd60e51b81526004016105b990611833565b6001600160a01b0381166110245760405162461bcd60e51b81526004016105b9906117ed565b61102d816114d0565b50565b60065481565b336001600160a01b0382161461105e5760405162461bcd60e51b81526004016105b99061189f565b6040516340c10f1960e01b81526001600160a01b037f000000000000000000000000000000000000000000000000000000000000000016906340c10f19906110ac9030908690600401611759565b600060405180830381600087803b1580156110c657600080fd5b505af11580156110da573d6000803e3d6000fd5b5050505060008060008060006110ef87611520565b9450945094509450945084876111059190611995565b96506111118288611995565b965061111d8188611995565b604051632770a7eb60e21b81529097506001600160a01b037f00000000000000000000000000000000000000000000000000000000000000001690639dc29fac9061116e9030908990600401611759565b600060405180830381600087803b15801561118857600080fd5b505af115801561119c573d6000803e3d6000fd5b505060405163095ea7b360e01b81526001600160a01b037f000000000000000000000000000000000000000000000000000000000000000016925063095ea7b3915061120e907f0000000000000000000000000000000000000000000000000000000000000000908690600401611759565b602060405180830381600087803b15801561122857600080fd5b505af115801561123c573d6000803e3d6000fd5b505050506040513d601f19601f820116820180604052508101906112609190611683565b5060405163b6b55f2560e01b81526001600160a01b037f0000000000000000000000000000000000000000000000000000000000000000169063b6b55f25906112ad908590600401611916565b600060405180830381600087803b1580156112c757600080fd5b505af11580156112db573d6000803e3d6000fd5b505060405163a9059cbb60e01b81526001600160a01b037f000000000000000000000000000000000000000000000000000000000000000016925063a9059cbb915061134d907f0000000000000000000000000000000000000000000000000000000000000000908590600401611759565b602060405180830381600087803b15801561136757600080fd5b505af115801561137b573d6000803e3d6000fd5b505050506040513d601f19601f8201168201806040525081019061139f9190611683565b5060405163a9059cbb60e01b81526001600160a01b037f0000000000000000000000000000000000000000000000000000000000000000169063a9059cbb906113ee9033908b90600401611759565b602060405180830381600087803b15801561140857600080fd5b505af115801561141c573d6000803e3d6000fd5b505050506040513d601f19601f820116820180604052508101906114409190611683565b506040516369d10ee760e01b81526001600160a01b037f000000000000000000000000000000000000000000000000000000000000000016906369d10ee79061149190339088908890600401611772565b600060405180830381600087803b1580156114ab57600080fd5b505af11580156114bf573d6000803e3d6000fd5b5050505050505050505050565b3390565b600080546001600160a01b038381166001600160a01b0319831681178455604051919092169283917f8be0079c531659141344cd1fd0a4f28419497f9722a3daafe3b4186f6b6457e09190a35050565b60008060008060006115348660055461046b565b94506115d6867f00000000000000000000000000000000000000000000000000000000000000006001600160a01b031663df108d376040518163ffffffff1660e01b815260040160206040518083038186803b15801561159357600080fd5b505afa1580156115a7573d6000803e3d6000fd5b505050506040513d601f19601f820116820180604052508101906115cb91906116dc565b63ffffffff1661046b565b9350611635867f00000000000000000000000000000000000000000000000000000000000000006001600160a01b03166316d6b4b66040518163ffffffff1660e01b815260040160206040518083038186803b15801561159357600080fd5b92506116438660065461046b565b91506116518660075461046b565b905091939590929450565b60006020828403121561166d578081fd5b81356001600160a01b038116811461048a578182fd5b600060208284031215611694578081fd5b8151801515811461048a578182fd5b6000602082840312156116b4578081fd5b5035919050565b600080604083850312156116cd578081fd5b50508035926020909101359150565b6000602082840312156116ed578081fd5b815163ffffffff8116811461048a578182fd5b600060208284031215611711578081fd5b813560ff8116811461048a578182fd5b6001600160a01b0391909116815260200190565b6001600160a01b039384168152919092166020820152604081019190915260600190565b6001600160a01b03929092168252602082015260400190565b6001600160a01b039390931683526020830191909152604082015260600190565b901515815260200190565b92151583526020830191909152604082015260600190565b60208082526019908201527f5573657220616c7265616479206861732061205661756c742e00000000000000604082015260600190565b60208082526026908201527f4f776e61626c653a206e6577206f776e657220697320746865207a65726f206160408201526564647265737360d01b606082015260800190565b6020808252818101527f4f776e61626c653a2063616c6c6572206973206e6f7420746865206f776e6572604082015260600190565b6020808252601b908201527f4e6574776f726b20426f6f73742063616e2774206265203c20312e0000000000604082015260600190565b60208082526029908201527f596f752063616e206f6e6c79206469737472696275746520796f7572206f776e604082015268103932bbb0b932399760b91b606082015260800190565b60208082526014908201527320b6b7bab73a1034b9903a37b79039b6b0b6361760611b604082015260600190565b90815260200190565b63ffffffff91909116815260200190565b60ff91909116815260200190565b60008219821115611951576119516119ac565b500190565b60008261197157634e487b7160e01b81526012600452602481fd5b500490565b6000816000190483118215151615611990576119906119ac565b500290565b6000828210156119a7576119a76119ac565b500390565b634e487b7160e01b600052601160045260246000fdfea26469706673582212209cdc878b04387a93c79aa26c8f480dbd1bf534ee8c993a7a7093dbb74d28587564736f6c63430008000033",
  "linkReferences": {},
  "deployedLinkReferences": {}
}