{
  "_format": "hh-sol-artifact-1",
  "contractName": "VaultFactory",
  "sourceName": "contracts/VaultFactory.sol",
  "abi": [
    {
      "inputs": [
        {
          "internalType": "address",
          "name": "_SGX",
          "type": "address"
        },
        {
          "internalType": "address",
          "name": "_gSGX",
          "type": "address"
        },
        {
          "internalType": "address",
          "name": "_treasury",
          "type": "address"
        },
        {
          "internalType": "address",
          "name": "_lockup",
          "type": "address"
        }
      ],
      "stateMutability": "nonpayable",
      "type": "constructor"
    },
    {
      "anonymous": false,
      "inputs": [
        {
          "indexed": true,
          "internalType": "address",
          "name": "previousOwner",
          "type": "address"
        },
        {
          "indexed": true,
          "internalType": "address",
          "name": "newOwner",
          "type": "address"
        }
      ],
      "name": "OwnershipTransferred",
      "type": "event"
    },
    {
      "anonymous": false,
      "inputs": [
        {
          "indexed": true,
          "internalType": "address",
          "name": "user",
          "type": "address"
        },
        {
          "indexed": false,
          "internalType": "uint256",
          "name": "amount",
          "type": "uint256"
        }
      ],
      "name": "SuccessfullyDeposited",
      "type": "event"
    },
    {
      "anonymous": false,
      "inputs": [
        {
          "indexed": true,
          "internalType": "address",
          "name": "user",
          "type": "address"
        }
      ],
      "name": "VaultCreated",
      "type": "event"
    },
    {
      "anonymous": false,
      "inputs": [
        {
          "indexed": true,
          "internalType": "address",
          "name": "user",
          "type": "address"
        }
      ],
      "name": "VaultLiquidated",
      "type": "event"
    },
    {
      "anonymous": false,
      "inputs": [
        {
          "indexed": false,
          "internalType": "uint256",
          "name": "percentage",
          "type": "uint256"
        }
      ],
      "name": "burnPercentUpdated",
      "type": "event"
    },
    {
      "anonymous": false,
      "inputs": [
        {
          "indexed": false,
          "internalType": "uint256",
          "name": "amount",
          "type": "uint256"
        }
      ],
      "name": "debtReaid",
      "type": "event"
    },
    {
      "anonymous": false,
      "inputs": [
        {
          "indexed": false,
          "internalType": "uint256",
          "name": "reward",
          "type": "uint256"
        }
      ],
      "name": "interestRateUpdated",
      "type": "event"
    },
    {
      "anonymous": false,
      "inputs": [
        {
          "indexed": false,
          "internalType": "uint256",
          "name": "minDeposit",
          "type": "uint256"
        }
      ],
      "name": "minVaultDepositUpdated",
      "type": "event"
    },
    {
      "anonymous": false,
      "inputs": [
        {
          "indexed": false,
          "internalType": "uint8",
          "name": "newBoost",
          "type": "uint8"
        }
      ],
      "name": "networkBoostUpdated",
      "type": "event"
    },
    {
      "inputs": [],
      "name": "BurnPercent",
      "outputs": [
        {
          "internalType": "uint256",
          "name": "",
          "type": "uint256"
        }
      ],
      "stateMutability": "view",
      "type": "function"
    },
    {
      "inputs": [],
      "name": "GSGXDistributed",
      "outputs": [
        {
          "internalType": "uint256",
          "name": "",
          "type": "uint256"
        }
      ],
      "stateMutability": "view",
      "type": "function"
    },
    {
      "inputs": [],
      "name": "GSGXPercent",
      "outputs": [
        {
          "internalType": "uint256",
          "name": "",
          "type": "uint256"
        }
      ],
      "stateMutability": "view",
      "type": "function"
    },
    {
      "inputs": [],
      "name": "LiquidateVaultPercent",
      "outputs": [
        {
          "internalType": "uint256",
          "name": "",
          "type": "uint256"
        }
      ],
      "stateMutability": "view",
      "type": "function"
    },
    {
      "inputs": [],
      "name": "Lockup",
      "outputs": [
        {
          "internalType": "address",
          "name": "",
          "type": "address"
        }
      ],
      "stateMutability": "view",
      "type": "function"
    },
    {
      "inputs": [],
      "name": "MinVaultDeposit",
      "outputs": [
        {
          "internalType": "uint256",
          "name": "",
          "type": "uint256"
        }
      ],
      "stateMutability": "view",
      "type": "function"
    },
    {
      "inputs": [],
      "name": "NetworkBoost",
      "outputs": [
        {
          "internalType": "uint8",
          "name": "",
          "type": "uint8"
        }
      ],
      "stateMutability": "view",
      "type": "function"
    },
    {
      "inputs": [],
      "name": "ProtocolDebt",
      "outputs": [
        {
          "internalType": "uint256",
          "name": "",
          "type": "uint256"
        }
      ],
      "stateMutability": "view",
      "type": "function"
    },
    {
      "inputs": [],
      "name": "SGX",
      "outputs": [
        {
          "internalType": "contract IERC20",
          "name": "",
          "type": "address"
        }
      ],
      "stateMutability": "view",
      "type": "function"
    },
    {
      "inputs": [],
      "name": "TotalNetworkVaults",
      "outputs": [
        {
          "internalType": "uint256",
          "name": "",
          "type": "uint256"
        }
      ],
      "stateMutability": "view",
      "type": "function"
    },
    {
      "inputs": [],
      "name": "Treasury",
      "outputs": [
        {
          "internalType": "address",
          "name": "",
          "type": "address"
        }
      ],
      "stateMutability": "view",
      "type": "function"
    },
    {
      "inputs": [
        {
          "internalType": "address",
          "name": "",
          "type": "address"
        }
      ],
      "name": "UsersVault",
      "outputs": [
        {
          "internalType": "bool",
          "name": "exists",
          "type": "bool"
        },
        {
          "internalType": "uint256",
          "name": "lastClaimTime",
          "type": "uint256"
        },
        {
          "internalType": "uint256",
          "name": "pendingRewards",
          "type": "uint256"
        },
        {
          "internalType": "uint256",
          "name": "balance",
          "type": "uint256"
        }
      ],
      "stateMutability": "view",
      "type": "function"
    },
    {
      "inputs": [],
      "name": "baseTime",
      "outputs": [
        {
          "internalType": "uint32",
          "name": "",
          "type": "uint32"
        }
      ],
      "stateMutability": "view",
      "type": "function"
    },
    {
      "inputs": [
        {
          "internalType": "uint256",
          "name": "rewards",
          "type": "uint256"
        },
        {
          "internalType": "uint256",
          "name": "variable",
          "type": "uint256"
        }
      ],
      "name": "calculatePercentage",
      "outputs": [
        {
          "internalType": "uint256",
          "name": "percentage",
          "type": "uint256"
        }
      ],
      "stateMutability": "pure",
      "type": "function"
    },
    {
      "inputs": [],
      "name": "claimRewards",
      "outputs": [],
      "stateMutability": "nonpayable",
      "type": "function"
    },
    {
      "inputs": [
        {
          "internalType": "uint256",
          "name": "amount",
          "type": "uint256"
        }
      ],
      "name": "createVault",
      "outputs": [
        {
          "internalType": "bool",
          "name": "",
          "type": "bool"
        }
      ],
      "stateMutability": "nonpayable",
      "type": "function"
    },
    {
      "inputs": [
        {
          "internalType": "uint256",
          "name": "amount",
          "type": "uint256"
        }
      ],
      "name": "depositInVault",
      "outputs": [],
      "stateMutability": "nonpayable",
      "type": "function"
    },
    {
      "inputs": [],
      "name": "gSGX",
      "outputs": [
        {
          "internalType": "contract IgSGX",
          "name": "",
          "type": "address"
        }
      ],
      "stateMutability": "view",
      "type": "function"
    },
    {
      "inputs": [],
      "name": "getGSGXAddress",
      "outputs": [
        {
          "internalType": "address",
          "name": "",
          "type": "address"
        }
      ],
      "stateMutability": "view",
      "type": "function"
    },
    {
      "inputs": [],
      "name": "getSGXAddress",
      "outputs": [
        {
          "internalType": "address",
          "name": "",
          "type": "address"
        }
      ],
      "stateMutability": "view",
      "type": "function"
    },
    {
      "inputs": [],
      "name": "getVaultInfo",
      "outputs": [
        {
          "internalType": "bool",
          "name": "exists",
          "type": "bool"
        },
        {
          "internalType": "uint256",
          "name": "lastClaimTime",
          "type": "uint256"
        },
        {
          "internalType": "uint256",
          "name": "pendingRewards",
          "type": "uint256"
        },
        {
          "internalType": "uint256",
          "name": "balance",
          "type": "uint256"
        }
      ],
      "stateMutability": "view",
      "type": "function"
    },
    {
      "inputs": [],
      "name": "interestRate",
      "outputs": [
        {
          "internalType": "uint256",
          "name": "",
          "type": "uint256"
        }
      ],
      "stateMutability": "view",
      "type": "function"
    },
    {
      "inputs": [],
      "name": "liquidateVault",
      "outputs": [],
      "stateMutability": "nonpayable",
      "type": "function"
    },
    {
      "inputs": [],
      "name": "owner",
      "outputs": [
        {
          "internalType": "address",
          "name": "",
          "type": "address"
        }
      ],
      "stateMutability": "view",
      "type": "function"
    },
    {
      "inputs": [],
      "name": "renounceOwnership",
      "outputs": [],
      "stateMutability": "nonpayable",
      "type": "function"
    },
    {
      "inputs": [
        {
          "internalType": "uint256",
          "name": "amount",
          "type": "uint256"
        }
      ],
      "name": "repayDebt",
      "outputs": [],
      "stateMutability": "nonpayable",
      "type": "function"
    },
    {
      "inputs": [],
      "name": "reward_granularity",
      "outputs": [
        {
          "internalType": "uint256",
          "name": "",
          "type": "uint256"
        }
      ],
      "stateMutability": "view",
      "type": "function"
    },
    {
      "inputs": [
        {
          "internalType": "uint256",
          "name": "percentage",
          "type": "uint256"
        }
      ],
      "name": "setBurnPercent",
      "outputs": [],
      "stateMutability": "nonpayable",
      "type": "function"
    },
    {
      "inputs": [
        {
          "internalType": "uint256",
          "name": "_reward",
          "type": "uint256"
        }
      ],
      "name": "setInterestRate",
      "outputs": [],
      "stateMutability": "nonpayable",
      "type": "function"
    },
    {
      "inputs": [
        {
          "internalType": "uint256",
          "name": "percentage",
          "type": "uint256"
        }
      ],
      "name": "setLiquidateVaultPercent",
      "outputs": [],
      "stateMutability": "nonpayable",
      "type": "function"
    },
    {
      "inputs": [
        {
          "internalType": "uint256",
          "name": "minDeposit",
          "type": "uint256"
        }
      ],
      "name": "setMinVaultDeposit",
      "outputs": [],
      "stateMutability": "nonpayable",
      "type": "function"
    },
    {
      "inputs": [
        {
          "internalType": "uint8",
          "name": "boost",
          "type": "uint8"
        }
      ],
      "name": "setNetworkBoost",
      "outputs": [],
      "stateMutability": "nonpayable",
      "type": "function"
    },
    {
      "inputs": [
        {
          "internalType": "uint256",
          "name": "percentage",
          "type": "uint256"
        }
      ],
      "name": "setgSGXDistributed",
      "outputs": [],
      "stateMutability": "nonpayable",
      "type": "function"
    },
    {
      "inputs": [
        {
          "internalType": "uint256",
          "name": "percentage",
          "type": "uint256"
        }
      ],
      "name": "setgSGXPercent",
      "outputs": [],
      "stateMutability": "nonpayable",
      "type": "function"
    },
    {
      "inputs": [
        {
          "internalType": "address",
          "name": "newOwner",
          "type": "address"
        }
      ],
      "name": "transferOwnership",
      "outputs": [],
      "stateMutability": "nonpayable",
      "type": "function"
    },
    {
      "inputs": [
        {
          "internalType": "address",
          "name": "user",
          "type": "address"
        }
      ],
      "name": "vaultExists",
      "outputs": [
        {
          "internalType": "bool",
          "name": "",
          "type": "bool"
        }
      ],
      "stateMutability": "view",
      "type": "function"
    }
  ],
  "bytecode": "0x6101006040523480156200001257600080fd5b506040516200217c3803806200217c8339810160408190526200003591620000ea565b620000496200004362000079565b6200007d565b6001600160601b0319606094851b811660805292841b831660a05290831b821660c05290911b1660e05262000146565b3390565b600080546001600160a01b038381166001600160a01b0319831681178455604051919092169283917f8be0079c531659141344cd1fd0a4f28419497f9722a3daafe3b4186f6b6457e09190a35050565b80516001600160a01b0381168114620000e557600080fd5b919050565b6000806000806080858703121562000100578384fd5b6200010b85620000cd565b93506200011b60208601620000cd565b92506200012b60408601620000cd565b91506200013b60608601620000cd565b905092959194509250565b60805160601c60a05160601c60c05160601c60e05160601c611f416200023b600039600081816113f30152818161194e01528181611a320152611ad401526000818161071801528181610a2c01528181610aed01528181610fcc015261108d01526000818161043901528181610d71015281816116da0152818161176e01526118190152600081816107b60152818161095d015281816109ff01528181610ac001528181610c8c01528181610dea01528181610efc01528181610f9f01528181611060015281816112dc015281816115ad0152818161162b015281816116ab015281816117ea01526118ad0152611f416000f3fe608060405234801561001057600080fd5b506004361061021c5760003560e01c806367e189181161012557806399dac893116100ad578063bba1f97c1161007c578063bba1f97c146103ee578063cbdf8692146103f6578063d02781bf146103fe578063e2e91bb214610411578063f2fde38b146104245761021c565b806399dac893146103b85780639abbdf4b146103c0578063b8420dd2146103d3578063bb1570da146103db5761021c565b80637c3a00fd116100f45780637c3a00fd146103735780637f98aa711461037b5780638918b62f146103935780638da5cb5b1461039b578063993ff240146103a35761021c565b806367e189181461033d5780636b09de4514610350578063715018a61461036357806375ac76da1461036b5761021c565b80634a0f858d116101a85780635e1d6f53116101775780635e1d6f53146102ff5780635f84f3021461030757806361959ab11461031a57806362a998271461032257806366312e9a146103355761021c565b80634a0f858d146102c95780635040cacc146102dc5780635117e270146102e4578063563df32f146102f75761021c565b80631be8508b116101ef5780631be8508b146102895780632133e3b914610291578063237d7c44146102a4578063372500ab146102ac57806347eaa9e7146102b65761021c565b806305c8f9eb1461022157806308b096a01461023f578063111ce4481461025457806316d3759514610269575b600080fd5b610229610437565b6040516102369190611c17565b60405180910390f35b61024761045b565b6040516102369190611e68565b61025c610463565b6040516102369190611e5f565b61027c610277366004611b52565b610469565b6040516102369190611c89565b61025c610487565b61025c61029f366004611bb1565b61048d565b61025c6104b3565b6102b46104b9565b005b6102b46102c4366004611b99565b610609565b6102b46102d7366004611b99565b610688565b61025c6106cc565b6102b46102f2366004611b99565b6106d2565b610229610716565b61025c61073a565b6102b4610315366004611b99565b610740565b6102296107b4565b6102b4610330366004611b99565b6107d8565b61025c610bb3565b6102b461034b366004611b99565b610bb9565b6102b461035e366004611b99565b610bfd565b6102b4610d24565b610229610d6f565b61025c610d93565b610383610d99565b6040516102369493929190611c94565b61025c610dc4565b610229610dd0565b6103ab610ddf565b6040516102369190611e79565b610229610de8565b61027c6103ce366004611b99565b610e0c565b6102b461113e565b6102b46103e9366004611b99565b611377565b61025c6113eb565b6102296113f1565b61038361040c366004611b52565b611415565b6102b461041f366004611bf6565b611442565b6102b4610432366004611b52565b6114e4565b7f000000000000000000000000000000000000000000000000000000000000000090565b6301e1338081565b60065481565b6001600160a01b031660009081526002602052604090205460ff1690565b600a5481565b6000670de0b6b3a76400006104a28385611ebf565b6104ac9190611e9f565b9392505050565b60055481565b336000908152600260208181526040928390208351608081018552815460ff161515808252600180840154948301949094529382015494810194909452600301546060840152146105255760405162461bcd60e51b815260040161051c90611d57565b60405180910390fd5b60008160200151426105379190611ede565b90506201518081101561055c5760405162461bcd60e51b815260040161051c90611dc3565b6001546000906301e13380906105729084611ebf565b61057c9190611e9f565b905060008360400151670de0b6b3a764000083866060015161059e9190611ebf565b6105a89190611e9f565b6105b29190611e87565b90506105bd81611555565b50504260208381019182526000604080860182815233835260029384905291208551815460ff191690151517815592516001840155519082015560609092015160039092019190915550565b6106116119c2565b6001600160a01b0316610622610dd0565b6001600160a01b0316146106485760405162461bcd60e51b815260040161051c90611d8e565b60038190556040517f1ea059cb9980eddd3da8e857aabaebed6d32de3b5974da6591e7ccf469c771b89061067d908390611e5f565b60405180910390a150565b6106906119c2565b6001600160a01b03166106a1610dd0565b6001600160a01b0316146106c75760405162461bcd60e51b815260040161051c90611d8e565b600655565b60095481565b6106da6119c2565b6001600160a01b03166106eb610dd0565b6001600160a01b0316146107115760405162461bcd60e51b815260040161051c90611d8e565b600555565b7f000000000000000000000000000000000000000000000000000000000000000081565b60035481565b6107486119c2565b6001600160a01b0316610759610dd0565b6001600160a01b03161461077f5760405162461bcd60e51b815260040161051c90611d8e565b60018190556040517f53b4f66861c0d3aeeec9a05672894e655344e1eba448ff47520d3b64a44bea3b9061067d908390611e5f565b7f000000000000000000000000000000000000000000000000000000000000000090565b6003548110156107fa5760405162461bcd60e51b815260040161051c90611e31565b336000908152600260208181526040928390208351608081018552815460ff1615158082526001808401549483019490945293820154948101949094526003015460608401521461085d5760405162461bcd60e51b815260040161051c90611d57565b6008546000906108709060ff1684611ebf565b905060008260200151426108849190611ede565b905060006301e1338063ffffffff16600154836108a19190611ebf565b6108ab9190611e9f565b90506000670de0b6b3a76400008286606001516108c89190611ebf565b6108d29190611e9f565b42602087015260408601805191925082916108ee908390611e87565b905250606085018051859190610905908390611e87565b905250336000818152600260208181526040928390208951815460ff191690151517815590890151600182015588830151918101919091556060880151600390910155516323b872dd60e01b81526001600160a01b037f000000000000000000000000000000000000000000000000000000000000000016916323b872dd91610995919030908b90600401611c2b565b602060405180830381600087803b1580156109af57600080fd5b505af11580156109c3573d6000803e3d6000fd5b505050506040513d601f19601f820116820180604052508101906109e79190611b79565b5060405163095ea7b360e01b81526001600160a01b037f0000000000000000000000000000000000000000000000000000000000000000169063095ea7b390610a56907f0000000000000000000000000000000000000000000000000000000000000000908a90600401611c4f565b602060405180830381600087803b158015610a7057600080fd5b505af1158015610a84573d6000803e3d6000fd5b505050506040513d601f19601f82011682018060405250810190610aa89190611b79565b5060405163a9059cbb60e01b81526001600160a01b037f0000000000000000000000000000000000000000000000000000000000000000169063a9059cbb90610b17907f0000000000000000000000000000000000000000000000000000000000000000908a90600401611c4f565b602060405180830381600087803b158015610b3157600080fd5b505af1158015610b45573d6000803e3d6000fd5b505050506040513d601f19601f82011682018060405250810190610b699190611b79565b50336001600160a01b03167fa155d4cdc6e4c7c708da428e6dba018e815bce0e0e83e85449df7e3624878b2e85604051610ba39190611e5f565b60405180910390a2505050505050565b60045481565b610bc16119c2565b6001600160a01b0316610bd2610dd0565b6001600160a01b031614610bf85760405162461bcd60e51b815260040161051c90611d8e565b600755565b610c056119c2565b6001600160a01b0316610c16610dd0565b6001600160a01b031614610c3c5760405162461bcd60e51b815260040161051c90611d8e565b600a54811115610c5e5760405162461bcd60e51b815260040161051c90611ce8565b80600a6000828254610c709190611ede565b9091555050604051632770a7eb60e21b81526001600160a01b037f00000000000000000000000000000000000000000000000000000000000000001690639dc29fac90610cc39030908590600401611c4f565b600060405180830381600087803b158015610cdd57600080fd5b505af1158015610cf1573d6000803e3d6000fd5b505050507f7568545e75cb68986e78991cac3656d7bb442a0d4663773b1ba756564cd90ef48160405161067d9190611e5f565b610d2c6119c2565b6001600160a01b0316610d3d610dd0565b6001600160a01b031614610d635760405162461bcd60e51b815260040161051c90611d8e565b610d6d60006119c6565b565b7f000000000000000000000000000000000000000000000000000000000000000081565b60015481565b336000908152600260208190526040909120805460018201549282015460039092015460ff90911693565b670de0b6b3a764000081565b6000546001600160a01b031690565b60085460ff1681565b7f000000000000000000000000000000000000000000000000000000000000000081565b3360009081526002602052604081205460ff1615610e3c5760405162461bcd60e51b815260040161051c90611cb1565b600354821015610e5e5760405162461bcd60e51b815260040161051c90611e31565b600854600090610e719060ff1684611ebf565b6040805160808101825260018082524260208084019182526000848601818152606086018881523383526002938490529682209551865460ff19169015151786559251858501559151908401559251600390920191909155600980549394509092909190610ee0908490611e87565b90915550506040516323b872dd60e01b81526001600160a01b037f000000000000000000000000000000000000000000000000000000000000000016906323b872dd90610f3590339030908890600401611c2b565b602060405180830381600087803b158015610f4f57600080fd5b505af1158015610f63573d6000803e3d6000fd5b505050506040513d601f19601f82011682018060405250810190610f879190611b79565b5060405163095ea7b360e01b81526001600160a01b037f0000000000000000000000000000000000000000000000000000000000000000169063095ea7b390610ff6907f0000000000000000000000000000000000000000000000000000000000000000908790600401611c4f565b602060405180830381600087803b15801561101057600080fd5b505af1158015611024573d6000803e3d6000fd5b505050506040513d601f19601f820116820180604052508101906110489190611b79565b5060405163a9059cbb60e01b81526001600160a01b037f0000000000000000000000000000000000000000000000000000000000000000169063a9059cbb906110b7907f0000000000000000000000000000000000000000000000000000000000000000908790600401611c4f565b602060405180830381600087803b1580156110d157600080fd5b505af11580156110e5573d6000803e3d6000fd5b505050506040513d601f19601f820116820180604052508101906111099190611b79565b5060405133907f2e49a5810fda2439a23771848b4acec786b0a64d4de3d124ac57fc8739c3887590600090a250600192915050565b336000908152600260208181526040928390208351608081018552815460ff161515808252600180840154948301949094529382015494810194909452600301546060840152146111a15760405162461bcd60e51b815260040161051c90611d57565b60008160200151426111b39190611ede565b905060006301e1338063ffffffff16600154836111d09190611ebf565b6111da9190611e9f565b905060008360400151670de0b6b3a76400008386606001516111fc9190611ebf565b6112069190611e9f565b6112109190611e87565b905061121b81611555565b6000670de0b6b3a764000060055486606001516112389190611ebf565b6112429190611e9f565b60008087524260208089019182526040808a0184815260608b018581523386526002938490529185208b51815460ff191690151517815593516001850155519183019190915551600390910155600a805492935083929091906112a6908490611e87565b925050819055506001600960008282546112c09190611ede565b90915550506040516340c10f1960e01b81526001600160a01b037f000000000000000000000000000000000000000000000000000000000000000016906340c10f19906113139033908590600401611c4f565b600060405180830381600087803b15801561132d57600080fd5b505af1158015611341573d6000803e3d6000fd5b50506040513392507f1a859cd6d744d14a7aa31ec6d24a7aa146272e8b7ceaca90635e47e01978af929150600090a25050505050565b61137f6119c2565b6001600160a01b0316611390610dd0565b6001600160a01b0316146113b65760405162461bcd60e51b815260040161051c90611d8e565b60048190556040517f7dbdbcc7c98741830150a332948181ff0cf7908ca02b83f66252717d745473109061067d908390611e5f565b60075481565b7f000000000000000000000000000000000000000000000000000000000000000081565b6002602081905260009182526040909120805460018201549282015460039092015460ff90911692919084565b61144a6119c2565b6001600160a01b031661145b610dd0565b6001600160a01b0316146114815760405162461bcd60e51b815260040161051c90611d8e565b60018160ff1610156114a55760405162461bcd60e51b815260040161051c90611dfa565b6008805460ff191660ff83161790556040517f908f1f6b6e87000288304d38e9e1c35d19de25df1bc6e0f1466a2b32145931889061067d908390611e79565b6114ec6119c2565b6001600160a01b03166114fd610dd0565b6001600160a01b0316146115235760405162461bcd60e51b815260040161051c90611d8e565b6001600160a01b0381166115495760405162461bcd60e51b815260040161051c90611d11565b611552816119c6565b50565b8060008080808061156586611a16565b94509450945094509450848761157b9190611ede565b96506115878288611ede565b96506115938188611ede565b6040516340c10f1960e01b81529097506001600160a01b037f000000000000000000000000000000000000000000000000000000000000000016906340c10f19906115e49030908a90600401611c4f565b600060405180830381600087803b1580156115fe57600080fd5b505af1158015611612573d6000803e3d6000fd5b5050604051632770a7eb60e21b81526001600160a01b037f0000000000000000000000000000000000000000000000000000000000000000169250639dc29fac91506116649030908990600401611c4f565b600060405180830381600087803b15801561167e57600080fd5b505af1158015611692573d6000803e3d6000fd5b505060405163095ea7b360e01b81526001600160a01b037f000000000000000000000000000000000000000000000000000000000000000016925063095ea7b39150611704907f0000000000000000000000000000000000000000000000000000000000000000908690600401611c4f565b602060405180830381600087803b15801561171e57600080fd5b505af1158015611732573d6000803e3d6000fd5b505050506040513d601f19601f820116820180604052508101906117569190611b79565b5060405163b6b55f2560e01b81526001600160a01b037f0000000000000000000000000000000000000000000000000000000000000000169063b6b55f25906117a3908590600401611e5f565b600060405180830381600087803b1580156117bd57600080fd5b505af11580156117d1573d6000803e3d6000fd5b505060405163a9059cbb60e01b81526001600160a01b037f000000000000000000000000000000000000000000000000000000000000000016925063a9059cbb9150611843907f0000000000000000000000000000000000000000000000000000000000000000908590600401611c4f565b602060405180830381600087803b15801561185d57600080fd5b505af1158015611871573d6000803e3d6000fd5b505050506040513d601f19601f820116820180604052508101906118959190611b79565b5060405163a9059cbb60e01b81526001600160a01b037f0000000000000000000000000000000000000000000000000000000000000000169063a9059cbb906118e49033908b90600401611c4f565b602060405180830381600087803b1580156118fe57600080fd5b505af1158015611912573d6000803e3d6000fd5b505050506040513d601f19601f820116820180604052508101906119369190611b79565b506040516369d10ee760e01b81526001600160a01b037f000000000000000000000000000000000000000000000000000000000000000016906369d10ee79061198790339088908890600401611c68565b600060405180830381600087803b1580156119a157600080fd5b505af11580156119b5573d6000803e3d6000fd5b5050505050505050505050565b3390565b600080546001600160a01b038381166001600160a01b0319831681178455604051919092169283917f8be0079c531659141344cd1fd0a4f28419497f9722a3daafe3b4186f6b6457e09190a35050565b6000806000806000611a2a8660045461048d565b9450611acc867f00000000000000000000000000000000000000000000000000000000000000006001600160a01b031663df108d376040518163ffffffff1660e01b815260040160206040518083038186803b158015611a8957600080fd5b505afa158015611a9d573d6000803e3d6000fd5b505050506040513d601f19601f82011682018060405250810190611ac19190611bd2565b63ffffffff1661048d565b9350611b2b867f00000000000000000000000000000000000000000000000000000000000000006001600160a01b03166316d6b4b66040518163ffffffff1660e01b815260040160206040518083038186803b158015611a8957600080fd5b9250611b398660065461048d565b9150611b478660075461048d565b905091939590929450565b600060208284031215611b63578081fd5b81356001600160a01b03811681146104ac578182fd5b600060208284031215611b8a578081fd5b815180151581146104ac578182fd5b600060208284031215611baa578081fd5b5035919050565b60008060408385031215611bc3578081fd5b50508035926020909101359150565b600060208284031215611be3578081fd5b815163ffffffff811681146104ac578182fd5b600060208284031215611c07578081fd5b813560ff811681146104ac578182fd5b6001600160a01b0391909116815260200190565b6001600160a01b039384168152919092166020820152604081019190915260600190565b6001600160a01b03929092168252602082015260400190565b6001600160a01b039390931683526020830191909152604082015260600190565b901515815260200190565b931515845260208401929092526040830152606082015260800190565b60208082526019908201527f5573657220616c7265616479206861732061205661756c742e00000000000000604082015260600190565b6020808252600f908201526e20b6b7bab73a103a37b7903134b39760891b604082015260600190565b60208082526026908201527f4f776e61626c653a206e6577206f776e657220697320746865207a65726f206160408201526564647265737360d01b606082015260800190565b60208082526017908201527f596f7520646f6e277420686176652061207661756c742e000000000000000000604082015260600190565b6020808252818101527f4f776e61626c653a2063616c6c6572206973206e6f7420746865206f776e6572604082015260600190565b6020808252601a908201527f546f206561726c7920746f20636c61696d20726577617264732e000000000000604082015260600190565b6020808252601b908201527f4e6574776f726b20426f6f73742063616e2774206265203c20312e0000000000604082015260600190565b60208082526014908201527320b6b7bab73a1034b9903a37b79039b6b0b6361760611b604082015260600190565b90815260200190565b63ffffffff91909116815260200190565b60ff91909116815260200190565b60008219821115611e9a57611e9a611ef5565b500190565b600082611eba57634e487b7160e01b81526012600452602481fd5b500490565b6000816000190483118215151615611ed957611ed9611ef5565b500290565b600082821015611ef057611ef0611ef5565b500390565b634e487b7160e01b600052601160045260246000fdfea2646970667358221220e369ac78531b93bfa69efa4248b95794cb47dd5c2dbec42178877036460e59d464736f6c63430008000033",
  "linkReferences": {},
  "deployedLinkReferences": {}
}