{
  "abi": [
    {
      "inputs": [
        {
          "internalType": "string",
          "name": "_name",
          "type": "string"
        },
        {
          "internalType": "string",
          "name": "_symbol",
          "type": "string"
        },
        {
          "internalType": "uint8",
          "name": "_decimals",
          "type": "uint8"
        }
      ],
      "stateMutability": "nonpayable",
      "type": "constructor"
    },
    {
      "anonymous": false,
      "inputs": [
        {
          "indexed": true,
          "internalType": "address",
          "name": "owner",
          "type": "address"
        },
        {
          "indexed": true,
          "internalType": "address",
          "name": "spender",
          "type": "address"
        },
        {
          "indexed": false,
          "internalType": "uint256",
          "name": "amount",
          "type": "uint256"
        }
      ],
      "name": "Approval",
      "type": "event"
    },
    {
      "anonymous": false,
      "inputs": [
        {
          "indexed": true,
          "internalType": "address",
          "name": "previousOwner",
          "type": "address"
        },
        {
          "indexed": true,
          "internalType": "address",
          "name": "newOwner",
          "type": "address"
        }
      ],
      "name": "OwnershipTransferred",
      "type": "event"
    },
    {
      "anonymous": false,
      "inputs": [
        {
          "indexed": true,
          "internalType": "address",
          "name": "from",
          "type": "address"
        },
        {
          "indexed": true,
          "internalType": "address",
          "name": "to",
          "type": "address"
        },
        {
          "indexed": false,
          "internalType": "uint256",
          "name": "amount",
          "type": "uint256"
        }
      ],
      "name": "Transfer",
      "type": "event"
    },
    {
      "anonymous": false,
      "inputs": [
        {
          "indexed": true,
          "internalType": "address",
          "name": "user",
          "type": "address"
        },
        {
          "indexed": false,
          "internalType": "bool",
          "name": "value",
          "type": "bool"
        }
      ],
      "name": "managerSet",
      "type": "event"
    },
    {
      "inputs": [],
      "name": "DOMAIN_SEPARATOR",
      "outputs": [
        {
          "internalType": "bytes32",
          "name": "",
          "type": "bytes32"
        }
      ],
      "stateMutability": "view",
      "type": "function"
    },
    {
      "inputs": [],
      "name": "PERMIT_TYPEHASH",
      "outputs": [
        {
          "internalType": "bytes32",
          "name": "",
          "type": "bytes32"
        }
      ],
      "stateMutability": "view",
      "type": "function"
    },
    {
      "inputs": [
        {
          "internalType": "address",
          "name": "",
          "type": "address"
        },
        {
          "internalType": "address",
          "name": "",
          "type": "address"
        }
      ],
      "name": "allowance",
      "outputs": [
        {
          "internalType": "uint256",
          "name": "",
          "type": "uint256"
        }
      ],
      "stateMutability": "view",
      "type": "function"
    },
    {
      "inputs": [
        {
          "internalType": "address",
          "name": "spender",
          "type": "address"
        },
        {
          "internalType": "uint256",
          "name": "amount",
          "type": "uint256"
        }
      ],
      "name": "approve",
      "outputs": [
        {
          "internalType": "bool",
          "name": "",
          "type": "bool"
        }
      ],
      "stateMutability": "nonpayable",
      "type": "function"
    },
    {
      "inputs": [
        {
          "internalType": "address",
          "name": "",
          "type": "address"
        }
      ],
      "name": "balanceOf",
      "outputs": [
        {
          "internalType": "uint256",
          "name": "",
          "type": "uint256"
        }
      ],
      "stateMutability": "view",
      "type": "function"
    },
    {
      "inputs": [
        {
          "internalType": "address",
          "name": "from",
          "type": "address"
        },
        {
          "internalType": "uint256",
          "name": "value",
          "type": "uint256"
        }
      ],
      "name": "burn",
      "outputs": [],
      "stateMutability": "nonpayable",
      "type": "function"
    },
    {
      "inputs": [],
      "name": "decimals",
      "outputs": [
        {
          "internalType": "uint8",
          "name": "",
          "type": "uint8"
        }
      ],
      "stateMutability": "view",
      "type": "function"
    },
    {
      "inputs": [
        {
          "internalType": "address",
          "name": "",
          "type": "address"
        }
      ],
      "name": "managers",
      "outputs": [
        {
          "internalType": "bool",
          "name": "",
          "type": "bool"
        }
      ],
      "stateMutability": "view",
      "type": "function"
    },
    {
      "inputs": [
        {
          "internalType": "address",
          "name": "to",
          "type": "address"
        },
        {
          "internalType": "uint256",
          "name": "value",
          "type": "uint256"
        }
      ],
      "name": "mint",
      "outputs": [],
      "stateMutability": "nonpayable",
      "type": "function"
    },
    {
      "inputs": [],
      "name": "name",
      "outputs": [
        {
          "internalType": "string",
          "name": "",
          "type": "string"
        }
      ],
      "stateMutability": "view",
      "type": "function"
    },
    {
      "inputs": [
        {
          "internalType": "address",
          "name": "",
          "type": "address"
        }
      ],
      "name": "nonces",
      "outputs": [
        {
          "internalType": "uint256",
          "name": "",
          "type": "uint256"
        }
      ],
      "stateMutability": "view",
      "type": "function"
    },
    {
      "inputs": [],
      "name": "owner",
      "outputs": [
        {
          "internalType": "address",
          "name": "",
          "type": "address"
        }
      ],
      "stateMutability": "view",
      "type": "function"
    },
    {
      "inputs": [
        {
          "internalType": "address",
          "name": "owner",
          "type": "address"
        },
        {
          "internalType": "address",
          "name": "spender",
          "type": "address"
        },
        {
          "internalType": "uint256",
          "name": "value",
          "type": "uint256"
        },
        {
          "internalType": "uint256",
          "name": "deadline",
          "type": "uint256"
        },
        {
          "internalType": "uint8",
          "name": "v",
          "type": "uint8"
        },
        {
          "internalType": "bytes32",
          "name": "r",
          "type": "bytes32"
        },
        {
          "internalType": "bytes32",
          "name": "s",
          "type": "bytes32"
        }
      ],
      "name": "permit",
      "outputs": [],
      "stateMutability": "nonpayable",
      "type": "function"
    },
    {
      "inputs": [],
      "name": "renounceOwnership",
      "outputs": [],
      "stateMutability": "nonpayable",
      "type": "function"
    },
    {
      "inputs": [
        {
          "internalType": "address",
          "name": "user",
          "type": "address"
        },
        {
          "internalType": "bool",
          "name": "value",
          "type": "bool"
        }
      ],
      "name": "setManager",
      "outputs": [],
      "stateMutability": "nonpayable",
      "type": "function"
    },
    {
      "inputs": [],
      "name": "symbol",
      "outputs": [
        {
          "internalType": "string",
          "name": "",
          "type": "string"
        }
      ],
      "stateMutability": "view",
      "type": "function"
    },
    {
      "inputs": [],
      "name": "totalSupply",
      "outputs": [
        {
          "internalType": "uint256",
          "name": "",
          "type": "uint256"
        }
      ],
      "stateMutability": "view",
      "type": "function"
    },
    {
      "inputs": [
        {
          "internalType": "address",
          "name": "to",
          "type": "address"
        },
        {
          "internalType": "uint256",
          "name": "amount",
          "type": "uint256"
        }
      ],
      "name": "transfer",
      "outputs": [
        {
          "internalType": "bool",
          "name": "",
          "type": "bool"
        }
      ],
      "stateMutability": "nonpayable",
      "type": "function"
    },
    {
      "inputs": [
        {
          "internalType": "address",
          "name": "from",
          "type": "address"
        },
        {
          "internalType": "address",
          "name": "to",
          "type": "address"
        },
        {
          "internalType": "uint256",
          "name": "amount",
          "type": "uint256"
        }
      ],
      "name": "transferFrom",
      "outputs": [
        {
          "internalType": "bool",
          "name": "",
          "type": "bool"
        }
      ],
      "stateMutability": "nonpayable",
      "type": "function"
    },
    {
      "inputs": [
        {
          "internalType": "address",
          "name": "newOwner",
          "type": "address"
        }
      ],
      "name": "transferOwnership",
      "outputs": [],
      "stateMutability": "nonpayable",
      "type": "function"
    }
  ],
  "bytecode": {
    "object": "0x60e06040523480156200001157600080fd5b50604051620013c6380380620013c6833981016040819052620000349162000312565b82828282600090805190602001906200004f9291906200019f565b508151620000659060019060208501906200019f565b5060ff81166080524660a0526200007b620000b1565b60c052506200008e91503390506200014d565b5050336000908152600760205260409020805460ff191660011790555062000478565b60007f8b73c3c69bb8fe3d512ecc4cf759cc79239f7b179b0ffacaa9a75d522b39400f6000604051620000e59190620003d4565b6040805191829003822060208301939093528101919091527fc89efdaa54c0f20c7adf612882df0950f5a951637e0307cdcb4c672f298b8bc660608201524660808201523060a082015260c00160405160208183030381529060405280519060200120905090565b600680546001600160a01b038381166001600160a01b0319831681179093556040519116919082907f8be0079c531659141344cd1fd0a4f28419497f9722a3daafe3b4186f6b6457e090600090a35050565b828054620001ad9062000397565b90600052602060002090601f016020900481019282620001d157600085556200021c565b82601f10620001ec57805160ff19168380011785556200021c565b828001600101855582156200021c579182015b828111156200021c578251825591602001919060010190620001ff565b506200022a9291506200022e565b5090565b5b808211156200022a57600081556001016200022f565b634e487b7160e01b600052604160045260246000fd5b600082601f8301126200026d57600080fd5b81516001600160401b03808211156200028a576200028a62000245565b604051601f8301601f19908116603f01168101908282118183101715620002b557620002b562000245565b81604052838152602092508683858801011115620002d257600080fd5b600091505b83821015620002f65785820183015181830184015290820190620002d7565b83821115620003085760008385830101525b9695505050505050565b6000806000606084860312156200032857600080fd5b83516001600160401b03808211156200034057600080fd5b6200034e878388016200025b565b945060208601519150808211156200036557600080fd5b5062000374868287016200025b565b925050604084015160ff811681146200038c57600080fd5b809150509250925092565b600181811c90821680620003ac57607f821691505b60208210811415620003ce57634e487b7160e01b600052602260045260246000fd5b50919050565b600080835481600182811c915080831680620003f157607f831692505b60208084108214156200041257634e487b7160e01b86526022600452602486fd5b8180156200042957600181146200043b576200046a565b60ff198616895284890196506200046a565b60008a81526020902060005b86811015620004625781548b82015290850190830162000447565b505084890196505b509498975050505050505050565b60805160a05160c051610f1e620004a860003960006105440152600061050f015260006101c80152610f1e6000f3fe608060405234801561001057600080fd5b506004361061012c5760003560e01c80637ecebe00116100ad578063a9059cbb11610071578063a9059cbb146102aa578063d505accf146102bd578063dd62ed3e146102d0578063f2fde38b146102fb578063fdff9b4d1461030e57600080fd5b80637ecebe00146102415780638da5cb5b1461026157806395d89b411461027c5780639dc29fac14610284578063a5e90eee1461029757600080fd5b8063313ce567116100f4578063313ce567146101c35780633644e515146101fc57806340c10f191461020457806370a0823114610219578063715018a61461023957600080fd5b806306fdde0314610131578063095ea7b31461014f57806318160ddd1461017257806323b872dd1461018957806330adf81f1461019c575b600080fd5b610139610331565b6040516101469190610b9c565b60405180910390f35b61016261015d366004610c0d565b6103bf565b6040519015158152602001610146565b61017b60025481565b604051908152602001610146565b610162610197366004610c37565b61042b565b61017b7f6e71edae12b1b97f4d1f60370fef10105fa2faae0126114a169c64845d6126c981565b6101ea7f000000000000000000000000000000000000000000000000000000000000000081565b60405160ff9091168152602001610146565b61017b61050b565b610217610212366004610c0d565b610566565b005b61017b610227366004610c73565b60036020526000908152604090205481565b6102176105cc565b61017b61024f366004610c73565b60056020526000908152604090205481565b6006546040516001600160a01b039091168152602001610146565b610139610602565b610217610292366004610c0d565b61060f565b6102176102a5366004610c95565b610619565b6101626102b8366004610c0d565b6106a2565b6102176102cb366004610cd1565b610708565b61017b6102de366004610d44565b600460209081526000928352604080842090915290825290205481565b610217610309366004610c73565b610959565b61016261031c366004610c73565b60076020526000908152604090205460ff1681565b6000805461033e90610d77565b80601f016020809104026020016040519081016040528092919081815260200182805461036a90610d77565b80156103b75780601f1061038c576101008083540402835291602001916103b7565b820191906000526020600020905b81548152906001019060200180831161039a57829003601f168201915b505050505081565b3360008181526004602090815260408083206001600160a01b038716808552925280832085905551919290917f8c5be1e5ebec7d5bd14f71427d1e84f3dd0314c0f7b2291e5b200ac8c7c3b9259061041a9086815260200190565b60405180910390a350600192915050565b6001600160a01b03831660009081526004602090815260408083203384529091528120546000198114610487576104628382610dc8565b6001600160a01b03861660009081526004602090815260408083203384529091529020555b6001600160a01b038516600090815260036020526040812080548592906104af908490610dc8565b90915550506001600160a01b0380851660008181526003602052604090819020805487019055519091871690600080516020610ec9833981519152906104f89087815260200190565b60405180910390a3506001949350505050565b60007f000000000000000000000000000000000000000000000000000000000000000046146105415761053c6109f4565b905090565b507f000000000000000000000000000000000000000000000000000000000000000090565b3360009081526007602052604090205460ff1615156001146105be5760405162461bcd60e51b815260206004820152600c60248201526b2737ba1036b0b730b3b2b91760a11b60448201526064015b60405180910390fd5b6105c88282610a8e565b5050565b6006546001600160a01b031633146105f65760405162461bcd60e51b81526004016105b590610ddf565b6106006000610ae8565b565b6001805461033e90610d77565b6105c88282610b3a565b6006546001600160a01b031633146106435760405162461bcd60e51b81526004016105b590610ddf565b6001600160a01b038216600081815260076020908152604091829020805460ff191685151590811790915591519182527f0ca261407eb233022917382bed9759311681dc586450acadd08ecf1816f11320910160405180910390a25050565b336000908152600360205260408120805483919083906106c3908490610dc8565b90915550506001600160a01b03831660008181526003602052604090819020805485019055513390600080516020610ec98339815191529061041a9086815260200190565b428410156107585760405162461bcd60e51b815260206004820152601760248201527f5045524d49545f444541444c494e455f4558504952454400000000000000000060448201526064016105b5565b600061076261050b565b6001600160a01b0389811660008181526005602090815260409182902080546001810190915582517f6e71edae12b1b97f4d1f60370fef10105fa2faae0126114a169c64845d6126c98184015280840194909452938c166060840152608083018b905260a083019390935260c08083018a90528151808403909101815260e08301909152805192019190912061190160f01b6101008301526101028201929092526101228101919091526101420160408051601f198184030181528282528051602091820120600080855291840180845281905260ff88169284019290925260608301869052608083018590529092509060019060a0016020604051602081039080840390855afa15801561087b573d6000803e3d6000fd5b5050604051601f1901519150506001600160a01b038116158015906108b15750886001600160a01b0316816001600160a01b0316145b6108ee5760405162461bcd60e51b815260206004820152600e60248201526d24a72b20a624a22fa9a4a3a722a960911b60448201526064016105b5565b6001600160a01b0390811660009081526004602090815260408083208b8516808552908352928190208a905551898152919350918a16917f8c5be1e5ebec7d5bd14f71427d1e84f3dd0314c0f7b2291e5b200ac8c7c3b925910160405180910390a350505050505050565b6006546001600160a01b031633146109835760405162461bcd60e51b81526004016105b590610ddf565b6001600160a01b0381166109e85760405162461bcd60e51b815260206004820152602660248201527f4f776e61626c653a206e6577206f776e657220697320746865207a65726f206160448201526564647265737360d01b60648201526084016105b5565b6109f181610ae8565b50565b60007f8b73c3c69bb8fe3d512ecc4cf759cc79239f7b179b0ffacaa9a75d522b39400f6000604051610a269190610e14565b6040805191829003822060208301939093528101919091527fc89efdaa54c0f20c7adf612882df0950f5a951637e0307cdcb4c672f298b8bc660608201524660808201523060a082015260c00160405160208183030381529060405280519060200120905090565b8060026000828254610aa09190610eb0565b90915550506001600160a01b038216600081815260036020908152604080832080548601905551848152600080516020610ec983398151915291015b60405180910390a35050565b600680546001600160a01b038381166001600160a01b0319831681179093556040519116919082907f8be0079c531659141344cd1fd0a4f28419497f9722a3daafe3b4186f6b6457e090600090a35050565b6001600160a01b03821660009081526003602052604081208054839290610b62908490610dc8565b90915550506002805482900390556040518181526000906001600160a01b03841690600080516020610ec983398151915290602001610adc565b600060208083528351808285015260005b81811015610bc957858101830151858201604001528201610bad565b81811115610bdb576000604083870101525b50601f01601f1916929092016040019392505050565b80356001600160a01b0381168114610c0857600080fd5b919050565b60008060408385031215610c2057600080fd5b610c2983610bf1565b946020939093013593505050565b600080600060608486031215610c4c57600080fd5b610c5584610bf1565b9250610c6360208501610bf1565b9150604084013590509250925092565b600060208284031215610c8557600080fd5b610c8e82610bf1565b9392505050565b60008060408385031215610ca857600080fd5b610cb183610bf1565b915060208301358015158114610cc657600080fd5b809150509250929050565b600080600080600080600060e0888a031215610cec57600080fd5b610cf588610bf1565b9650610d0360208901610bf1565b95506040880135945060608801359350608088013560ff81168114610d2757600080fd5b9699959850939692959460a0840135945060c09093013592915050565b60008060408385031215610d5757600080fd5b610d6083610bf1565b9150610d6e60208401610bf1565b90509250929050565b600181811c90821680610d8b57607f821691505b60208210811415610dac57634e487b7160e01b600052602260045260246000fd5b50919050565b634e487b7160e01b600052601160045260246000fd5b600082821015610dda57610dda610db2565b500390565b6020808252818101527f4f776e61626c653a2063616c6c6572206973206e6f7420746865206f776e6572604082015260600190565b600080835481600182811c915080831680610e3057607f831692505b6020808410821415610e5057634e487b7160e01b86526022600452602486fd5b818015610e645760018114610e7557610ea2565b60ff19861689528489019650610ea2565b60008a81526020902060005b86811015610e9a5781548b820152908501908301610e81565b505084890196505b509498975050505050505050565b60008219821115610ec357610ec3610db2565b50019056feddf252ad1be2c89b69c2b068fc378daa952ba7f163c4a11628f55a4df523b3efa2646970667358221220539fae6e4196c8e1911df849cf65b65ee309aa9bf0cdb5c2e78a5b4f1eb36f7b64736f6c634300080b0033",
    "linkReferences": {}
  }
}