{
  "_format": "hh-sol-artifact-1",
  "contractName": "gSGX",
  "sourceName": "contracts/gSGX.sol",
  "abi": [
    {
      "inputs": [
        {
          "internalType": "address",
          "name": "_sgx",
          "type": "address"
        }
      ],
      "stateMutability": "nonpayable",
      "type": "constructor"
    },
    {
      "anonymous": false,
      "inputs": [
        {
          "indexed": true,
          "internalType": "address",
          "name": "owner",
          "type": "address"
        },
        {
          "indexed": true,
          "internalType": "address",
          "name": "spender",
          "type": "address"
        },
        {
          "indexed": false,
          "internalType": "uint256",
          "name": "amount",
          "type": "uint256"
        }
      ],
      "name": "Approval",
      "type": "event"
    },
    {
      "anonymous": false,
      "inputs": [
        {
          "indexed": true,
          "internalType": "address",
          "name": "user",
          "type": "address"
        },
        {
          "indexed": false,
          "internalType": "uint256",
          "name": "amount",
          "type": "uint256"
        }
      ],
      "name": "Deposit",
      "type": "event"
    },
    {
      "anonymous": false,
      "inputs": [
        {
          "indexed": true,
          "internalType": "address",
          "name": "previousOwner",
          "type": "address"
        },
        {
          "indexed": true,
          "internalType": "address",
          "name": "newOwner",
          "type": "address"
        }
      ],
      "name": "OwnershipTransferred",
      "type": "event"
    },
    {
      "anonymous": false,
      "inputs": [
        {
          "indexed": true,
          "internalType": "address",
          "name": "from",
          "type": "address"
        },
        {
          "indexed": true,
          "internalType": "address",
          "name": "to",
          "type": "address"
        },
        {
          "indexed": false,
          "internalType": "uint256",
          "name": "amount",
          "type": "uint256"
        }
      ],
      "name": "Transfer",
      "type": "event"
    },
    {
      "anonymous": false,
      "inputs": [
        {
          "indexed": true,
          "internalType": "address",
          "name": "user",
          "type": "address"
        },
        {
          "indexed": false,
          "internalType": "uint256",
          "name": "amount",
          "type": "uint256"
        },
        {
          "indexed": false,
          "internalType": "uint256",
          "name": "share",
          "type": "uint256"
        }
      ],
      "name": "Withdraw",
      "type": "event"
    },
    {
      "anonymous": false,
      "inputs": [
        {
          "indexed": false,
          "internalType": "uint256",
          "name": "newPenalty",
          "type": "uint256"
        }
      ],
      "name": "penaltySet",
      "type": "event"
    },
    {
      "anonymous": false,
      "inputs": [
        {
          "indexed": false,
          "internalType": "uint256",
          "name": "_ceil",
          "type": "uint256"
        }
      ],
      "name": "withdrawCeilSet",
      "type": "event"
    },
    {
      "inputs": [],
      "name": "BASE_VALUE",
      "outputs": [
        {
          "internalType": "uint256",
          "name": "",
          "type": "uint256"
        }
      ],
      "stateMutability": "view",
      "type": "function"
    },
    {
      "inputs": [],
      "name": "DOMAIN_SEPARATOR",
      "outputs": [
        {
          "internalType": "bytes32",
          "name": "",
          "type": "bytes32"
        }
      ],
      "stateMutability": "view",
      "type": "function"
    },
    {
      "inputs": [],
      "name": "MAX_PENALTY",
      "outputs": [
        {
          "internalType": "uint256",
          "name": "",
          "type": "uint256"
        }
      ],
      "stateMutability": "view",
      "type": "function"
    },
    {
      "inputs": [],
      "name": "PERMIT_TYPEHASH",
      "outputs": [
        {
          "internalType": "bytes32",
          "name": "",
          "type": "bytes32"
        }
      ],
      "stateMutability": "view",
      "type": "function"
    },
    {
      "inputs": [],
      "name": "SGX",
      "outputs": [
        {
          "internalType": "contract IERC20",
          "name": "",
          "type": "address"
        }
      ],
      "stateMutability": "view",
      "type": "function"
    },
    {
      "inputs": [
        {
          "internalType": "address",
          "name": "",
          "type": "address"
        },
        {
          "internalType": "address",
          "name": "",
          "type": "address"
        }
      ],
      "name": "allowance",
      "outputs": [
        {
          "internalType": "uint256",
          "name": "",
          "type": "uint256"
        }
      ],
      "stateMutability": "view",
      "type": "function"
    },
    {
      "inputs": [
        {
          "internalType": "address",
          "name": "spender",
          "type": "address"
        },
        {
          "internalType": "uint256",
          "name": "amount",
          "type": "uint256"
        }
      ],
      "name": "approve",
      "outputs": [
        {
          "internalType": "bool",
          "name": "",
          "type": "bool"
        }
      ],
      "stateMutability": "nonpayable",
      "type": "function"
    },
    {
      "inputs": [
        {
          "internalType": "address",
          "name": "",
          "type": "address"
        }
      ],
      "name": "balanceOf",
      "outputs": [
        {
          "internalType": "uint256",
          "name": "",
          "type": "uint256"
        }
      ],
      "stateMutability": "view",
      "type": "function"
    },
    {
      "inputs": [],
      "name": "decimals",
      "outputs": [
        {
          "internalType": "uint8",
          "name": "",
          "type": "uint8"
        }
      ],
      "stateMutability": "view",
      "type": "function"
    },
    {
      "inputs": [
        {
          "internalType": "uint256",
          "name": "_amount",
          "type": "uint256"
        }
      ],
      "name": "deposit",
      "outputs": [],
      "stateMutability": "nonpayable",
      "type": "function"
    },
    {
      "inputs": [],
      "name": "name",
      "outputs": [
        {
          "internalType": "string",
          "name": "",
          "type": "string"
        }
      ],
      "stateMutability": "view",
      "type": "function"
    },
    {
      "inputs": [
        {
          "internalType": "address",
          "name": "",
          "type": "address"
        }
      ],
      "name": "nonces",
      "outputs": [
        {
          "internalType": "uint256",
          "name": "",
          "type": "uint256"
        }
      ],
      "stateMutability": "view",
      "type": "function"
    },
    {
      "inputs": [],
      "name": "owner",
      "outputs": [
        {
          "internalType": "address",
          "name": "",
          "type": "address"
        }
      ],
      "stateMutability": "view",
      "type": "function"
    },
    {
      "inputs": [],
      "name": "penalty",
      "outputs": [
        {
          "internalType": "uint256",
          "name": "",
          "type": "uint256"
        }
      ],
      "stateMutability": "view",
      "type": "function"
    },
    {
      "inputs": [
        {
          "internalType": "address",
          "name": "owner",
          "type": "address"
        },
        {
          "internalType": "address",
          "name": "spender",
          "type": "address"
        },
        {
          "internalType": "uint256",
          "name": "value",
          "type": "uint256"
        },
        {
          "internalType": "uint256",
          "name": "deadline",
          "type": "uint256"
        },
        {
          "internalType": "uint8",
          "name": "v",
          "type": "uint8"
        },
        {
          "internalType": "bytes32",
          "name": "r",
          "type": "bytes32"
        },
        {
          "internalType": "bytes32",
          "name": "s",
          "type": "bytes32"
        }
      ],
      "name": "permit",
      "outputs": [],
      "stateMutability": "nonpayable",
      "type": "function"
    },
    {
      "inputs": [],
      "name": "renounceOwnership",
      "outputs": [],
      "stateMutability": "nonpayable",
      "type": "function"
    },
    {
      "inputs": [
        {
          "internalType": "uint256",
          "name": "_penalty",
          "type": "uint256"
        }
      ],
      "name": "setPenalty",
      "outputs": [],
      "stateMutability": "nonpayable",
      "type": "function"
    },
    {
      "inputs": [
        {
          "internalType": "uint256",
          "name": "_ceil",
          "type": "uint256"
        }
      ],
      "name": "setWithdrawCeil",
      "outputs": [],
      "stateMutability": "nonpayable",
      "type": "function"
    },
    {
      "inputs": [],
      "name": "sgxBalance",
      "outputs": [
        {
          "internalType": "uint256",
          "name": "",
          "type": "uint256"
        }
      ],
      "stateMutability": "view",
      "type": "function"
    },
    {
      "inputs": [],
      "name": "symbol",
      "outputs": [
        {
          "internalType": "string",
          "name": "",
          "type": "string"
        }
      ],
      "stateMutability": "view",
      "type": "function"
    },
    {
      "inputs": [],
      "name": "totalSupply",
      "outputs": [
        {
          "internalType": "uint256",
          "name": "",
          "type": "uint256"
        }
      ],
      "stateMutability": "view",
      "type": "function"
    },
    {
      "inputs": [
        {
          "internalType": "address",
          "name": "to",
          "type": "address"
        },
        {
          "internalType": "uint256",
          "name": "amount",
          "type": "uint256"
        }
      ],
      "name": "transfer",
      "outputs": [
        {
          "internalType": "bool",
          "name": "",
          "type": "bool"
        }
      ],
      "stateMutability": "nonpayable",
      "type": "function"
    },
    {
      "inputs": [
        {
          "internalType": "address",
          "name": "from",
          "type": "address"
        },
        {
          "internalType": "address",
          "name": "to",
          "type": "address"
        },
        {
          "internalType": "uint256",
          "name": "amount",
          "type": "uint256"
        }
      ],
      "name": "transferFrom",
      "outputs": [
        {
          "internalType": "bool",
          "name": "",
          "type": "bool"
        }
      ],
      "stateMutability": "nonpayable",
      "type": "function"
    },
    {
      "inputs": [
        {
          "internalType": "address",
          "name": "newOwner",
          "type": "address"
        }
      ],
      "name": "transferOwnership",
      "outputs": [],
      "stateMutability": "nonpayable",
      "type": "function"
    },
    {
      "inputs": [
        {
          "internalType": "uint256",
          "name": "_share",
          "type": "uint256"
        }
      ],
      "name": "withdraw",
      "outputs": [],
      "stateMutability": "nonpayable",
      "type": "function"
    },
    {
      "inputs": [],
      "name": "withdrawCeil",
      "outputs": [
        {
          "internalType": "uint256",
          "name": "",
          "type": "uint256"
        }
      ],
      "stateMutability": "view",
      "type": "function"
    }
  ],
  "bytecode": "0x6101006040523480156200001257600080fd5b506040516200198e3803806200198e833981016040819052620000359162000295565b604080518082018252600e81526d08edeeccae4dcc2dcc6ca40a68eb60931b6020808301918252835180850190945260048452630cea68eb60e31b9084015281519192916012916200008b9160009190620001ef565b508151620000a1906001906020850190620001ef565b507fff0000000000000000000000000000000000000000000000000000000000000060f882901b166080524660a052620000da6200010c565b60c05250620000f69150620000f0905062000199565b6200019d565b60601b6001600160601b03191660e052620003df565b60007f8b73c3c69bb8fe3d512ecc4cf759cc79239f7b179b0ffacaa9a75d522b39400f6000604051620001409190620002c5565b6040519081900381206200017e92917fc89efdaa54c0f20c7adf612882df0950f5a951637e0307cdcb4c672f298b8bc690469030906020016200036a565b60405160208183030381529060405280519060200120905090565b3390565b600680546001600160a01b038381166001600160a01b0319831681179093556040519116919082907f8be0079c531659141344cd1fd0a4f28419497f9722a3daafe3b4186f6b6457e090600090a35050565b828054620001fd90620003a2565b90600052602060002090601f0160209004810192826200022157600085556200026c565b82601f106200023c57805160ff19168380011785556200026c565b828001600101855582156200026c579182015b828111156200026c5782518255916020019190600101906200024f565b506200027a9291506200027e565b5090565b5b808211156200027a57600081556001016200027f565b600060208284031215620002a7578081fd5b81516001600160a01b0381168114620002be578182fd5b9392505050565b8154600090819060028104600180831680620002e257607f831692505b60208084108214156200030357634e487b7160e01b87526022600452602487fd5b8180156200031a57600181146200032c576200035c565b60ff198616895284890196506200035c565b620003378a62000396565b885b86811015620003545781548b82015290850190830162000339565b505084890196505b509498975050505050505050565b9485526020850193909352604084019190915260608301526001600160a01b0316608082015260a00190565b60009081526020902090565b600281046001821680620003b757607f821691505b60208210811415620003d957634e487b7160e01b600052602260045260246000fd5b50919050565b60805160f81c60a05160c05160e05160601c61155a62000434600039600081816105d6015281816108f4015281816109970152610a880152600061072b015260006106f7015260006106d1015261155a6000f3fe608060405234801561001057600080fd5b506004361061018e5760003560e01c806370a08231116100de57806399dac89311610097578063c304d10911610071578063c304d109146102f2578063d505accf146102fa578063dd62ed3e1461030d578063f2fde38b146103205761018e565b806399dac893146102c4578063a9059cbb146102cc578063b6b55f25146102df5761018e565b806370a0823114610271578063715018a6146102845780637ecebe001461028c5780638226182d1461029f5780638da5cb5b146102a757806395d89b41146102bc5761018e565b80632e1a7d4d1161014b5780633644e515116101255780633644e5151461023b5780634a4b674a146102435780635dbfc5eb1461025657806369c33e581461025e5761018e565b80632e1a7d4d1461020957806330adf81f1461021e578063313ce567146102265761018e565b806306fdde0314610193578063095ea7b3146101b15780630edd2ffc146101d157806318160ddd146101e657806323b872dd146101ee57806327249f6d14610201575b600080fd5b61019b610333565b6040516101a8919061128b565b60405180910390f35b6101c46101bf366004611079565b6103c1565b6040516101a891906111f9565b6101d961042b565b6040516101a89190611204565b6101d9610431565b6101c46101fc366004610fcd565b610437565b6101d9610515565b61021c6102173660046110c2565b61051b565b005b6101d96106ab565b61022e6106cf565b6040516101a8919061142b565b6101d96106f3565b61021c6102513660046110c2565b610750565b6101d96107f1565b61021c61026c3660046110c2565b6107f7565b6101d961027f366004610f7a565b61086b565b61021c61087d565b6101d961029a366004610f7a565b6108c8565b6101d96108da565b6102af610979565b6040516101a891906111a8565b61019b610988565b6102af610995565b6101c46102da366004611079565b6109b9565b61021c6102ed3660046110c2565b610a1d565b6101d9610b5a565b61021c610308366004611008565b610b60565b6101d961031b366004610f9b565b610d31565b61021c61032e366004610f7a565b610d4e565b60008054610340906114b3565b80601f016020809104026020016040519081016040528092919081815260200182805461036c906114b3565b80156103b95780601f1061038e576101008083540402835291602001916103b9565b820191906000526020600020905b81548152906001019060200180831161039c57829003601f168201915b505050505081565b3360008181526004602090815260408083206001600160a01b038716808552925280832085905551919290917f8c5be1e5ebec7d5bd14f71427d1e84f3dd0314c0f7b2291e5b200ac8c7c3b9259061041a908690611204565b60405180910390a350600192915050565b60075481565b60025481565b6001600160a01b038316600090815260046020908152604080832033845290915281205460001981146104935761046e838261149c565b6001600160a01b03861660009081526004602090815260408083203384529091529020555b6001600160a01b038516600090815260036020526040812080548592906104bb90849061149c565b90915550506001600160a01b038085166000818152600360205260409081902080548701905551909187169060008051602061150583398151915290610502908790611204565b60405180910390a3506001949350505050565b6109c481565b60006105256108da565b600254909150600081610538848661147d565b610542919061145d565b905080600854101561056f5760405162461bcd60e51b8152600401610566906113e6565b60405180910390fd5b8060086000828254610581919061149c565b9091555061059190503385610dbf565b6000612710600754836105a4919061147d565b6105ae919061145d565b905060006105bc828461149c565b60405163a9059cbb60e01b81529091506001600160a01b037f0000000000000000000000000000000000000000000000000000000000000000169063a9059cbb9061060d90339085906004016111e0565b602060405180830381600087803b15801561062757600080fd5b505af115801561063b573d6000803e3d6000fd5b505050506040513d601f19601f8201168201806040525081019061065f91906110a2565b50336001600160a01b03167ff279e6a1f5e320cca91135676d9cb6e44ca8a08c0b88342bcdb1144f6511b568828860405161069b92919061141d565b60405180910390a2505050505050565b7f6e71edae12b1b97f4d1f60370fef10105fa2faae0126114a169c64845d6126c981565b7f000000000000000000000000000000000000000000000000000000000000000081565b60007f0000000000000000000000000000000000000000000000000000000000000000461461072957610724610e2d565b61074b565b7f00000000000000000000000000000000000000000000000000000000000000005b905090565b610758610eb6565b6001600160a01b0316610769610979565b6001600160a01b03161461078f5760405162461bcd60e51b815260040161056690611352565b6109c48111156107b15760405162461bcd60e51b815260040161056690611324565b60078190556040517fd8b866ee70a7f5dc8fd8b54e991f376c84802d5ad7907eecd23a61c56b3f35be906107e6908390611204565b60405180910390a150565b61271081565b6107ff610eb6565b6001600160a01b0316610810610979565b6001600160a01b0316146108365760405162461bcd60e51b815260040161056690611352565b60088190556040517fb713dc49f2b5852fa955fc3c6c80aee1babab153e951bf487012bc8b8f9eb02b906107e6908390611204565b60036020526000908152604090205481565b610885610eb6565b6001600160a01b0316610896610979565b6001600160a01b0316146108bc5760405162461bcd60e51b815260040161056690611352565b6108c66000610eba565b565b60056020526000908152604090205481565b6040516370a0823160e01b81526000906001600160a01b037f000000000000000000000000000000000000000000000000000000000000000016906370a08231906109299030906004016111a8565b60206040518083038186803b15801561094157600080fd5b505afa158015610955573d6000803e3d6000fd5b505050506040513d601f19601f8201168201806040525081019061074b91906110da565b6006546001600160a01b031690565b60018054610340906114b3565b7f000000000000000000000000000000000000000000000000000000000000000081565b336000908152600360205260408120805483919083906109da90849061149c565b90915550506001600160a01b038316600081815260036020526040908190208054850190555133906000805160206115058339815191529061041a908690611204565b6000610a276108da565b600254909150801580610a38575081155b15610a4c57610a473384610f0c565b610a71565b600082610a59838661147d565b610a63919061145d565b9050610a6f3382610f0c565b505b6040516323b872dd60e01b81526001600160a01b037f000000000000000000000000000000000000000000000000000000000000000016906323b872dd90610ac1903390309088906004016111bc565b602060405180830381600087803b158015610adb57600080fd5b505af1158015610aef573d6000803e3d6000fd5b505050506040513d601f19601f82011682018060405250810190610b1391906110a2565b50336001600160a01b03167fe1fffcc4923d04b559f4d29a8bfc6cda04eb5b0d3c460751c2402c5c5cc9109c84604051610b4d9190611204565b60405180910390a2505050565b60085481565b42841015610b805760405162461bcd60e51b8152600401610566906113af565b6000610b8a6106f3565b6001600160a01b0389166000908152600560209081526040918290208054600181019091559151610be7927f6e71edae12b1b97f4d1f60370fef10105fa2faae0126114a169c64845d6126c9928d928d928d9290918d910161120d565b60405160208183030381529060405280519060200120604051602001610c0e92919061118d565b604051602081830303815290604052805190602001209050600060018286868660405160008152602001604052604051610c4b949392919061126d565b6020604051602081039080840390855afa158015610c6d573d6000803e3d6000fd5b5050604051601f1901519150506001600160a01b03811615801590610ca35750886001600160a01b0316816001600160a01b0316145b610cbf5760405162461bcd60e51b815260040161056690611387565b6001600160a01b0390811660009081526004602090815260408083208b85168085529252918290208990559051909250908916907f8c5be1e5ebec7d5bd14f71427d1e84f3dd0314c0f7b2291e5b200ac8c7c3b92590610d20908990611204565b60405180910390a350505050505050565b600460209081526000928352604080842090915290825290205481565b610d56610eb6565b6001600160a01b0316610d67610979565b6001600160a01b031614610d8d5760405162461bcd60e51b815260040161056690611352565b6001600160a01b038116610db35760405162461bcd60e51b8152600401610566906112de565b610dbc81610eba565b50565b6001600160a01b03821660009081526003602052604081208054839290610de790849061149c565b90915550506002805482900390556040516000906001600160a01b0384169060008051602061150583398151915290610e21908590611204565b60405180910390a35050565b60007f8b73c3c69bb8fe3d512ecc4cf759cc79239f7b179b0ffacaa9a75d522b39400f6000604051610e5f91906110f2565b604051908190038120610e9b92917fc89efdaa54c0f20c7adf612882df0950f5a951637e0307cdcb4c672f298b8bc69046903090602001611241565b60405160208183030381529060405280519060200120905090565b3390565b600680546001600160a01b038381166001600160a01b0319831681179093556040519116919082907f8be0079c531659141344cd1fd0a4f28419497f9722a3daafe3b4186f6b6457e090600090a35050565b8060026000828254610f1e9190611445565b90915550506001600160a01b0382166000818152600360205260408082208054850190555160008051602061150583398151915290610e21908590611204565b80356001600160a01b0381168114610f7557600080fd5b919050565b600060208284031215610f8b578081fd5b610f9482610f5e565b9392505050565b60008060408385031215610fad578081fd5b610fb683610f5e565b9150610fc460208401610f5e565b90509250929050565b600080600060608486031215610fe1578081fd5b610fea84610f5e565b9250610ff860208501610f5e565b9150604084013590509250925092565b600080600080600080600060e0888a031215611022578283fd5b61102b88610f5e565b965061103960208901610f5e565b95506040880135945060608801359350608088013560ff8116811461105c578384fd5b9699959850939692959460a0840135945060c09093013592915050565b6000806040838503121561108b578182fd5b61109483610f5e565b946020939093013593505050565b6000602082840312156110b3578081fd5b81518015158114610f94578182fd5b6000602082840312156110d3578081fd5b5035919050565b6000602082840312156110eb578081fd5b5051919050565b815460009081906002810460018083168061110e57607f831692505b602080841082141561112e57634e487b7160e01b87526022600452602487fd5b81801561114257600181146111535761117f565b60ff1986168952848901965061117f565b61115c8a611439565b885b868110156111775781548b82015290850190830161115e565b505084890196505b509498975050505050505050565b61190160f01b81526002810192909252602282015260420190565b6001600160a01b0391909116815260200190565b6001600160a01b039384168152919092166020820152604081019190915260600190565b6001600160a01b03929092168252602082015260400190565b901515815260200190565b90815260200190565b9586526001600160a01b0394851660208701529290931660408501526060840152608083019190915260a082015260c00190565b9485526020850193909352604084019190915260608301526001600160a01b0316608082015260a00190565b93845260ff9290921660208401526040830152606082015260800190565b6000602080835283518082850152825b818110156112b75785810183015185820160400152820161129b565b818111156112c85783604083870101525b50601f01601f1916929092016040019392505050565b60208082526026908201527f4f776e61626c653a206e6577206f776e657220697320746865207a65726f206160408201526564647265737360d01b606082015260800190565b6020808252601490820152733832b730b63a3c9034b9903a37b7903434b3b41760611b604082015260600190565b6020808252818101527f4f776e61626c653a2063616c6c6572206973206e6f7420746865206f776e6572604082015260600190565b6020808252600e908201526d24a72b20a624a22fa9a4a3a722a960911b604082015260600190565b60208082526017908201527f5045524d49545f444541444c494e455f45585049524544000000000000000000604082015260600190565b6020808252601d908201527f416d6f756e742068697474696e67207769746864726177206365696c2e000000604082015260600190565b918252602082015260400190565b60ff91909116815260200190565b60009081526020902090565b60008219821115611458576114586114ee565b500190565b60008261147857634e487b7160e01b81526012600452602481fd5b500490565b6000816000190483118215151615611497576114976114ee565b500290565b6000828210156114ae576114ae6114ee565b500390565b6002810460018216806114c757607f821691505b602082108114156114e857634e487b7160e01b600052602260045260246000fd5b50919050565b634e487b7160e01b600052601160045260246000fdfeddf252ad1be2c89b69c2b068fc378daa952ba7f163c4a11628f55a4df523b3efa26469706673582212204557ca1d5026a95148ce1762b62f1a4a4df9fb88be795ebac571e49b9dc9d32964736f6c63430008000033",
  "linkReferences": {},
  "deployedLinkReferences": {}
}