{
  "_format": "hh-sol-artifact-1",
  "contractName": "Subgenix",
  "sourceName": "contracts/Subgenix.sol",
  "abi": [
    {
      "inputs": [
        {
          "internalType": "string",
          "name": "_name",
          "type": "string"
        },
        {
          "internalType": "string",
          "name": "_symbol",
          "type": "string"
        },
        {
          "internalType": "uint8",
          "name": "_decimals",
          "type": "uint8"
        }
      ],
      "stateMutability": "nonpayable",
      "type": "constructor"
    },
    {
      "anonymous": false,
      "inputs": [
        {
          "indexed": true,
          "internalType": "address",
          "name": "owner",
          "type": "address"
        },
        {
          "indexed": true,
          "internalType": "address",
          "name": "spender",
          "type": "address"
        },
        {
          "indexed": false,
          "internalType": "uint256",
          "name": "amount",
          "type": "uint256"
        }
      ],
      "name": "Approval",
      "type": "event"
    },
    {
      "anonymous": false,
      "inputs": [
        {
          "indexed": true,
          "internalType": "address",
          "name": "previousOwner",
          "type": "address"
        },
        {
          "indexed": true,
          "internalType": "address",
          "name": "newOwner",
          "type": "address"
        }
      ],
      "name": "OwnershipTransferred",
      "type": "event"
    },
    {
      "anonymous": false,
      "inputs": [
        {
          "indexed": true,
          "internalType": "address",
          "name": "from",
          "type": "address"
        },
        {
          "indexed": true,
          "internalType": "address",
          "name": "to",
          "type": "address"
        },
        {
          "indexed": false,
          "internalType": "uint256",
          "name": "amount",
          "type": "uint256"
        }
      ],
      "name": "Transfer",
      "type": "event"
    },
    {
      "anonymous": false,
      "inputs": [
        {
          "indexed": true,
          "internalType": "address",
          "name": "user",
          "type": "address"
        },
        {
          "indexed": false,
          "internalType": "bool",
          "name": "value",
          "type": "bool"
        }
      ],
      "name": "managerSet",
      "type": "event"
    },
    {
      "inputs": [],
      "name": "DOMAIN_SEPARATOR",
      "outputs": [
        {
          "internalType": "bytes32",
          "name": "",
          "type": "bytes32"
        }
      ],
      "stateMutability": "view",
      "type": "function"
    },
    {
      "inputs": [],
      "name": "PERMIT_TYPEHASH",
      "outputs": [
        {
          "internalType": "bytes32",
          "name": "",
          "type": "bytes32"
        }
      ],
      "stateMutability": "view",
      "type": "function"
    },
    {
      "inputs": [
        {
          "internalType": "address",
          "name": "",
          "type": "address"
        },
        {
          "internalType": "address",
          "name": "",
          "type": "address"
        }
      ],
      "name": "allowance",
      "outputs": [
        {
          "internalType": "uint256",
          "name": "",
          "type": "uint256"
        }
      ],
      "stateMutability": "view",
      "type": "function"
    },
    {
      "inputs": [
        {
          "internalType": "address",
          "name": "spender",
          "type": "address"
        },
        {
          "internalType": "uint256",
          "name": "amount",
          "type": "uint256"
        }
      ],
      "name": "approve",
      "outputs": [
        {
          "internalType": "bool",
          "name": "",
          "type": "bool"
        }
      ],
      "stateMutability": "nonpayable",
      "type": "function"
    },
    {
      "inputs": [
        {
          "internalType": "address",
          "name": "",
          "type": "address"
        }
      ],
      "name": "balanceOf",
      "outputs": [
        {
          "internalType": "uint256",
          "name": "",
          "type": "uint256"
        }
      ],
      "stateMutability": "view",
      "type": "function"
    },
    {
      "inputs": [
        {
          "internalType": "address",
          "name": "from",
          "type": "address"
        },
        {
          "internalType": "uint256",
          "name": "value",
          "type": "uint256"
        }
      ],
      "name": "burn",
      "outputs": [],
      "stateMutability": "nonpayable",
      "type": "function"
    },
    {
      "inputs": [],
      "name": "decimals",
      "outputs": [
        {
          "internalType": "uint8",
          "name": "",
          "type": "uint8"
        }
      ],
      "stateMutability": "view",
      "type": "function"
    },
    {
      "inputs": [
        {
          "internalType": "address",
          "name": "",
          "type": "address"
        }
      ],
      "name": "managers",
      "outputs": [
        {
          "internalType": "bool",
          "name": "",
          "type": "bool"
        }
      ],
      "stateMutability": "view",
      "type": "function"
    },
    {
      "inputs": [
        {
          "internalType": "address",
          "name": "to",
          "type": "address"
        },
        {
          "internalType": "uint256",
          "name": "value",
          "type": "uint256"
        }
      ],
      "name": "mint",
      "outputs": [],
      "stateMutability": "nonpayable",
      "type": "function"
    },
    {
      "inputs": [],
      "name": "name",
      "outputs": [
        {
          "internalType": "string",
          "name": "",
          "type": "string"
        }
      ],
      "stateMutability": "view",
      "type": "function"
    },
    {
      "inputs": [
        {
          "internalType": "address",
          "name": "",
          "type": "address"
        }
      ],
      "name": "nonces",
      "outputs": [
        {
          "internalType": "uint256",
          "name": "",
          "type": "uint256"
        }
      ],
      "stateMutability": "view",
      "type": "function"
    },
    {
      "inputs": [],
      "name": "owner",
      "outputs": [
        {
          "internalType": "address",
          "name": "",
          "type": "address"
        }
      ],
      "stateMutability": "view",
      "type": "function"
    },
    {
      "inputs": [
        {
          "internalType": "address",
          "name": "owner",
          "type": "address"
        },
        {
          "internalType": "address",
          "name": "spender",
          "type": "address"
        },
        {
          "internalType": "uint256",
          "name": "value",
          "type": "uint256"
        },
        {
          "internalType": "uint256",
          "name": "deadline",
          "type": "uint256"
        },
        {
          "internalType": "uint8",
          "name": "v",
          "type": "uint8"
        },
        {
          "internalType": "bytes32",
          "name": "r",
          "type": "bytes32"
        },
        {
          "internalType": "bytes32",
          "name": "s",
          "type": "bytes32"
        }
      ],
      "name": "permit",
      "outputs": [],
      "stateMutability": "nonpayable",
      "type": "function"
    },
    {
      "inputs": [],
      "name": "renounceOwnership",
      "outputs": [],
      "stateMutability": "nonpayable",
      "type": "function"
    },
    {
      "inputs": [
        {
          "internalType": "address",
          "name": "user",
          "type": "address"
        },
        {
          "internalType": "bool",
          "name": "value",
          "type": "bool"
        }
      ],
      "name": "setManager",
      "outputs": [],
      "stateMutability": "nonpayable",
      "type": "function"
    },
    {
      "inputs": [],
      "name": "symbol",
      "outputs": [
        {
          "internalType": "string",
          "name": "",
          "type": "string"
        }
      ],
      "stateMutability": "view",
      "type": "function"
    },
    {
      "inputs": [],
      "name": "totalSupply",
      "outputs": [
        {
          "internalType": "uint256",
          "name": "",
          "type": "uint256"
        }
      ],
      "stateMutability": "view",
      "type": "function"
    },
    {
      "inputs": [
        {
          "internalType": "address",
          "name": "to",
          "type": "address"
        },
        {
          "internalType": "uint256",
          "name": "amount",
          "type": "uint256"
        }
      ],
      "name": "transfer",
      "outputs": [
        {
          "internalType": "bool",
          "name": "",
          "type": "bool"
        }
      ],
      "stateMutability": "nonpayable",
      "type": "function"
    },
    {
      "inputs": [
        {
          "internalType": "address",
          "name": "from",
          "type": "address"
        },
        {
          "internalType": "address",
          "name": "to",
          "type": "address"
        },
        {
          "internalType": "uint256",
          "name": "amount",
          "type": "uint256"
        }
      ],
      "name": "transferFrom",
      "outputs": [
        {
          "internalType": "bool",
          "name": "",
          "type": "bool"
        }
      ],
      "stateMutability": "nonpayable",
      "type": "function"
    },
    {
      "inputs": [
        {
          "internalType": "address",
          "name": "newOwner",
          "type": "address"
        }
      ],
      "name": "transferOwnership",
      "outputs": [],
      "stateMutability": "nonpayable",
      "type": "function"
    }
  ],
  "bytecode": "0x60e06040523480156200001157600080fd5b506040516200152a3803806200152a833981016040819052620000349162000311565b82828282600090805190602001906200004f929190620001c0565b50815162000065906001906020850190620001c0565b507fff0000000000000000000000000000000000000000000000000000000000000060f882901b166080524660a0526200009e620000dd565b60c05250620000ba9150620000b490506200016a565b6200016e565b5050336000908152600760205260409020805460ff1916600117905550620004c2565b60007f8b73c3c69bb8fe3d512ecc4cf759cc79239f7b179b0ffacaa9a75d522b39400f600060405162000111919062000392565b6040519081900381206200014f92917fc89efdaa54c0f20c7adf612882df0950f5a951637e0307cdcb4c672f298b8bc6904690309060200162000437565b60405160208183030381529060405280519060200120905090565b3390565b600680546001600160a01b038381166001600160a01b0319831681179093556040519116919082907f8be0079c531659141344cd1fd0a4f28419497f9722a3daafe3b4186f6b6457e090600090a35050565b828054620001ce906200046f565b90600052602060002090601f016020900481019282620001f257600085556200023d565b82601f106200020d57805160ff19168380011785556200023d565b828001600101855582156200023d579182015b828111156200023d57825182559160200191906001019062000220565b506200024b9291506200024f565b5090565b5b808211156200024b576000815560010162000250565b600082601f83011262000277578081fd5b81516001600160401b0380821115620002945762000294620004ac565b6040516020601f8401601f1916820181018381118382101715620002bc57620002bc620004ac565b6040528382528584018101871015620002d3578485fd5b8492505b83831015620002f65785830181015182840182015291820191620002d7565b838311156200030757848185840101525b5095945050505050565b60008060006060848603121562000326578283fd5b83516001600160401b03808211156200033d578485fd5b6200034b8783880162000266565b9450602086015191508082111562000361578384fd5b50620003708682870162000266565b925050604084015160ff8116811462000387578182fd5b809150509250925092565b8154600090819060028104600180831680620003af57607f831692505b6020808410821415620003d057634e487b7160e01b87526022600452602487fd5b818015620003e75760018114620003f95762000429565b60ff1986168952848901965062000429565b620004048a62000463565b885b86811015620004215781548b82015290850190830162000406565b505084890196505b509498975050505050505050565b9485526020850193909352604084019190915260608301526001600160a01b0316608082015260a00190565b60009081526020902090565b6002810460018216806200048457607f821691505b60208210811415620004a657634e487b7160e01b600052602260045260246000fd5b50919050565b634e487b7160e01b600052604160045260246000fd5b60805160f81c60a05160c051611035620004f560003960006104fd015260006104c9015260006104a301526110356000f3fe608060405234801561001057600080fd5b506004361061012c5760003560e01c80637ecebe00116100ad578063a9059cbb11610071578063a9059cbb14610242578063d505accf14610255578063dd62ed3e14610268578063f2fde38b1461027b578063fdff9b4d1461028e5761012c565b80637ecebe00146101ec5780638da5cb5b146101ff57806395d89b41146102145780639dc29fac1461021c578063a5e90eee1461022f5761012c565b8063313ce567116100f4578063313ce5671461019f5780633644e515146101b457806340c10f19146101bc57806370a08231146101d1578063715018a6146101e45761012c565b806306fdde0314610131578063095ea7b31461014f57806318160ddd1461016f57806323b872dd1461018457806330adf81f14610197575b600080fd5b6101396102a1565b6040516101469190610df2565b60405180910390f35b61016261015d366004610c6d565b61032f565b6040516101469190610d60565b610177610399565b6040516101469190610d6b565b610162610192366004610b87565b61039f565b61017761047d565b6101a76104a1565b6040516101469190610f45565b6101776104c5565b6101cf6101ca366004610c6d565b610522565b005b6101776101df366004610b34565b61056d565b6101cf61057f565b6101776101fa366004610b34565b6105ca565b6102076105dc565b6040516101469190610d4c565b6101396105eb565b6101cf61022a366004610c6d565b6105f8565b6101cf61023d366004610c33565b610602565b610162610250366004610c6d565b6106a1565b6101cf610263366004610bc2565b610705565b610177610276366004610b55565b6108d6565b6101cf610289366004610b34565b6108f3565b61016261029c366004610b34565b610964565b600080546102ae90610f8e565b80601f01602080910402602001604051908101604052809291908181526020018280546102da90610f8e565b80156103275780601f106102fc57610100808354040283529160200191610327565b820191906000526020600020905b81548152906001019060200180831161030a57829003601f168201915b505050505081565b3360008181526004602090815260408083206001600160a01b038716808552925280832085905551919290917f8c5be1e5ebec7d5bd14f71427d1e84f3dd0314c0f7b2291e5b200ac8c7c3b92590610388908690610d6b565b60405180910390a350600192915050565b60025481565b6001600160a01b038316600090815260046020908152604080832033845290915281205460001981146103fb576103d68382610f77565b6001600160a01b03861660009081526004602090815260408083203384529091529020555b6001600160a01b03851660009081526003602052604081208054859290610423908490610f77565b90915550506001600160a01b0380851660008181526003602052604090819020805487019055519091871690600080516020610fe08339815191529061046a908790610d6b565b60405180910390a3506001949350505050565b7f6e71edae12b1b97f4d1f60370fef10105fa2faae0126114a169c64845d6126c981565b7f000000000000000000000000000000000000000000000000000000000000000081565b60007f000000000000000000000000000000000000000000000000000000000000000046146104fb576104f6610979565b61051d565b7f00000000000000000000000000000000000000000000000000000000000000005b905090565b3360009081526007602052604090205460ff16151560011461055f5760405162461bcd60e51b815260040161055690610e8b565b60405180910390fd5b6105698282610a02565b5050565b60036020526000908152604090205481565b610587610a60565b6001600160a01b03166105986105dc565b6001600160a01b0316146105be5760405162461bcd60e51b815260040161055690610eb1565b6105c86000610a64565b565b60056020526000908152604090205481565b6006546001600160a01b031690565b600180546102ae90610f8e565b6105698282610ab6565b61060a610a60565b6001600160a01b031661061b6105dc565b6001600160a01b0316146106415760405162461bcd60e51b815260040161055690610eb1565b6001600160a01b03821660008181526007602052604090819020805460ff1916841515179055517f0ca261407eb233022917382bed9759311681dc586450acadd08ecf1816f1132090610695908490610d60565b60405180910390a25050565b336000908152600360205260408120805483919083906106c2908490610f77565b90915550506001600160a01b03831660008181526003602052604090819020805485019055513390600080516020610fe083398151915290610388908690610d6b565b428410156107255760405162461bcd60e51b815260040161055690610f0e565b600061072f6104c5565b6001600160a01b038916600090815260056020908152604091829020805460018101909155915161078c927f6e71edae12b1b97f4d1f60370fef10105fa2faae0126114a169c64845d6126c9928d928d928d9290918d9101610d74565b604051602081830303815290604052805190602001206040516020016107b3929190610d31565b6040516020818303038152906040528051906020012090506000600182868686604051600081526020016040526040516107f09493929190610dd4565b6020604051602081039080840390855afa158015610812573d6000803e3d6000fd5b5050604051601f1901519150506001600160a01b038116158015906108485750886001600160a01b0316816001600160a01b0316145b6108645760405162461bcd60e51b815260040161055690610ee6565b6001600160a01b0390811660009081526004602090815260408083208b85168085529252918290208990559051909250908916907f8c5be1e5ebec7d5bd14f71427d1e84f3dd0314c0f7b2291e5b200ac8c7c3b925906108c5908990610d6b565b60405180910390a350505050505050565b600460209081526000928352604080842090915290825290205481565b6108fb610a60565b6001600160a01b031661090c6105dc565b6001600160a01b0316146109325760405162461bcd60e51b815260040161055690610eb1565b6001600160a01b0381166109585760405162461bcd60e51b815260040161055690610e45565b61096181610a64565b50565b60076020526000908152604090205460ff1681565b60007f8b73c3c69bb8fe3d512ecc4cf759cc79239f7b179b0ffacaa9a75d522b39400f60006040516109ab9190610c96565b6040519081900381206109e792917fc89efdaa54c0f20c7adf612882df0950f5a951637e0307cdcb4c672f298b8bc69046903090602001610da8565b60405160208183030381529060405280519060200120905090565b8060026000828254610a149190610f5f565b90915550506001600160a01b03821660008181526003602052604080822080548501905551600080516020610fe083398151915290610a54908590610d6b565b60405180910390a35050565b3390565b600680546001600160a01b038381166001600160a01b0319831681179093556040519116919082907f8be0079c531659141344cd1fd0a4f28419497f9722a3daafe3b4186f6b6457e090600090a35050565b6001600160a01b03821660009081526003602052604081208054839290610ade908490610f77565b90915550506002805482900390556040516000906001600160a01b03841690600080516020610fe083398151915290610a54908590610d6b565b80356001600160a01b0381168114610b2f57600080fd5b919050565b600060208284031215610b45578081fd5b610b4e82610b18565b9392505050565b60008060408385031215610b67578081fd5b610b7083610b18565b9150610b7e60208401610b18565b90509250929050565b600080600060608486031215610b9b578081fd5b610ba484610b18565b9250610bb260208501610b18565b9150604084013590509250925092565b600080600080600080600060e0888a031215610bdc578283fd5b610be588610b18565b9650610bf360208901610b18565b95506040880135945060608801359350608088013560ff81168114610c16578384fd5b9699959850939692959460a0840135945060c09093013592915050565b60008060408385031215610c45578182fd5b610c4e83610b18565b915060208301358015158114610c62578182fd5b809150509250929050565b60008060408385031215610c7f578182fd5b610c8883610b18565b946020939093013593505050565b8154600090819060028104600180831680610cb257607f831692505b6020808410821415610cd257634e487b7160e01b87526022600452602487fd5b818015610ce65760018114610cf757610d23565b60ff19861689528489019650610d23565b610d008a610f53565b885b86811015610d1b5781548b820152908501908301610d02565b505084890196505b509498975050505050505050565b61190160f01b81526002810192909252602282015260420190565b6001600160a01b0391909116815260200190565b901515815260200190565b90815260200190565b9586526001600160a01b0394851660208701529290931660408501526060840152608083019190915260a082015260c00190565b9485526020850193909352604084019190915260608301526001600160a01b0316608082015260a00190565b93845260ff9290921660208401526040830152606082015260800190565b6000602080835283518082850152825b81811015610e1e57858101830151858201604001528201610e02565b81811115610e2f5783604083870101525b50601f01601f1916929092016040019392505050565b60208082526026908201527f4f776e61626c653a206e6577206f776e657220697320746865207a65726f206160408201526564647265737360d01b606082015260800190565b6020808252600c908201526b2737ba1036b0b730b3b2b91760a11b604082015260600190565b6020808252818101527f4f776e61626c653a2063616c6c6572206973206e6f7420746865206f776e6572604082015260600190565b6020808252600e908201526d24a72b20a624a22fa9a4a3a722a960911b604082015260600190565b60208082526017908201527f5045524d49545f444541444c494e455f45585049524544000000000000000000604082015260600190565b60ff91909116815260200190565b60009081526020902090565b60008219821115610f7257610f72610fc9565b500190565b600082821015610f8957610f89610fc9565b500390565b600281046001821680610fa257607f821691505b60208210811415610fc357634e487b7160e01b600052602260045260246000fd5b50919050565b634e487b7160e01b600052601160045260246000fdfeddf252ad1be2c89b69c2b068fc378daa952ba7f163c4a11628f55a4df523b3efa26469706673582212205a391f757a2b266f86c0ee6cb08d7b9e834a3439f02eba1423b25a9992c6332964736f6c63430008000033",
  "linkReferences": {},
  "deployedLinkReferences": {}
}