{
  "abi": [
    {
      "inputs": [
        {
          "internalType": "address",
          "name": "_SGX",
          "type": "address"
        },
        {
          "internalType": "address",
          "name": "_gSGX",
          "type": "address"
        },
        {
          "internalType": "address",
          "name": "_treasury",
          "type": "address"
        },
        {
          "internalType": "address",
          "name": "_lockup",
          "type": "address"
        }
      ],
      "stateMutability": "nonpayable",
      "type": "constructor"
    },
    {
      "anonymous": false,
      "inputs": [
        {
          "indexed": true,
          "internalType": "address",
          "name": "previousOwner",
          "type": "address"
        },
        {
          "indexed": true,
          "internalType": "address",
          "name": "newOwner",
          "type": "address"
        }
      ],
      "name": "OwnershipTransferred",
      "type": "event"
    },
    {
      "anonymous": false,
      "inputs": [
        {
          "indexed": true,
          "internalType": "address",
          "name": "user",
          "type": "address"
        },
        {
          "indexed": false,
          "internalType": "uint256",
          "name": "amount",
          "type": "uint256"
        }
      ],
      "name": "SuccessfullyDeposited",
      "type": "event"
    },
    {
      "anonymous": false,
      "inputs": [
        {
          "indexed": true,
          "internalType": "address",
          "name": "user",
          "type": "address"
        }
      ],
      "name": "VaultCreated",
      "type": "event"
    },
    {
      "anonymous": false,
      "inputs": [
        {
          "indexed": false,
          "internalType": "uint256",
          "name": "percentage",
          "type": "uint256"
        }
      ],
      "name": "burnPercentUpdated",
      "type": "event"
    },
    {
      "anonymous": false,
      "inputs": [
        {
          "indexed": false,
          "internalType": "uint256",
          "name": "minDeposit",
          "type": "uint256"
        }
      ],
      "name": "minVaultDepositUpdated",
      "type": "event"
    },
    {
      "anonymous": false,
      "inputs": [
        {
          "indexed": false,
          "internalType": "uint8",
          "name": "newBoost",
          "type": "uint8"
        }
      ],
      "name": "networkBoostUpdated",
      "type": "event"
    },
    {
      "anonymous": false,
      "inputs": [
        {
          "indexed": false,
          "internalType": "uint256",
          "name": "reward",
          "type": "uint256"
        }
      ],
      "name": "rewardPercentUpdated",
      "type": "event"
    },
    {
      "inputs": [],
      "name": "Lockup",
      "outputs": [
        {
          "internalType": "address",
          "name": "",
          "type": "address"
        }
      ],
      "stateMutability": "view",
      "type": "function"
    },
    {
      "inputs": [],
      "name": "SGX",
      "outputs": [
        {
          "internalType": "contract IERC20",
          "name": "",
          "type": "address"
        }
      ],
      "stateMutability": "view",
      "type": "function"
    },
    {
      "inputs": [],
      "name": "Treasury",
      "outputs": [
        {
          "internalType": "address",
          "name": "",
          "type": "address"
        }
      ],
      "stateMutability": "view",
      "type": "function"
    },
    {
      "inputs": [
        {
          "internalType": "address",
          "name": "",
          "type": "address"
        }
      ],
      "name": "UsersVault",
      "outputs": [
        {
          "internalType": "bool",
          "name": "exists",
          "type": "bool"
        },
        {
          "internalType": "uint256",
          "name": "lastClaimTime",
          "type": "uint256"
        },
        {
          "internalType": "uint256",
          "name": "balance",
          "type": "uint256"
        }
      ],
      "stateMutability": "view",
      "type": "function"
    },
    {
      "inputs": [],
      "name": "baseTime",
      "outputs": [
        {
          "internalType": "uint32",
          "name": "",
          "type": "uint32"
        }
      ],
      "stateMutability": "view",
      "type": "function"
    },
    {
      "inputs": [],
      "name": "burnPercent",
      "outputs": [
        {
          "internalType": "uint256",
          "name": "",
          "type": "uint256"
        }
      ],
      "stateMutability": "view",
      "type": "function"
    },
    {
      "inputs": [
        {
          "internalType": "uint256",
          "name": "rewards",
          "type": "uint256"
        },
        {
          "internalType": "uint256",
          "name": "variable",
          "type": "uint256"
        }
      ],
      "name": "calculatePercentage",
      "outputs": [
        {
          "internalType": "uint256",
          "name": "percentage",
          "type": "uint256"
        }
      ],
      "stateMutability": "pure",
      "type": "function"
    },
    {
      "inputs": [],
      "name": "claimRewards",
      "outputs": [],
      "stateMutability": "nonpayable",
      "type": "function"
    },
    {
      "inputs": [
        {
          "internalType": "uint256",
          "name": "amount",
          "type": "uint256"
        }
      ],
      "name": "createVault",
      "outputs": [
        {
          "internalType": "bool",
          "name": "",
          "type": "bool"
        }
      ],
      "stateMutability": "nonpayable",
      "type": "function"
    },
    {
      "inputs": [
        {
          "internalType": "uint256",
          "name": "amount",
          "type": "uint256"
        }
      ],
      "name": "depositInVault",
      "outputs": [],
      "stateMutability": "nonpayable",
      "type": "function"
    },
    {
      "inputs": [],
      "name": "gSGX",
      "outputs": [
        {
          "internalType": "contract IgSGX",
          "name": "",
          "type": "address"
        }
      ],
      "stateMutability": "view",
      "type": "function"
    },
    {
      "inputs": [],
      "name": "gSGXDistributed",
      "outputs": [
        {
          "internalType": "uint256",
          "name": "",
          "type": "uint256"
        }
      ],
      "stateMutability": "view",
      "type": "function"
    },
    {
      "inputs": [],
      "name": "gSGXPercent",
      "outputs": [
        {
          "internalType": "uint256",
          "name": "",
          "type": "uint256"
        }
      ],
      "stateMutability": "view",
      "type": "function"
    },
    {
      "inputs": [],
      "name": "getBurnPercentage",
      "outputs": [
        {
          "internalType": "uint256",
          "name": "",
          "type": "uint256"
        }
      ],
      "stateMutability": "view",
      "type": "function"
    },
    {
      "inputs": [],
      "name": "getGSGXDistributed",
      "outputs": [
        {
          "internalType": "uint256",
          "name": "",
          "type": "uint256"
        }
      ],
      "stateMutability": "view",
      "type": "function"
    },
    {
      "inputs": [],
      "name": "getGSGXPercent",
      "outputs": [
        {
          "internalType": "uint256",
          "name": "",
          "type": "uint256"
        }
      ],
      "stateMutability": "view",
      "type": "function"
    },
    {
      "inputs": [],
      "name": "getMinVaultDeposit",
      "outputs": [
        {
          "internalType": "uint256",
          "name": "",
          "type": "uint256"
        }
      ],
      "stateMutability": "view",
      "type": "function"
    },
    {
      "inputs": [],
      "name": "getSGXAddress",
      "outputs": [
        {
          "internalType": "address",
          "name": "",
          "type": "address"
        }
      ],
      "stateMutability": "view",
      "type": "function"
    },
    {
      "inputs": [],
      "name": "getTreasuryAddress",
      "outputs": [
        {
          "internalType": "address",
          "name": "",
          "type": "address"
        }
      ],
      "stateMutability": "view",
      "type": "function"
    },
    {
      "inputs": [],
      "name": "getVaultInfo",
      "outputs": [
        {
          "internalType": "bool",
          "name": "exists",
          "type": "bool"
        },
        {
          "internalType": "uint256",
          "name": "lastClaimTime",
          "type": "uint256"
        },
        {
          "internalType": "uint256",
          "name": "balance",
          "type": "uint256"
        }
      ],
      "stateMutability": "view",
      "type": "function"
    },
    {
      "inputs": [],
      "name": "getVaultReward",
      "outputs": [
        {
          "internalType": "uint256",
          "name": "",
          "type": "uint256"
        }
      ],
      "stateMutability": "view",
      "type": "function"
    },
    {
      "inputs": [],
      "name": "minVaultDeposit",
      "outputs": [
        {
          "internalType": "uint256",
          "name": "",
          "type": "uint256"
        }
      ],
      "stateMutability": "view",
      "type": "function"
    },
    {
      "inputs": [],
      "name": "networkBoost",
      "outputs": [
        {
          "internalType": "uint8",
          "name": "",
          "type": "uint8"
        }
      ],
      "stateMutability": "view",
      "type": "function"
    },
    {
      "inputs": [],
      "name": "owner",
      "outputs": [
        {
          "internalType": "address",
          "name": "",
          "type": "address"
        }
      ],
      "stateMutability": "view",
      "type": "function"
    },
    {
      "inputs": [
        {
          "internalType": "uint256",
          "name": "value_",
          "type": "uint256"
        }
      ],
      "name": "payoutFor",
      "outputs": [
        {
          "internalType": "uint256",
          "name": "value",
          "type": "uint256"
        }
      ],
      "stateMutability": "view",
      "type": "function"
    },
    {
      "inputs": [],
      "name": "renounceOwnership",
      "outputs": [],
      "stateMutability": "nonpayable",
      "type": "function"
    },
    {
      "inputs": [],
      "name": "rewardPercent",
      "outputs": [
        {
          "internalType": "uint256",
          "name": "",
          "type": "uint256"
        }
      ],
      "stateMutability": "view",
      "type": "function"
    },
    {
      "inputs": [],
      "name": "reward_granularity",
      "outputs": [
        {
          "internalType": "uint256",
          "name": "",
          "type": "uint256"
        }
      ],
      "stateMutability": "view",
      "type": "function"
    },
    {
      "inputs": [
        {
          "internalType": "uint256",
          "name": "percentage",
          "type": "uint256"
        }
      ],
      "name": "setBurnPercent",
      "outputs": [],
      "stateMutability": "nonpayable",
      "type": "function"
    },
    {
      "inputs": [
        {
          "internalType": "uint256",
          "name": "minDeposit",
          "type": "uint256"
        }
      ],
      "name": "setMinVaultDeposit",
      "outputs": [],
      "stateMutability": "nonpayable",
      "type": "function"
    },
    {
      "inputs": [
        {
          "internalType": "uint8",
          "name": "boost",
          "type": "uint8"
        }
      ],
      "name": "setNetworkBoost",
      "outputs": [],
      "stateMutability": "nonpayable",
      "type": "function"
    },
    {
      "inputs": [
        {
          "internalType": "uint256",
          "name": "_reward",
          "type": "uint256"
        }
      ],
      "name": "setRewardPercent",
      "outputs": [],
      "stateMutability": "nonpayable",
      "type": "function"
    },
    {
      "inputs": [
        {
          "internalType": "uint256",
          "name": "percentage",
          "type": "uint256"
        }
      ],
      "name": "setgSGXDistributed",
      "outputs": [],
      "stateMutability": "nonpayable",
      "type": "function"
    },
    {
      "inputs": [
        {
          "internalType": "uint256",
          "name": "percentage",
          "type": "uint256"
        }
      ],
      "name": "setgSGXPercent",
      "outputs": [],
      "stateMutability": "nonpayable",
      "type": "function"
    },
    {
      "inputs": [],
      "name": "totalVaultsCreated",
      "outputs": [
        {
          "internalType": "uint256",
          "name": "",
          "type": "uint256"
        }
      ],
      "stateMutability": "view",
      "type": "function"
    },
    {
      "inputs": [
        {
          "internalType": "address",
          "name": "newOwner",
          "type": "address"
        }
      ],
      "name": "transferOwnership",
      "outputs": [],
      "stateMutability": "nonpayable",
      "type": "function"
    },
    {
      "inputs": [
        {
          "internalType": "address",
          "name": "user",
          "type": "address"
        }
      ],
      "name": "vaultExists",
      "outputs": [
        {
          "internalType": "bool",
          "name": "",
          "type": "bool"
        }
      ],
      "stateMutability": "view",
      "type": "function"
    }
  ],
  "bytecode": {
    "object": "0x61010060405260006002553480156200001757600080fd5b50604051620019f1380380620019f18339810160408190526200003a91620000d5565b620000453362000068565b6001600160a01b0393841660805291831660a052821660c0521660e05262000132565b600080546001600160a01b038381166001600160a01b0319831681178455604051919092169283917f8be0079c531659141344cd1fd0a4f28419497f9722a3daafe3b4186f6b6457e09190a35050565b80516001600160a01b0381168114620000d057600080fd5b919050565b60008060008060808587031215620000ec57600080fd5b620000f785620000b8565b93506200010760208601620000b8565b92506200011760408601620000b8565b91506200012760608601620000b8565b905092959194509250565b60805160a05160c05160e0516117e46200020d600039600081816104cd015281816114350152818161150e01526115a101526000818161031b0152818161053e015281816108710152818161092501528181610c540152610d080152600081816103bf015281816111b30152818161126801526112e10152600081816103570152818161046d015281816107e4015281816108a00152818161095401528181610bc701528181610c8301528181610d37015281816110780152818161113a015281816111e201528181611310015261139c01526117e46000f3fe608060405234801561001057600080fd5b50600436106102275760003560e01c80637927ebf811610130578063c1c5dd27116100b8578063d9ded2cc1161007c578063d9ded2cc14610534578063e00246041461053c578063e2e91bb214610562578063f2fde38b14610575578063f39739211461058857600080fd5b8063c1c5dd27146104b5578063cbdf8692146104c8578063d02781bf146104ef578063d030205114610523578063d4ebb6631461052c57600080fd5b80638e3875eb116100ff5780638e3875eb1461045657806396686adb1461045f57806399dac893146104685780639abbdf4b1461048f578063bb1570da146104a257600080fd5b80637927ebf8146103e15780637f98aa71146103f45780638918b62f146104365780638da5cb5b1461044557600080fd5b806350ea6dcc116101b357806367e189181161018257806367e189181461038e5780636b112afa146103a15780636e1d52cf146103aa578063715018a6146103b257806375ac76da146103ba57600080fd5b806350ea6dcc1461030e578063563df32f1461031657806361959ab11461035557806362a998271461037b57600080fd5b80632133e3b9116101fa5780632133e3b9146102ac578063372500ab146102bf57806343084a57146102c957806347eaa9e7146102e85780634a0f858d146102fb57600080fd5b806303807ee51461022c57806308b096a0146102485780630f2aaec51461026857806316d3759514610270575b600080fd5b61023560055481565b6040519081526020015b60405180910390f35b6102536301e1338081565b60405163ffffffff909116815260200161023f565b600554610235565b61029c61027e366004611624565b6001600160a01b031660009081526001602052604090205460ff1690565b604051901515815260200161023f565b6102356102ba36600461164d565b610591565b6102c76105b7565b005b6008546102d69060ff1681565b60405160ff909116815260200161023f565b6102c76102f636600461166f565b610697565b6102c761030936600461166f565b610706565b600754610235565b61033d7f000000000000000000000000000000000000000000000000000000000000000081565b6040516001600160a01b03909116815260200161023f565b7f000000000000000000000000000000000000000000000000000000000000000061033d565b6102c761038936600461166f565b610735565b6102c761039c36600461166f565b6109fb565b61023560025481565b600454610235565b6102c7610a2a565b61033d7f000000000000000000000000000000000000000000000000000000000000000081565b6102356103ef36600461166f565b610a60565b33600090815260016020819052604090912080549181015460029091015460ff909216915b60408051931515845260208401929092529082015260600161023f565b610235670de0b6b3a764000081565b6000546001600160a01b031661033d565b61023560045481565b61023560075481565b61033d7f000000000000000000000000000000000000000000000000000000000000000081565b61029c61049d36600461166f565b610a89565b6102c76104b036600461166f565b610dd9565b6102c76104c336600461166f565b610e38565b61033d7f000000000000000000000000000000000000000000000000000000000000000081565b6104196104fd366004611624565b600160208190526000918252604090912080549181015460029091015460ff9092169183565b61023560035481565b600654610235565b600354610235565b7f000000000000000000000000000000000000000000000000000000000000000061033d565b6102c7610570366004611688565b610e97565b6102c7610583366004611624565b610f57565b61023560065481565b6000670de0b6b3a76400006105a683856116c1565b6105b091906116e0565b9392505050565b3360009081526001602081815260408084208151606081018352815460ff16151581529381015492840183905260020154908301529091906105f99042611702565b905060006301e1338063ffffffff166003548361061691906116c1565b61062091906116e0565b90506000670de0b6b3a764000082856040015161063d91906116c1565b61064791906116e0565b90506106538133610ff2565b50504260208381019182523360009081526001918290526040908190208551815460ff19169015151781559251918301919091559092015160029092019190915550565b6000546001600160a01b031633146106ca5760405162461bcd60e51b81526004016106c190611719565b60405180910390fd5b60048190556040518181527f1ea059cb9980eddd3da8e857aabaebed6d32de3b5974da6591e7ccf469c771b8906020015b60405180910390a150565b6000546001600160a01b031633146107305760405162461bcd60e51b81526004016106c190611719565b600655565b60045481101561077e5760405162461bcd60e51b815260206004820152601460248201527320b6b7bab73a1034b9903a37b79039b6b0b6361760611b60448201526064016106c1565b6008546000906107919060ff16836116c1565b905061079b6105b7565b33600090815260016020526040812060020180548392906107bd90849061174e565b90915550506040516323b872dd60e01b8152336004820152306024820152604481018390527f00000000000000000000000000000000000000000000000000000000000000006001600160a01b0316906323b872dd906064016020604051808303816000875af1158015610835573d6000803e3d6000fd5b505050506040513d601f19601f820116820180604052508101906108599190611766565b5060405163095ea7b360e01b81526001600160a01b037f000000000000000000000000000000000000000000000000000000000000000081166004830152602482018490527f0000000000000000000000000000000000000000000000000000000000000000169063095ea7b3906044016020604051808303816000875af11580156108e9573d6000803e3d6000fd5b505050506040513d601f19601f8201168201806040525081019061090d9190611766565b5060405163a9059cbb60e01b81526001600160a01b037f000000000000000000000000000000000000000000000000000000000000000081166004830152602482018490527f0000000000000000000000000000000000000000000000000000000000000000169063a9059cbb906044016020604051808303816000875af115801561099d573d6000803e3d6000fd5b505050506040513d601f19601f820116820180604052508101906109c19190611766565b5060405181815233907fa155d4cdc6e4c7c708da428e6dba018e815bce0e0e83e85449df7e3624878b2e9060200160405180910390a25050565b6000546001600160a01b03163314610a255760405162461bcd60e51b81526004016106c190611719565b600755565b6000546001600160a01b03163314610a545760405162461bcd60e51b81526004016106c190611719565b610a5e60006114a2565b565b6000670de0b6b3a764000060035483610a7991906116c1565b610a8391906116e0565b92915050565b3360009081526001602052604081205460ff1615610ae95760405162461bcd60e51b815260206004820152601960248201527f5573657220616c7265616479206861732061205661756c742e0000000000000060448201526064016106c1565b600454821015610b325760405162461bcd60e51b815260206004820152601460248201527320b6b7bab73a1034b9903a37b79039b6b0b6361760611b60448201526064016106c1565b600854600090610b459060ff16846116c1565b604080516060810182526001808252426020808401918252838501868152336000908152918490529481209351845460ff19169015151784559051838301559251600292830155815493945092909190610ba090849061174e565b90915550506040516323b872dd60e01b8152336004820152306024820152604481018490527f00000000000000000000000000000000000000000000000000000000000000006001600160a01b0316906323b872dd906064016020604051808303816000875af1158015610c18573d6000803e3d6000fd5b505050506040513d601f19601f82011682018060405250810190610c3c9190611766565b5060405163095ea7b360e01b81526001600160a01b037f000000000000000000000000000000000000000000000000000000000000000081166004830152602482018590527f0000000000000000000000000000000000000000000000000000000000000000169063095ea7b3906044016020604051808303816000875af1158015610ccc573d6000803e3d6000fd5b505050506040513d601f19601f82011682018060405250810190610cf09190611766565b5060405163a9059cbb60e01b81526001600160a01b037f000000000000000000000000000000000000000000000000000000000000000081166004830152602482018590527f0000000000000000000000000000000000000000000000000000000000000000169063a9059cbb906044016020604051808303816000875af1158015610d80573d6000803e3d6000fd5b505050506040513d601f19601f82011682018060405250810190610da49190611766565b5060405133907f2e49a5810fda2439a23771848b4acec786b0a64d4de3d124ac57fc8739c3887590600090a250600192915050565b6000546001600160a01b03163314610e035760405162461bcd60e51b81526004016106c190611719565b60058190556040518181527f7dbdbcc7c98741830150a332948181ff0cf7908ca02b83f66252717d74547310906020016106fb565b6000546001600160a01b03163314610e625760405162461bcd60e51b81526004016106c190611719565b60038190556040518181527f9cad78d619e3ec77a922ec9bf3cb9772fdb2d115cf4038d953ad3d8c263399ee906020016106fb565b6000546001600160a01b03163314610ec15760405162461bcd60e51b81526004016106c190611719565b60018160ff161015610f155760405162461bcd60e51b815260206004820152601b60248201527f4e6574776f726b20426f6f73742063616e2774206265203c20312e000000000060448201526064016106c1565b6008805460ff191660ff83169081179091556040519081527f908f1f6b6e87000288304d38e9e1c35d19de25df1bc6e0f1466a2b3214593188906020016106fb565b6000546001600160a01b03163314610f815760405162461bcd60e51b81526004016106c190611719565b6001600160a01b038116610fe65760405162461bcd60e51b815260206004820152602660248201527f4f776e61626c653a206e6577206f776e657220697320746865207a65726f206160448201526564647265737360d01b60648201526084016106c1565b610fef816114a2565b50565b336001600160a01b0382161461105c5760405162461bcd60e51b815260206004820152602960248201527f596f752063616e206f6e6c79206469737472696275746520796f7572206f776e604482015268103932bbb0b932399760b91b60648201526084016106c1565b6040516340c10f1960e01b8152306004820152602481018390527f00000000000000000000000000000000000000000000000000000000000000006001600160a01b0316906340c10f1990604401600060405180830381600087803b1580156110c457600080fd5b505af11580156110d8573d6000803e3d6000fd5b5050505060008060008060006110ed876114f2565b9450945094509450945084876111039190611702565b965061110f8288611702565b965061111b8188611702565b604051632770a7eb60e21b8152306004820152602481018790529097507f00000000000000000000000000000000000000000000000000000000000000006001600160a01b031690639dc29fac90604401600060405180830381600087803b15801561118657600080fd5b505af115801561119a573d6000803e3d6000fd5b505060405163095ea7b360e01b81526001600160a01b037f000000000000000000000000000000000000000000000000000000000000000081166004830152602482018690527f000000000000000000000000000000000000000000000000000000000000000016925063095ea7b391506044016020604051808303816000875af115801561122d573d6000803e3d6000fd5b505050506040513d601f19601f820116820180604052508101906112519190611766565b5060405163b6b55f2560e01b8152600481018390527f00000000000000000000000000000000000000000000000000000000000000006001600160a01b03169063b6b55f2590602401600060405180830381600087803b1580156112b457600080fd5b505af11580156112c8573d6000803e3d6000fd5b505060405163a9059cbb60e01b81526001600160a01b037f000000000000000000000000000000000000000000000000000000000000000081166004830152602482018590527f000000000000000000000000000000000000000000000000000000000000000016925063a9059cbb91506044016020604051808303816000875af115801561135b573d6000803e3d6000fd5b505050506040513d601f19601f8201168201806040525081019061137f9190611766565b5060405163a9059cbb60e01b8152336004820152602481018890527f00000000000000000000000000000000000000000000000000000000000000006001600160a01b03169063a9059cbb906044016020604051808303816000875af11580156113ed573d6000803e3d6000fd5b505050506040513d601f19601f820116820180604052508101906114119190611766565b506040516369d10ee760e01b815233600482015260248101859052604481018490527f00000000000000000000000000000000000000000000000000000000000000006001600160a01b0316906369d10ee790606401600060405180830381600087803b15801561148157600080fd5b505af1158015611495573d6000803e3d6000fd5b5050505050505050505050565b600080546001600160a01b038381166001600160a01b0319831681178455604051919092169283917f8be0079c531659141344cd1fd0a4f28419497f9722a3daafe3b4186f6b6457e09190a35050565b600080600080600061150686600554610591565b9450611599867f00000000000000000000000000000000000000000000000000000000000000006001600160a01b031663df108d376040518163ffffffff1660e01b8152600401602060405180830381865afa15801561156a573d6000803e3d6000fd5b505050506040513d601f19601f8201168201806040525081019061158e9190611788565b63ffffffff16610591565b93506115fd867f00000000000000000000000000000000000000000000000000000000000000006001600160a01b03166316d6b4b66040518163ffffffff1660e01b8152600401602060405180830381865afa15801561156a573d6000803e3d6000fd5b925061160b86600654610591565b915061161986600754610591565b905091939590929450565b60006020828403121561163657600080fd5b81356001600160a01b03811681146105b057600080fd5b6000806040838503121561166057600080fd5b50508035926020909101359150565b60006020828403121561168157600080fd5b5035919050565b60006020828403121561169a57600080fd5b813560ff811681146105b057600080fd5b634e487b7160e01b600052601160045260246000fd5b60008160001904831182151516156116db576116db6116ab565b500290565b6000826116fd57634e487b7160e01b600052601260045260246000fd5b500490565b600082821015611714576117146116ab565b500390565b6020808252818101527f4f776e61626c653a2063616c6c6572206973206e6f7420746865206f776e6572604082015260600190565b60008219821115611761576117616116ab565b500190565b60006020828403121561177857600080fd5b815180151581146105b057600080fd5b60006020828403121561179a57600080fd5b815163ffffffff811681146105b057600080fdfea2646970667358221220b276e8856db0b1efcd282f1e91d1918c2cd681b86929c17274b348f4e98d174c64736f6c634300080b0033",
    "linkReferences": {}
  }
}